:10000000F8560020358F000051290100ED8E0000C8
:10001000ED8E0000ED8E0000ED8E0000000000006F
:10002000000000000000000000000000717F0000E0
:10003000ED8E000000000000257F0000ED8E000026
:10004000F97F0000F97F0000F97F0000F97F0000D0
:10005000F97F0000F97F0000F97F0000F97F0000C0
:10006000F97F0000F97F0000F97F0000F97F0000B0
:10007000F97F0000F97F0000F97F0000F97F0000A0
:10008000F97F0000F97F0000F97F0000F97F000090
:10009000F97F0000F97F0000F97F0000F97F000080
:1000A000F97F0000F97F0000F97F0000F97F000070
:1000B000F97F0000F97F0000F97F0000F97F000060
:1000C000F97F0000F97F0000F97F0000F97F000050
:0C00D000F97F0000F97F0000F97F0000BC
:1000DC0053B94AB9002908BF00281CBF4FF0FF31A3
:1000EC004FF0FF3000F00CB8ADF1080C6DE904CE08
:1000FC0000F008F8DDF804E0DDE9022304B07047F5
:10010C00704700BF2DE9F04786468C460846089E8E
:10011C00154674461946002B40F0C2808542B2FA4F
:10012C0082F245D94AB1C2F1200300FA02FC2EFA40
:10013C0003F3954043EA0C0C94404FEA154EA8B2D9
:10014C00BCFBFEF8230C0EFB18CC08FB00F943EAB1
:10015C000C43994528D9EB1808F1FF3704D299457F
:10016C0002D9A8F102072B44A3EB0903A4B2B3FBF9
:10017C00FEFC0EFB1C330CFB00F044EA0344A042D3
:10018C0014D92C190CF1FF3304D2A04202D9ACF1D2
:10019C0002032C44241A43EA07401EB1D440002326
:1001AC0034607360BDE8F0874746DDE76346F1E7EE
:1001BC0092BB431B01214FEA154EAFB2B3FBFEFCC1
:1001CC00200C0EFB1C330CFB07F840EA034398454C
:1001DC0062D9EB180CF1FF3004D2984502D9ACF17E
:1001EC0002002B44A3EB0803A4B2B3FBFEFC0EFBF2
:1001FC001C330CFB07F744EA0344A7424ED92C19D5
:10020C000CF1FF3304D2A74202D9ACF102032C4407
:10021C00E41B43EA0040C0E7C2F1200320FA03F1DB
:10022C00954090402EFA03F303434FEA154EAFB2BC
:10023C00B1FBFEFC0EFB1C10190C0CFB07F841EA81
:10024C000041884504FA02F422D969180CF1FF30F8
:10025C0004D2884502D9ACF102002944A1EB080173
:10026C009BB2B1FBFEFC0EFB1C110CFB07F743EA27
:10027C0001439F420ED9EB180CF1FF3104D29F427F
:10028C0002D9ACF102012B44DB1B41EA004192E79D
:10029C006046E3E76146F7E76046A3E76346B7E7E6
:1002AC00834206D916B9002108467BE7C6E900E06F
:1002BC00F9E7B3FA83F78FB9834201D3724508D8B3
:1002CC00BEEB020460EB030301209C461EB9002127
:1002DC0068E73846FAE7C6E9004CF8E7C7F1200CA6
:1002EC00BB4022FA0CF41C432EFA0CF120FA0CF34E
:1002FC00B84001434FEA14490EFA07F5B3FBF9F87D
:10030C001FFA84FE09FB18300B0C08FB0EFA43EAAB
:10031C0000439A4502FA07F240D9E31808F1FF307E
:10032C0004D29A4502D9A8F102002344A3EB0A0394
:10033C0089B2B3FBF9F809FB183308FB0EFE41EA4E
:10034C0003418E452CD9611808F1FF3304D28E4538
:10035C0002D9A8F10203214443EA0040A0FB029811
:10036C00A1EB0E014145CE46434602D306D14D4585
:10037C0004D2B9EB020E68EB04030138002EA6D0B0
:10038C00B5EB0E0261EB030101FA0CFC22FA07F348
:10039C004CEA0303F940C6E9003198E74046C5E74B
:1003AC004346D9E7F0B583B000AF4FF47A700EF046
:1003BC0041FA00F06FFE0446002867D08E4B1B6894
:1003CC0013F0070F32D06D4688B06B4613F1100254
:1003DC002FD00C213AB10846042901DD874E5E610D
:1003EC00082800DD9C610B2926DD0C243AB1032181
:1003FC00397100217971B971F9717868186100212E
:10040C006FF300016FF341016FF382016FF3C501CC
:10041C00012363F38811C4F30A0464F353216FF3CB
:10042C001F510023744804F073FAAD464FF0FF34AB
:10043C0097E06FF00041CDE76FF01B04D6E76FF04B
:10044C00004137E00F2948DD10213AB10420387102
:10045C0000207871B871F871786818616FF3000535
:10046C006FF341056FF382056FF3C505042363F346
:10047C008815C1F30A0161F353256FF31F5500234F
:10048C0029465D4804F044FAB5460134292C27DC92
:10049C00E0B201460EF010FA0028F6D0564B1B685D
:1004AC0013F0040FF1D06E4688B06B4613F11002B6
:1004BC00C5D01021002AC5D00846042903DDDFF879
:1004CC0040C1C3F814C0082803DDDFF838C1C3F8F5
:1004DC0018C00C28B6DDDC61B4E76FF01B01B4E783
:1004EC00494800F06FF9044600283ED1424B1B6886
:1004FC0013F0040F33D06E4688B06B4613F1100224
:10050C0074D00C2142B10846042901DD3F4D5D61D8
:10051C00082801DD3B4898610B296ADD0C253AB1AE
:10052C000321397100217971B971F97178681861F9
:10053C0000216FF300016FF341016FF382016FF340
:10054C00C501042363F38811C5F30A0363F3532134
:10055C006FF31F510023284804F0DAF9B54600F078
:10056C00CBF920460C37BD46F0BD234B1B6813F06E
:10057C00070F32D06D4688B06B4613F110022FD0A6
:10058C000C213AB10846042901DD214E5E61082890
:10059C0000DD9C610B2926DD0C243AB10321397155
:1005AC0000217971B971F9717868186100216FF3C4
:1005BC0000016FF341016FF382016FF3C501012359
:1005CC0063F38811C4F30A0464F353216FF31F51CE
:1005DC000023094804F09CF9AD466FF00104C0E714
:1005EC006FF00041CDE76FF01B04D6E76FF00041D0
:1005FC0088E76FF01B0592E7F002002038550100E8
:10060C0058550100A0550100E00D00208C5501004B
:10061C007055010008B5024B1B685B68984708BD14
:10062C000C00002008B5024B1B685B68984708BD9E
:10063C000C00002008B5024B1B685B68984708BD8E
:10064C000C00002008B5024B1B685B68984708BD7E
:10065C000C00002008B502480DF0E2F808BD00BF00
:10066C0048030020234B1B6813F0040F40D0B0B597
:10067C0082B000AF6C4688B06B4613F1100231D0DB
:10068C000C2142B10846042901DD1B4D5D6108288F
:10069C0001DD1A4898610B2927DD4FF00C0C3AB19B
:1006AC000321397100217971B971F9717868186178
:1006BC0000216FF300016FF341016FF382016FF3BF
:1006CC00C501042363F38811CCF30A0C6CF353219A
:1006DC006FF31F510023074804F01AF9A546083799
:1006EC00BD46B0BD6FF00041CBE76FF01B0CD6E7F9
:1006FC00704700BF18030020B055010010560100D0
:10070C00234B1B6813F0040F40D0B0B582B000AF80
:10071C006C4688B06B4613F1100231D00C2142B1FB
:10072C000846042901DD1B4D5D61082801DD1A48CE
:10073C0098610B2927DD4FF00C0C3AB1032139716C
:10074C0000217971B971F9717868186100216FF322
:10075C0000016FF341016FF382016FF3C5010423B4
:10076C0063F38811CCF30A0C6CF353216FF31F5114
:10077C000023074804F0CCF8A5460837BD46B0BDA9
:10078C006FF00041CBE76FF01B0CD6E7704700BF52
:10079C0018030020C45501000456010008B505E0FB
:1007AC0001F01AF84FF47A700EF05AF840F26762C2
:1007BC00002303480DF05CF80028F1D0F2E700BFED
:1007CC004803002010B58EB001F0B4F938BB0EF020
:1007DC0086FA012001F0D0F8044600284BD10EF027
:1007EC0084FA3B4800F074FE44F234000EF027F912
:1007FC0044F234000EF01BF9364801F0A3FA364BE4
:10080C00364A3749374800F073FF012136480EF05D
:10081C0012FA012000F078FF20460EB010BD334BC9
:10082C001B6813F0070F02D14FF0FF34F4E7304B85
:10083C000D9302238DF8043000238DF805308DF8CC
:10084C0006308DF80730019A0C92194663F30001BB
:10085C0063F3410163F3820163F3C501012262F387
:10086C008811082262F3532163F31F510CAA1F480D
:10087C0004F04EF8D8E71D4B1B6813F0070F02D19C
:10088C006FF00104C8E71B4B079302238DF804306B
:10089C0000238DF805308DF806308DF80730019A5D
:1008AC000692194663F3000163F3410163F382017D
:1008BC0063F3C501012262F38811082262F353210C
:1008CC0063F31F5106AA094804F022F8D8E700BFC9
:1008DC000000002061060000410600003106000007
:1008EC00210600005106000080D0230418030020CC
:1008FC00D4550100E855010000B5B7B00C4B1B688E
:10090C001B68984700220023CDE90623002304939B
:10091C0005220392029301930093064B4FF4FC7251
:10092C00054908A813F0E7FE37B05DF804FB00BFDB
:10093C000C000020A9070000C03C0020002205E0AC
:10094C0013445B7813449BB202339AB2064B9B88D8
:10095C00934206D9054B1B68995C8142F0D1104635
:10096C0070474FF0FF307047180E0020140E002017
:10097C0008B58023044A002104480FF00BFE002820
:10098C0000DB002008BD00BF180E0020E40D002085
:10099C0010B582B0084CA188063120460EF068FCD8
:1009AC000190A088063004220DEB0201204412F0C5
:1009BC00E6F902B010BD00BF180E002010B59EB0B5
:1009CC007048714B986213F02DFE10B36E4B4FF4C0
:1009DC00F4211960986A03AA12F0CBFD002844D1C7
:1009EC006948049B83810323C38103F04FF80446B9
:1009FC00002866D1C8200DF049FF042302AA00216B
:100A0C0061480FF0C7FD0028C0F2878020461EB059
:100A1C0010BD5E4B1B6813F0070F02D14FF0FF3473
:100A2C00F4E75B4B1D9302238DF8043000238DF803
:100A3C0005308DF806308DF80730019A1C92194656
:100A4C0063F3000163F3410163F3820163F3C501B6
:100A5C00012262F38811082262F3532163F31F51C0
:100A6C001CAA4A4803F054FFD8E7484B1B6813F004
:100A7C00070F02D16FF00104C8E7464B179302230E
:100A8C008DF8043000238DF805308DF806308DF884
:100A9C000730019A1692194663F3000163F3410182
:100AAC0063F3820163F3C501012262F3881108220A
:100ABC0062F3532163F31F5116AA344803F028FF45
:100ACC00D8E7324B1B6813F0070F02D16FF002040A
:100ADC009CE7314B119302238DF8043000238DF8E1
:100AEC0005308DF806308DF80730019A10921946B2
:100AFC0063F3000163F3410163F3820163F3C50106
:100B0C00012262F38811082262F3532163F31F510F
:100B1C0010AA1E4803F0FCFED8E7042302AA002109
:100B2C00194803F0C3F90028BFF670AF174B1B68C8
:100B3C0013F0070F02D16FF0030467E7174B0B9309
:100B4C0002238DF8043000238DF805308DF8063023
:100B5C008DF80730019A0A92194663F3000163F38A
:100B6C00410163F3820163F3C501012262F3881131
:100B7C00082262F3532163F31F510AAA034803F0BE
:100B8C00C7FED8E73C510100E40D0020CC02002048
:100B9C003856010054560100705601008856010069
:100BAC00F0B583B000AF4DF6CA63FB800222B91DCD
:100BBC00274812F0BFF810B90C37BD46F0BD254BD5
:100BCC001B6813F0070F3AD0214B1D886C4688B078
:100BDC006B4613F1100235D0102162B1084604297E
:100BEC0001DD1D4E5E61082800DD9D610C2802DDD3
:100BFC004DF6CA60D8610F2927DD4FF0100C3AB1C1
:100C0C000421397000217970B970F9703868186155
:100C1C0000216FF300016FF341016FF382016FF359
:100C2C00C501012363F38811CCF30A0363F3532149
:100C3C006FF31F510023074803F06AFEA5464FF0DF
:100C4C00FF30B9E76FF00041C7E76FF01B0CD6E738
:100C5C00180E0020CC020020A4560100F0B583B081
:100C6C0000AF2C4DAC88063404222919B81812F0A8
:100C7C0086F8214628460EF0FBFA7B68834203D1A6
:100C8C0000200C37BD46F0BD234A126812F0070F46
:100C9C0037D06C4688B0694611F1100234D010255B
:100CAC0062B1AC46042D01DD1C4E4E61BCF1080F47
:100CBC0000DD8B61BCF10C0F00DDC8610F2D26DD52
:100CCC0010233AB10420387000207870B870F87096
:100CDC003868086100216FF300016FF341016FF375
:100CEC0082016FF3C501012060F38811C3F30A037D
:100CFC0063F353216FF31F510023074803F008FEE1
:100D0C00A5464FF0FF30BCE76FF00045C8E76FF029
:100D1C001B03D6E7180E0020CC020020C0560100A1
:100D2C0000B58FB0FFF73CFF40B9304B9B88792B57
:100D3C0030D8FFF793FF0FB05DF804FB2C4B1B680A
:100D4C0013F0070F02D14FF0FF30F4E7294B0D934E
:100D5C0002238DF8043000238DF805308DF8063011
:100D6C008DF80730019A0C92194663F3000163F376
:100D7C00410163F3820163F3C501012262F388111F
:100D8C00082262F3532163F31F510CAA184803F095
:100D9C00BFFDD8E7164B1B6813F0070F02D16FF09D
:100DAC000100C8E7144B079302238DF8043000238D
:100DBC008DF805308DF806308DF80730019A0692C3
:100DCC00194663F3000163F3410163F3820163F39A
:100DDC00C501012262F38811082262F3532163F3E7
:100DEC001F5106AA024803F093FDD8E7180E002005
:100DFC00CC020020F85601000857010030B583B032
:100E0C004DF6CA63ADF80630144C02220DF1060102
:100E1C00204611F0B4FF0123A3700025E570FFF705
:100E2C00B7FD8023224629460D4803F03FF8A8421F
:100E3C000ADBC8200DF02AFDFFF79AFD38B9FFF741
:100E4C006FFF38B903B030BD4FF0FF30FAE76FF0E9
:100E5C000100F7E76FF00200F4E700BF180E002066
:100E6C00E40D0020F0B59DB00191834B9F887B1859
:100E7C000233792B2CD8044616460D46FFF75EFD3F
:100E8C00031EC0F28680EA180232792A4CD87B4ABB
:100E9C0010689C1C2A463146204411F04BFF002858
:100EAC006ED10024FFF774FD8023734A002174482F
:100EBC0002F0FCFF14B10028C0F28580C8200DF0B0
:100ECC00E5FCFFF755FD002840F0A9801DB0F0BDF2
:100EDC006C4B1B6813F0070F02D14FF0FF30F5E796
:100EEC00694B1B9302238DF80C3000238DF80D30C9
:100EFC008DF80E308DF80F30039A1A92194663F361
:100F0C00000163F3410163F3820163F3C501012224
:100F1C0062F38811082262F3532163F31F511AAA5A
:100F2C00584803F0F5FCD8E7564B1B6813F0070F35
:100F3C0002D16FF00100C9E7534B099302238DF8DE
:100F4C000C3000238DF80D308DF80E308DF80F30ED
:100F5C00039A0892194663F3000163F3410163F3AA
:100F6C00820163F3C501012262F38811082262F346
:100F7C00532163F31F5108AA424803F0C9FCD8E778
:100F8C003E4B1868019A3146204411F0F8FE0124BA
:100F9C0088E73A4D2868C455374CA3880133019A29
:100FAC0001A9184411F0EBFE2868A3880233019ABA
:100FBC003146184411F0E3FEA388019A134402331E
:100FCC00A38001246EE72F4B1B6813F0070F02D18F
:100FDC006FF003007AE72D4B0F9302238DF80C3042
:100FEC0000238DF80D308DF80E308DF80F30039AEC
:100FFC000E92194663F3000163F3410163F382011E
:10100C0063F3C501012262F38811082262F35321B4
:10101C0063F31F510EAA1B4803F07AFCD8E7194B57
:10102C001B6813F0070F02D16FF004004EE7184B4A
:10103C00159302238DF80C3000238DF80D308DF8AC
:10104C000E308DF80F30039A1492194663F3000199
:10105C0063F3410163F3820163F3C501012262F37F
:10106C008811082262F3532163F31F5114AA054817
:10107C0003F04EFCD8E700BF180E0020140E002021
:10108C00E40D0020CC020020205701004C57010039
:10109C006C570100F0B58FB000AFFFF78FFCD8B9DB
:1010AC00C8200DF0F3FBFFF763FC0346002859D171
:1010BC00974B984A1A60FFF733FE0446002840F01D
:1010CC00B780954B1B6803F00703022B00F28F804F
:1010DC0020463C37BD46F0BD03468F4A126812F0DD
:1010EC00070F39D06C4688B0694611F110020ED04A
:1010FC000C2042B18446042801DD884D4D61BCF1C1
:10110C00080F07DD8B610B2829DD0C2304E06FF041
:10111C000040EEE76FF01B033AB10320387100205A
:10112C007871B871F8717868086100216FF300016B
:10113C006FF341016FF382016FF3C501012060F37E
:10114C008811C3F30A0363F353216FF31F51002378
:10115C00714803F0DDFBA5464FF0FF34B8E76FF0A4
:10116C001B03D9E76C4A126812F0070F39D06C4692
:10117C0088B0694611F110020ED00C2042B18446A1
:10118C00042801DD664D4D61BCF1080F07DD8B6154
:10119C000B2829DD0C2304E06FF00040EEE76FF024
:1011AC001B033AB10320387100207871B871F871C3
:1011BC007868086100216FF300016FF341016FF350
:1011CC0082016FF3C501012060F38811C3F30A0398
:1011DC0063F353216FF31F5100234F4803F098FB27
:1011EC00A5466FF0010473E76FF01B03D9E74D4B75
:1011FC007B6302233B7100237B71BB71FB717A68AB
:10120C003A63194663F3000163F3410163F382010E
:10121C0063F3C501032262F38811082262F35321A0
:10122C0063F31F5107F130023B4803F071FB4FE7AA
:10123C00FFF7E4FD044638BB374B1B6803F007038C
:10124C00022B7FF645AF384BFB6102233B71002329
:10125C007B71BB71FB717A68BA61194663F300014B
:10126C0063F3410163F3820163F3C501032262F36B
:10127C008811082262F3532163F31F5107F11802FE
:10128C00254803F045FB23E7234B1B6813F0070F9E
:10129C0038D06D4688B0694611F110020DD00C2380
:1012AC003AB11846042B01DD204E4E61082807DDAB
:1012BC008C610B2B29DD0C2304E06FF00043EFE76E
:1012CC006FF01B033AB10320387100207871B871AC
:1012DC00F8717868086100216FF300016FF3410128
:1012EC006FF382016FF3C501012060F38811C3F322
:1012FC000A0363F353216FF31F510023064803F0D5
:10130C0007FBAD466FF00204E2E66FF01B03D9E772
:10131C00140E00201E0E0020CC0200209457010059
:10132C00B4570100D457010020580100F4570100B4
:10133C0008B5002103480FF027F900B908BD4FF09C
:10134C00FF30FBE7E40D002008B50A46802928BFD2
:10135C008022024911F013FD08BD00BF180E0020B9
:10136C0000B589B0C8200DF091FAFFF701FB10B958
:10137C0009B05DF804FB164B1B6813F0070F02D184
:10138C004FF0FF30F4E7134B079302238DF8043032
:10139C0000238DF805308DF806308DF80730019A52
:1013AC000692194663F3000163F3410163F3820172
:1013BC0063F3C501012262F38811082262F3532101
:1013CC0063F31F5106AA024803F0A2FAD8E700BF44
:1013DC00CC0200204058010090B5A3B000AFDBB2A6
:1013EC00012B68D0022B69D01BB100208C37BD4675
:1013FC0090BD802107F10800FFF7A6FF314B1B6859
:10140C0003F00703022BF0D96C4600233B71022337
:10141C007B7188B0EC461CF1100214D00E2022B166
:10142C00042802DD284BCCF8143000233B70022337
:10143C007B70AAB1082802DD244BCCF818300CF1D3
:10144C001C0300210AE06FF00040E8E701F1880E70
:10145C00BE441EF888EC03F801EB01310129F5D9E3
:10146C000D2825DD0E234AB1032139710021797134
:10147C00B9710121F9717868CCF8100000216FF373
:10148C0000016FF341016FF382016FF3C50103207B
:10149C0060F38811C3F30A0363F35321802363F3CE
:1014AC001F5107F10803074803F032FAA5469CE7E1
:1014BC006FF01B03D7E7FFF73BFF96E7FFF750FFF3
:1014CC0093E700BFC402002064580100A865010026
:1014DC002DE9F041044605784279794B33F81280B6
:1014EC004678013EF6B2042D00F0C680072D00F0C0
:1014FC00C1800027E379002B40F0C080714B1A6843
:10150C00136943F4800313614FEAD8086D4B1968D3
:10151C00237A8B720A6922F440320A61237A1B0403
:10152C0003F440331A430A61002104200DF08EFAB3
:10153C00424642F604012E200DF069FA30460DF0B9
:10154C00BCFA614B13F80580604B53F82820072137
:10155C002B200DF07BFA5E4B13F808200B212B206F
:10156C000DF047FAFFB25B4BDA5D0B2128200DF032
:10157C0040FA594B53F828200C2128200DF066FA1C
:10158C00E279A37903EB4203544A32F81320022187
:10159C0027200DF03CFA524B33F81620042127205B
:1015AC000DF035FAE379002B6FD0A378042B72D0B1
:1015BC002022062127200DF02AFA28222621272076
:1015CC000DF017FAE37803EB8603464A52F8232012
:1015DC00082127200DF03AFA638913B941F241032F
:1015EC0063816289202127200DF011FA3E4F3A6861
:1015FC000C2123200DF02AFA07EB4607BA880421A8
:10160C0023200DF004FAA279002A4FD1114605F0DF
:10161C000F032D01EDB22B436078800400F44020C1
:10162C000343120502F4401213434A0402F400323D
:10163C0013432279920502F0F8621343627943EA6C
:10164C00C26200211F200DF001FAA37862781343C7
:10165C00E27952031B49096842EA0342CA6000213D
:10166C0008200DF0F3F9422200210D200DF0C1F9F4
:10167C00BDE8F08101273DE701273BE7114B1A68D4
:10168C00136923F48003136140E7642206212720A9
:10169C000DF0BDF996E71022062127200DF0B7F9C1
:1016AC001022262127200DF0A4F98BE7E3790F4AAD
:1016BC00D25C002121200DF09CF901210322A6E728
:1016CC006C59010018000020185A0100E85901005B
:1016DC00E0590100DC590100005A0100C459010015
:1016EC00C0590100A0590100D4590100D059010082
:1016FC0010B4044C2468A062E1622263636310BCE2
:10170C00704700BF1800002038B510F0010F2AD028
:10171C000446002126200DF02EF920F4705242F4DC
:10172C00A052002126200DF091F9002136200DF059
:10173C0022F940F40402002136200DF087F914F050
:10174C0002040ED14FF488752A46282136200DF05C
:10175C007DF994B105F48872282136200DF076F9C4
:10176C000BE0064DF0E7002126200DF004F920F4E3
:10177C007052002126200DF069F938BD10010F00C0
:10178C0038B500210E200DF0F6F805460DF08AFA5A
:10179C000446002211460E200DF058F9402200217B
:1017AC000D200DF026F90A4A00210F200DF04EF9FC
:1017BC000DF030FA2A4600210E200DF047F9204694
:1017CC000DF072FA034B1B6800225A7538BD00BF2E
:1017DC00F8FF27241800002038B5534B1D68002152
:1017EC000F200DF0C8F80446E86110F4804F09D1C1
:1017FC0014F0800F55D114F4081F6BD14B4B1C42C5
:10180C007DD138BD4FF4DE4200210F200DF01EF9C2
:10181C00454D2B68002183F8241010200DF0C9F8D9
:10182C00C0F309022B68997A09B900F07F021A8477
:10183C0010F4004F20D122330222002111200DF090
:10184C0079F814F0080F06D0374B1B6893F8223048
:10185C0013F0200F17D0344B1868C36A0BB11C302F
:10186C009847314B1B681B7D002BC1D001220321F3
:10187C000D200DF0BEF8BBE793F8242042F00102D6
:10188C0083F82420D7E7082200210F200DF0DEF882
:10189C00254B1B68DA6922F00802DA6100225A75BE
:1018AC00D9E7F82200210F200DF0D0F814F0080F22
:1018BC0003D01D4B1B685B7D3BB91B4B1868836ABF
:1018CC00002B98D01C30984795E7FFF759FF0DF087
:1018DC00D3F9F2E74FF4003200210F200DF0B6F8E7
:1018EC00114D2B6800225A75FFF74AFF0DF0C4F911
:1018FC002868036B002B81D01C3098477EE71A4672
:10190C0000210F200DF0A2F8074C236800225A7515
:10191C00FFF736FF0DF0B0F92068436B002B3FF456
:10192C0070AF1C3098476CE718000020009005241D
:10193C0008B50DF065F9002211462C200DF067F862
:10194C00002206212C200DF054F80DF0AAF80022EC
:10195C00032136200DF04DF801200DF0BCF9F022DA
:10196C00032136200DF045F8024B1B6800225A75F6
:10197C0008BD00BF1800002070B504466B4B1B68F7
:10198C0000221A755A75DA829A62DA621A635A63FD
:10199C000DF009F8664B984240F0C48014F0020533
:1019AC001CD015B114F0F80F02D100200DF09EF8E8
:1019BC000422002124200DF01CF8F5B904200DF0B0
:1019CC005BF810F0FF0F0CD12DB304F00A030A2BB7
:1019DC0021D0564B1A680023D37225E0FFF7A8FFDD
:1019EC00DFE7022212212D200DF003F84F4B1A686D
:1019FC00D38A43F48053D382E6E7302128200CF0BD
:101A0C00BAFFB0F1883FDFD0484B1A68D38A43F451
:101A1C008053D382D8E71E200DF02EF883B2434AB0
:101A2C001268C0F30720D07235B913F01F0F00D124
:101A3C001023D8B20DF02CF914F0100F40D13B4B01
:101A4C001B6800221A6014F0200F40D1374B1B6822
:101A5C0000225A6014F0400F40D1344B1B68002216
:101A6C001A7214F0800F40D1304B1B6800225A724E
:101A7C00002D4DD114F0010F3ED00DF0B0F82B4BD2
:101A8C001A68D38A43F40063D38201200DF02EF838
:101A9C0000220A212C200CF0ACFF244C25680021DC
:101AAC0004200CF068FF28612468638A03F00303A8
:101ABC00A372002108200CF05EFFE060002070BDD6
:101ACC001A4B1E6806200CF0D7FF3060BBE7174B93
:101ADC001E6807200CF0D0FF7060BBE708200CF0EC
:101AEC00CBFF124B1B681872BBE709200CF0C4FF2C
:101AFC000E4B1B685872BBE7052136200CF059FFC2
:101B0C0020F4007292B2052136200CF080FFBCE765
:101B1C0014F0040FB9D1054B1A68D38A43F400634F
:101B2C00D382B2E74FF0FF30C9E700BF18000020A6
:101B3C003001CADE30B585B01C4A01AB07CA83E858
:101B4C0007001B4C84E80700002307E003EB43026B
:101B5C009100184A0A44164991600133032BF5D9B8
:101B6C00144B154A1360154A154911604FF48072D5
:101B7C009A80144A1A60144DFF220021284611F055
:101B8C002DF9124CFF220021204611F027F9104BA1
:101B9C001D609C600F490B600F4A083313600123D2
:101BAC004B605360002005B030BD00BFC054010035
:101BBC00D00E0020FC1000202C1100203011002031
:101BCC005851010080841E00FC0F0020FC0E0020E8
:101BDC00EC0E0020E40E0020DC0E002008B5094BB2
:101BEC00094A13604FF480729A80084A1A60FF22E7
:101BFC000021074811F0F2F8FF220021054811F0EE
:101C0C00EDF808BDFC1000202C11002080841E0073
:101C1C00FC0F0020FC0E002008B50A4B0A4A13608A
:101C2C004FF480729A800C3B084ADA60FF22002144
:101C3C00074811F0D3F8FF220021064811F0CEF826
:101C4C0008BD00BF081100202C11002000127A00E2
:101C5C00FC0F0020FC0E00202DE9F84304468846BA
:101C6C0015461F460DF01EF80646DFF8409022463A
:101C7C004146484611F083F82A46394609EB0400E0
:101C8C0011F07DF82C440A4B5C60DC60094B186841
:101C9C00094B196883681C68084B094AA0473046F1
:101CAC000DF002F80020BDE8F88300BFFC0F002007
:101CBC00EC0E0020301100202C110020DC0E002036
:101CCC00E40E00202DE9F0470446894615461F46D0
:101CDC000CF0E8FF064604EB0508DFF84CA0424682
:101CEC000021504611F07AF822464946504611F030
:101CFC0046F80E4BC3F80480C3F80C800C4B1868E4
:101D0C000C4B19688368D3F800800B4B0B4AC04707
:101D1C002A460B492144384611F031F830460CF074
:101D2C00C3FF0020BDE8F087FC0F0020EC0E002064
:101D3C00301100202C110020DC0E0020E40E0020BD
:101D4C00FC0E002080B582B000AF7860144B154AB1
:101D5C001A60134B1B68002B03D113480DF0CBF802
:101D6C001AE00F4B1B68114A132118460DF010F89E
:101D7C004FF4002279680E480CF0F9FF084B1B68F1
:101D8C000B4918460CF0F6FF054B1B684FF0A86288
:101D9C00132118460CF0F8FF0837BD4680BD00BF74
:101DAC004011002004510100CC540100110001002D
:101DBC00341100202DE9F04182B000AF0646884670
:101DCC00154600F03BF90446C3681BB943691A7801
:101DDC00002A56D10023E360616858F82130636112
:101DEC00B14229DA5A1C62611A782D2A24D19A1C24
:101DFC0062615A78A2602D2A26D0002A31D0A168BF
:101E0C00284610F059FFA3683A2B3FD000283DD04C
:101E1C0042783A2A00F08B800023236163691B7897
:101E2C0013B9636801336360204600F0EDF8A068D5
:101E3C000837BD46BDE8F0816F4B6361204600F06A
:101E4C00E3F84FF0FF30F3E79B78002BD5D101314D
:101E5C006160694B6361204600F0D6F84FF0FF30AB
:101E6C00E6E7654B63612D21284610F025FF10B184
:101E7C002D23A360C3E7204600F0C6F84FF0FF30D7
:101E8C00D6E75A1C42611B788360B8E76269127806
:101E9C0012B96268013262602268002A3CD02A784A
:101EAC003A2A39D0554A126812F0070F34D06D46D1
:101EBC0088B0694611F1100233D00C204AB10646A5
:101ECC00042803DDDFF838C1C1F814C0082E00DD8A
:101EDC008B610B2828DD0C233AB1032038710020CC
:101EEC007871B871F8717868086100216FF300019E
:101EFC006FF341016FF382016FF3C501012060F3B1
:101F0C008811C3F30A0363F353216FF31F510023AA
:101F1C003A4802F0FDFCAD46204600F075F83F2033
:101F2C0086E76FF00040C9E76FF01B03D4E76269E6
:101F3C00117831B12261304B6361636801336360A6
:101F4C0072E7626801326260964203DD58F8223013
:101F5C002361F0E7284A62612A783A2A40D0226845
:101F6C00CAB3264A126812F0070F34D06D4688B0F7
:101F7C00694611F1100238D00C204AB106460428EB
:101F8C0003DDDFF880C0C1F814C0082E00DD8B61C2
:101F9C000B282DDD0C233AB1032038710020787109
:101FAC00B871F8717868086100216FF300016FF364
:101FBC0041016FF382016FF3C501012060F38811B9
:101FCC00C3F30A0363F353216FF31F5100230B4830
:101FDC0002F09EFCAD46204600F016F83F2027E7A5
:101FEC00204600F011F83A2022E76FF00040C4E7D9
:101FFC006FF01B03CFE700BFA8650100E4020020CF
:10200C002C5A0100445A01000268074B1A604268BE
:10201C00064B1A608268064B1A60C268054B1A6040
:10202C000269054B1A60704738000020340000200C
:10203C004C1100204811002044110020004870472A
:10204C001C0000202DE9F04F91B00592029313462D
:10205C0002F004020092C3F3C20210F003030193D6
:10206C0040F0238207468A460132041D002847D0DF
:10207C0027B1E31B0433534500F21A82029B5D1E09
:10208C00019B04930693039300264FF0FF3B4FF004
:10209C000408C1460FB1029B2360531E0793002A0C
:1020AC0040F35F81059B13F0020226D00120E11B57
:1020BC008B081AB1B1F5007F80F0008203990F29CB
:1020CC0000F2FF81002F00F06481DBB201F14002CD
:1020DC006A4402F8103C02F820BC002800F055813C
:1020EC0063F07F0301F140026A4402F8103C049B48
:1020FC0001330493039B01330393043400223DE02A
:10210C0001F0070A5444CAF1080AB1E7002634E08A
:10211C00002632E0002630E04FF00808C1462CE0E3
:10212C0025292AD10BF1010B01264FF00408C146D9
:10213C0023E04729ECD82A2912D32A39C9B2012025
:10214C0000FA01F14FF6DA70014216D111F0625F1C
:10215C0040F0C48011F0010F40F08E8000260CE09E
:10216C00252903D10BF1FF3B002606E001D90026FF
:10217C0003E0202901D02329CCD11D466B1C6978A2
:10218C00002900F01D81002ECAD07A29BED84C2916
:10219C00CFD34C392E2961D801A050F821F000BFC3
:1021AC0087210000692200006922000069220000DA
:1021BC0069220000692200006922000069220000E7
:1021CC0069220000692200006922000069220000D7
:1021DC007D220000692200006922000069220000B3
:1021EC0069220000692200006922000069220000B7
:1021FC0069220000E9220000692200007D22000013
:10220C007D220000E9220000E9220000E922000002
:10221C00872100007D22000025210000692200009A
:10222C008721000069220000472300007D22000066
:10223C00472300006922000069220000512300009E
:10224C00752200007D220000692200006922000036
:10225C007D220000692200006D22000000268CE720
:10226C004FF00408C14688E74FF00408C14684E7E4
:10227C0029786C2924D000264444013CC8F1000183
:10228C000C40204627B1E11B4944514500F2138113
:10229C00002A5DD1B9F1040F00F08A80B9F1080F62
:1022AC0040F012811A99073121F0070101F1080061
:1022BC001A90D1E900010FB1C4E9000108345CE7C0
:1022CC0013F8021C6C2904D000264FF00408C146F8
:1022DC00D2E700264FF00808C146CDE729784C29F3
:1022EC001BD01A99073121F0070101F108001A904F
:1022FC00D1E90001073424F0070447B1E61B083686
:10230C00564514D82D784C2D14D0C4E9000108344E
:10231C0000264FF00808C1462FE71A99073121F023
:10232C00070101F108001A90D1E90001E2E76FF012
:10233C001B00B7E0C4E90001E9E700264FF00408F0
:10234C00C14699E7324600264FF00408C14693E790
:10235C0004461A9A111D1A9112680292079A1D4688
:10236C0098E65F4B029A9A4204D35E4B9A420AD388
:10237C00002300E00023002B7FF494AE059B03F0B8
:10238C000202002093E60123F5E7069B0133069336
:10239C00B0E610B10AF1010AACE6009B13B10AF1E8
:1023AC00020AA7E6029810F094FC831C9A44A1E65A
:1023BC001A99081D1A90096807B121600434DCE6EB
:1023CC00E31BB3F5806F80F0828097B100223A60F6
:1023DC009B083B70009B83B1069BFB70049BBB70FE
:1023EC001BBB019DDDF80C90DDF810B0DDF808800A
:1023FC003BE05344A3F1080054E0069B7B70EDE7EF
:10240C0001339842EDD903F140026A4412F8101CD2
:10241C0012F9102C002AF3DA01F07F01E21B0132D1
:10242C00524557D804F8011BEAE7019B0398E8E7EB
:10243C00009B3BB305F140036B4413F8203C04F8BC
:10244C00013B019EE31B33440133534545D805F151
:10245C0040036B4413F8103C04F8013B32464146F0
:10246C00204610F08CFC34440135A94519D9BBF138
:10247C00000FDDD005F140036B4413F9103C002B29
:10248C00D6DAF1E705F140036B4413F8103C57F82A
:10249C002380002247F82320404610F01AFC461CEB
:1024AC00D0E7E01B11B0BDE8F08F6FF00D00F9E73D
:1024BC006FF01B00F6E76FF01B00F3E76FF01500F1
:1024CC00F0E76FF01500EDE76FF01500EAE76FF03D
:1024DC001500E7E76FF01B00E4E76FF01B00E1E786
:1024EC0078500100E08D01002DE9F04F97B000AF5E
:1024FC008346BA613B61D7F88030C3F3C0033B62BB
:10250C00F96051B19BF80260B14656B1D7F88030F2
:10251C0013F0010F11D1002304E00CF04BFCF86018
:10252C00F0E700239BF803207A6242B1D7F88020B1
:10253C0012F0020F22D1002202E00123F2E7002266
:10254C0002B9EBB19BF80050AA00BA60DBF804208A
:10255C007A610BEB8505BA69F2B1002B40F00F8163
:10256C00B9F1000F00F01A81D7F8803013F0040F86
:10257C0040F018810020F861064604E10122DFE7F3
:10258C00BB691BB13A69F96858469847FC68204604
:10259C005C37BD46BDE8F08FFC6823BBB9F1000F7A
:1025AC0026D0D7F8803013F0040822D04D444FF0D9
:1025BC0000081EE00444013501364E4519D22A7834
:1025CC0000235BF822201946B8690CF008FCBAF11C
:1025DC00000FEFD0D7F888309845EBD22AF81800C6
:1025EC0008F10108E6E70026B046D7F884A0E4E736
:1025FC00C846D7F8803003F00503FB604FF0000AA3
:10260C00C7F81080A046C7F81CB0D7F804B0A0E0FB
:10261C0000253B6A7BB9002D7DD0D7F8803013F0B4
:10262C00010F7DD1FB68002B73D10223A8EB0308AB
:10263C008CE00125EDE7494678690CF017FC002881
:10264C00E9D0BB4B1B6813F0060F40D06C4600233F
:10265C0087F82C30022387F82D308AB0694611F1A7
:10266C00100237D012251AB1042D01DDB14B4B618C
:10267C00002387F82830022387F829306ABB112DF4
:10268C0044DD122362B1042087F82C00002087F867
:10269C002D0087F82E00012087F82F00F86A0861BA
:1026AC006FF3000B6FF3410B6FF3820B6FF3C50BE2
:1026BC00022161F3881BC3F30A0363F3532B6FF3FB
:1026CC001F5B002359469A4802F022F9A546A8F14F
:1026DC0002083BE06FF00045C5E72B46082D01DDF5
:1026EC00786988610C2B01DDC1F81C9001F1200385
:1026FC0000200128C3D800F1300C07F1280EF44457
:10270C001CF830CC03F801CB0130F2E76FF01B035F
:10271C00B8E701238AE7D7F8803013F0020F15D001
:10272C00002322461946B8690CF059FBD7F88430BF
:10273C0053B13B69D7F88820934205D2D7F884204F
:10274C0022F8130001333B61013880440AF1010A7D
:10275C0035467B6A9A4510D22E4616F8029B6B784A
:10276C00FA6952F82340744B9C42FFF451AF734BFF
:10277C009C42FFF45EAF00254BE7444607E707F1A8
:10278C0044000023FB6118B14A46294610F0F7FAC1
:10279C004D444FF00008C7F804901EE00020F8618B
:1027AC000646F0E7FE6107F134000026EBE7002552
:1027BC003B6A33BB002D3BD0D7F8803013F0010FB0
:1027CC0026D0731C06F1300207F12801561806F8C2
:1027DC00149CDEB208F1010825467B6A98454AD262
:1027EC002C4614F802AB95F801905BF82930524A4C
:1027FC009342DCD3514A934201D30025D8E70125FB
:10280C00D6E7514678690CF031FB0028D2D0E1E7CD
:10281C00D7F8803013F0040FDCD0FA69531C303237
:10282C0007F128010A4402F8249CDBB2FB61D1E7D2
:10283C00D7F8803013F0020F09D0731C06F1300268
:10284C0007F12801561806F8149CDEB2C2E7F869A5
:10285C00431C00F1300107F128028A1802F824AC5D
:10286C0002460232D2B2FA6107F1580252FA83F3ED
:10287C0003F8249CAEE7D7F804909BF8003087F857
:10288C0054309BF80130334487F85530D7F88030FA
:10289C0013F0020F0ED1FB69C3F3470387F85730CF
:1028AC00D7F8803013F0010F06D113F0040F47D185
:1028BC00002302E00023F1E7002387F85630DBF811
:1028CC0000003863786DCBF80000D7F810804246D2
:1028DC00B9685846D7F818A0D047041EFFF657AE73
:1028EC00386BCBF80000C7F810804246F96907F145
:1028FC003400D047002856DB04EB0008B968494483
:10290C007B6A01EB4301D7F810904A46FB68591AD1
:10291C002846D047041EFFF63AAE08EB04054FF0EC
:10292C0000087E62C7F820B05646D7F884B01EE087
:10293C00C0020020705A010078500100E08D0100A7
:10294C00FB69BAE74FF0000A4A46012107F12C0057
:10295C00B047002829DB05445346224649463046F9
:10296C000CF03DFA002822DB054408F101087B6AD3
:10297C00984511D208F1300307F12802134413F8DB
:10298C00143C87F82C303A6A52F82340BBF1000F04
:10299C00D8D03BF818A0D7E73A6900210846BB69A4
:1029AC0098472C46F3E50446F1E50446EFE504466A
:1029BC00EDE500BF014B1860704700BF3C000020E4
:1029CC0010B586B004460390049100210591009146
:1029DC0003A9064800F056FB059B049A934201DAC2
:1029EC000022E254059806B010BD00BFCBEE0000EB
:1029FC002DE9F04383B0044608461546238B13F0AB
:102A0C00080F05D103F0070600230093019355E04E
:102A1C00012909D043F02003238385F31188BFF3E8
:102A2C006F8F03B0BDE8F08343F010032383F4E70A
:102A3C0020460CF0B0FA43E0D4F814904A466946AC
:102A4C0020460CF0C1FA4FF00008238B03F0070767
:102A5C00B74269D0A268002A66D0012243F008036D
:102A6C00238385F31188BFF36F8F002A64D1009BF9
:102A7C002BB14B463A46694620460CF01EFBB8F18A
:102A8C00000F02D034492046C0474FF02003EFF32B
:102A9C00118583F31288BFF36F8F238B23F0080308
:102AAC002383238B13F0100F4CD023F010032383BC
:102ABC000120268B06F007060028AED00228B7D0DE
:102ACC000028AAD0013804282AD801A353F820F0F2
:102ADC00452A00002D2B0000F12A0000052B0000D8
:102AEC00192B00002369D3F80080062120460CF036
:102AFC0028FA4FF00009A8E72369D3F804800421D1
:102B0C0020460CF01EFA4FF000099EE72369D3F81B
:102B1C000880052120460CF014FA4FF0000994E7C8
:102B2C004FF00008C14690E7009A0AB1002295E7E1
:102B3C00B8F1000F92D1B4E74A46394620460CF062
:102B4C0008FA94E713F0200F04D023F0200323831A
:102B5C000220AEE70020ACE7F5F00000C0434FF0D8
:102B6C00000C944519D230B511F80C3083EA000EE4
:102B7C000EF00F0E0A4C54F82E5085EA101080EA15
:102B8C00131303F00F0354F8233083EA10100CF1E5
:102B9C00010C9445E8D3C04330BDC043704700BF1F
:102BAC00285B01004FF0000C944515D210B511F8BC
:102BBC000C3058400309094CE35C83EA00135FFABC
:102BCC0083FEC3F30313E05C80EA0E10C0B20CF179
:102BDC00010C9445EBD310BD704700BF685B01003E
:102BEC0084460846012226E09CF8003043F004039A
:102BFC008CF80030F2B101301CE09CF8003043F04E
:102C0C0008038CF80030F5E79CF8003043F0100313
:102C1C008CF80030EEE79CF8003043F020038CF881
:102C2C000030E7E79CF8003043F040038CF80030AC
:102C3C00E0E7002242B30378203B102BF9D801A126
:102C4C0051F823F0152C00003F2C00003F2C000005
:102C5C00232C00003F2C00003F2C00003F2C0000D8
:102C6C003F2C00003F2C00003F2C00003F2C0000AC
:102C7C00072C00003F2C0000F52B00003F2C00001F
:102C8C003F2C0000312C00009CF8003003F0440372
:102C9C00442B00D070479CF800306FF386138CF8EF
:102CAC000030F7E72DE9F04F87B017461E46DDF8E8
:102CBC00449002460B1E07DB397811F0080F14D034
:102CCC002B211098017002E02D211098017097F8BB
:102CDC000380C3F30A54C3F31303049205935CB942
:102CEC0052EA030128D1002107E011F0100FEED0B9
:102CFC00202110980170EAE7002140F2FF70844215
:102D0C001CD0B8F1460F59D0DB0243EA5253D20221
:102D1C000492059323F000430593224343EAE473A2
:102D2C001A4307D000294DD1A4F2FE34059B43F081
:102D3C0000430593002566E00121DEE7134322D111
:102D4C00A8F14108B8F1190F11D8492389F80030BE
:102D5C004E2389F8013009F10302462389F8023029
:102D6C003B786FF386133B70129B1A6074E16923F6
:102D7C0089F800306E2389F8013009F103026623CB
:102D8C0089F80230ECE7A8F14108B8F1190F0AD81C
:102D9C004E2389F80030412289F8012009F1030201
:102DAC0089F80230DCE76E2389F80030612289F85B
:102DBC00012009F1030289F80230D1E74FF06608CF
:102DCC00A2E7013C049B059ADB185241049305923F
:102DDC00002AF6DAA8E7059B049A520842EAC37265
:102DEC005B080492059321460134B3F1333FF2D2D0
:102DFC009C0044EA92749000801843EB0403049006
:102E0C0005938C1C013D14F1020FE4DB14E0049BD0
:102E1C000233059A42F100020493059204A80CF0C7
:102E2C00E8FB013C01350499059B49185B41049171
:102E3C000593013C002BF6DA002CE8DCC4F104010C
:102E4C00059A1C34A1F12000049BCB4002FA04F437
:102E5C00234322FA00F00343CA4004930592B8F1CD
:102E6C00670F14D0B8F1470F11D04FF0000BB8F129
:102E7C00660F2AD006F1010A102303939A4500DD50
:102E8C009A4600224FF00063CDE9002329E015F1AA
:102E9C00030F01DBB54211DDA8F102085FFA88F8D7
:102EAC00002E00DD013E3B78C3F3401B13F0200FD6
:102EBC0008D1002EDBDD4FF0010BD8E7761B4FF06D
:102ECC006608F0E74FF0000BD1E715EB060AD3D5F7
:102EDC00102303934FF0000AD3E768460CF0A5FBD0
:102EEC00A2460AF1FF34BAF1000FF6D1049B009A06
:102EFC009B18059A019942EB0102049305924FF03D
:102F0C00FF3199426FF07043934106D3B8F1660FCD
:102F1C0038D1002D31DD4C460BE004A80CF085FBBC
:102F2C000135F3E703A904A80CF08BFB04F8010BA3
:102F3C00013D002D02DD039B002BF3DC7D6055462B
:102F4C003B7813F0200F01D1002E02DD2E2304F864
:102F5C00013B002D33DA002E31DD6B427B609E424B
:102F6C0000DA7E607B68F61A002BD4BF00230123A5
:102F7C00BA7863F34512BA7021E04C46302304F85A
:102F8C00013BDDE703A904A80CF05BFB4C4604F8FD
:102F9C00010B302800D0013D3B7813F0200F01D1FC
:102FAC00002E0CDD09F102042E2389F8013006E015
:102FBC0003A904A80CF045FB04F8010B013E002EFC
:102FCC0002DD039B002BF3DCBE60BBF1000F09D0CC
:102FDC000023BB6023461C4613F8012D302AFAD07F
:102FEC002E2A3DD0B8F1650F02D0B8F1450F26D18D
:102FFC0084F80080002D35DBA21C2B236370632D1D
:10300C000CDD1E4981FB0531EB17C3EB611303F19A
:10301C00300102F8011B642101FB1355184981FB97
:10302C000531EB17C3EBA10303F13001144604F88F
:10303C00021B03EB8303A5EB4303303353707B6814
:10304C00002B14DD4FF0010ABB786AF38613BB70BA
:10305C00129B1C6000232370484607B0BDE8F08F1C
:10306C001C46BFE76D42A21C2D236370C7E7BB68EB
:10307C00002BE9DD4FF0010AE6E700BF1F85EB519D
:10308C00676666662DE9F04F97B006460D4690468A
:10309C000593002498F80000002800F045832528AB
:1030AC0008D008F101082946B0470028C0F23D833A
:1030BC000134EFE70023089309930A930B930C93C5
:1030CC000D930DF1550207928DF81B3041460AA85D
:1030DC000CF06DFA81469DF8293013F0010F00F0C9
:1030EC009E80059B1A1D05921F68002FC0F28F80D1
:1030FC009DF8293013F0040F00F0A380059B1A1DD6
:10310C000592D3F800A0BAF1000FC0F29180002311
:10311C000B930C939DF82A3003F00703042B00F05B
:10312C0099809DF82A3003F007039DF82910C1F30C
:10313C00C301012B00F09E80022B00F0E380042BD6
:10314C0000F03481032B00F04B819DF8282012F005
:10315C00030F40F04B819DF82B30253B532B00F295
:10316C00FC81DFE813F04F01FA01FA01FA01FA01D0
:10317C00FA01FA01FA01FA01FA01FA01FA01FA016B
:10318C00FA01FA01FA01FA01FA01FA01FA01FA015B
:10319C00FA01FA01FA01FA01FA01FA01FA01FC0149
:1031AC00FA01FA01FA01FC01FC01FC01FA01FA0135
:1031BC00FA01FA01FA01FA01FA01FA01FA01FA012B
:1031CC00FA01FA01FA01FA01FA01FA01B101FA0164
:1031DC00FA01FA01FA01FA01FA01FA01FA01FC0109
:1031EC00FA019C01A501FC01FC01FC01FA01A501FD
:1031FC00FA01FA01FA01FA01F501B101DC01FA0157
:10320C00FA015701FA01B101FA01FA01B1019DF875
:10321C00283043F004038DF828307F4268E79DF98D
:10322C002830002B02DB4FF0FF3761E70B9F5FE785
:10323C009DF829306FF341038DF829304FF0FF3A98
:10324C0065E713F0020F02D0DDF830A05FE74FF016
:10325C00FF3A5CE79DF8293013F0020F7FF461AF61
:10326C009DF92930002B02DB4FF0060A59E74FF08D
:10327C000D0A56E7CB1E042B04D8DFE803F00B1D18
:10328C0029353500059B1A1D05921B68DA17089322
:10329C00099206E0059B1A1D05921B68DA17089324
:1032AC000992012928D002297FF44FAFBDF92030B3
:1032BC00DA170893099248E7059B073323F00703B5
:1032CC0003F108020592D3E90023CDE90823E8E7CE
:1032DC00059B073323F0070303F108020592D3E99A
:1032EC000023CDE90823DCE7059B1A1D05921B681A
:1032FC00DA1708930992D4E79DF92030DA1708936E
:10330C00099222E7CB1E042B04D8DFE803F00B1F35
:10331C0035414100059B1A1D05921B68089300233B
:10332C0009931EE09DF82B30632B07D0059B1A1DCB
:10333C0005921B6808930023099312E0059B1A1D44
:10334C0005921B680893002309930AE0059B073339
:10335C0023F0070303F108020592D3E90023CDE91A
:10336C00082301291CD002297FF4EFAEBDF82030D0
:10337C00089300230993E8E6059B073323F0070322
:10338C0003F108020592D3E90023CDE90823E8E70D
:10339C00059B1A1D05921B68089300230993E0E70F
:1033AC009DF82030089300230993CEE608290BD012
:1033BC00059B073323F0070303F108020592D3E9B9
:1033CC000023CDE90823C0E6059B073323F0070350
:1033DC0003F108020592D3E90023CDE90823B4E6F2
:1033EC00059B1A1D05921B680893AEE64B46424698
:1033FC00294630460CF0C7F90028C0F296810444E7
:10340C00C84647E629462520B0470028C0F28D81E2
:10341C000134A2E0DDF82080BAF1000F3BDB51460D
:10342C0040460FF05FFC40440790B8F1000F00F0ED
:10343C009480079BA3EB08039DF81B0000B101339C
:10344C009DF82A1011F0100F00F0988002330B9A9F
:10345C00134411F0400F01D00C9A1344002F40F389
:10346C00A580FF1A9DF8283013F0040F40F09E80C1
:10347C0013F0400F00F09380002800F09380294651
:10348C00B0470028C0F25181013400238DF81B3065
:10349C004FF0300A88E040460FF01BFCC3E7089B56
:1034AC008DF83C300DF13D0307930DF13C08C0E75E
:1034BC0012F0080F23D02B238DF81B30089A099B90
:1034CC00002B23DB08920993079B00930FAB0AAAEE
:1034DC00DDE908010CF0E8F88046BAF1000FA4DB36
:1034EC00079BA3EB08039DF828206FF386128DF839
:1034FC0028209A4599D9AAEB03030B9395E712F070
:10350C00100FDBD020238DF81B30D7E72D218DF841
:10351C001B10524263EB430308920993D4E70898BB
:10352C0020B9834B0793A3F1050882E7079B00930F
:10353C000FAB0AAA00210CF0B7F880469DF82A3090
:10354C0043F010038DF82A3078238DF82B30C4E724
:10355C00224608990AA80CF0F7F8C8469AE507AB7A
:10356C0002930FAB01930DF11B03009353460AAA70
:10357C00DDE90801FFF796FB804656E711F0080FCE
:10358C003FF465AF013362E701343B465F1E002B0D
:10359C000CDD29465046B0470028F5DAC5E04FF05F
:1035AC00200A01E04FF0300A3B46EFE79DF81B0084
:1035BC0028B12946B0470028C0F2B78001349DF8E5
:1035CC002A3013F0400F72D09DF92930002B0EDBFE
:1035DC0098F80000A0F13003092B15D808F1010868
:1035EC002946B0470028C0F2A0800134F0E798F8D3
:1035FC000000702844D008F101082946B047002883
:10360C00C0F293800134F2E7DDF82CA09DF82A304B
:10361C0013F0200F11D098F800002E281CD098F829
:10362C000000A0F13003092B2AD808F10108294623
:10363C00B047002879DB0134F1E70AF1FF3BBAF11E
:10364C00000F07DD29463020B04700286DDB013420
:10365C00DA46F2E7DA46DEE708F101082946B04718
:10366C00002862DB01340AF1FF3BBAF1000FD6DD12
:10367C0029463020B047002857DB0134DA46F2E700
:10368C000C9B03F1FF3A002B07DD29463020B04795
:10369C0000284ADB01345346F3E7079B4246294690
:1036AC0030460CF070F800283FDB044432E09DF803
:1036BC002A30C3F30012C3F3C0031A4305D02946C2
:1036CC003020B047002830DB01349DF82A3013F04D
:1036DC00100F06D029469DF82B00B047002824DB9C
:1036EC0001340B9B03F1FF3A002B07DD29463020F8
:1036FC00B047002819DB01345346F3E7079B4246D9
:10370C00294630460CF03FF800280EDB044401E05B
:10371C000134013F002F05DD29462020B047002849
:10372C00F6DA02E0C846B5E4204617B0BDE8F08FE3
:10373C007D5B010008B504464FF02002EFF31183C6
:10374C0082F31288BFF36F8F08F010FB20460FF046
:10375C003CFD03480BF0CFFB04F012FAFCE700BF72
:10376C00805B010008F06EBB2DE9F04393B004467A
:10377C0000230393C36A1E7900F114094FF0FF3242
:10378C004FF0FF33484609F089FFE36A1B68DAB251
:10379C00012A06D9D71D53421F404FF00008454659
:1037AC0003E00827F9E70135ADB2E389AB421CD938
:1037BC00A189C91B89B201EB05410391082332464B
:1037CC0020460CF01DFC0028EDD008F101081FFA72
:1037DC0088F803A920460CF0DAFB0823324603993B
:1037EC0020460CF00DFC0028DDD1E389434500F0A8
:1037FC004381AB420DD003A920460CF06FFC05466B
:10380C00002840F01E81039B63601B0C1B04A3600B
:10381C0010E0082332460399C91B20460CF0F0FB3C
:10382C000028E8D103A920460CF0B1FBE3E763685C
:10383C00DB1B63606168A36899422ED304AA2046FF
:10384C000CF094FB0546002840F0F480314604A8A7
:10385C000CF091FB08B304A920460CF023FC0028C3
:10386C00E5D0BDF80E301904A160BDF81230BDF8DA
:10387C0014000344E26A1268D5B2012D03D92B441B
:10388C00013B6A4213400B44A36062689342CED161
:10389C000028CCD06FF01C05D3E0E3881B04039305
:1038AC0003A920460CF073FBA389324603992046EA
:1038BC000CF0A6FB051EC0F2C480002D00F0A78002
:1038CC0063683B44039302E0039B3B4403930399DB
:1038DC008AB2A389DB1B9A4219D201AA20460CF0AA
:1038EC0045FB0546002840F0A58001A920460CF0B8
:1038FC00D9FB0028E8D0BDF804204FF6FF739A429C
:10390C00E2D1BDF80830002BDED1012300E000230A
:10391C00EBB95B4B1B6803F00703022B4ED86168B5
:10392C0020460CF094FB0546002840F08A80E38882
:10393C001B046360A289A2EB4702134463601B0C57
:10394C001B04A36020460CF02FFD054672E04C4B87
:10395C001B6803F00703022B0CD8E3881B040393AA
:10396C0003A920460CF013FB039920460CF06FFBC7
:10397C0005465FE0434B119302238DF80030002382
:10398C008DF801308DF802308DF80330009A1092CA
:10399C00194663F3000163F3410163F3820163F39E
:1039AC00C501032262F38811082262F3532163F3E9
:1039BC001F5110AA324800F0ABFFCEE7324B0B93ED
:1039CC0002238DF8003000238DF801308DF8023081
:1039DC008DF80330009A0A92194663F3000163F3E1
:1039EC00410163F3820163F3C501032262F3881181
:1039FC00082262F3532163F31F510AAA204800F0F6
:103A0C0087FF8CE7A368E26A12681344A3606368BB
:103A1C00A1688B4208D95B1A324620460CF0F0FAAA
:103A2C00051E07DB002DEDD1616801EB4702A38970
:103A3C009A420DD02DB9A288A389A3EB47039A42D1
:103A4C0015D0484609F0AEFE284613B0BDE8F08309
:103A5C00A2680B0C1B049A42ECD020460CF0F7FA2F
:103A6C0005460028EDD1E3881B04A360E2E720465D
:103A7C000CF084FC0546E4E76FF02C05E1E700BF91
:103A8C00E0020020AC5B0100C45B01002DE9F041B9
:103A9C00A2B000AF0446143010F085FEA06A836813
:103AAC00DB689847E062002852D0A06A8368DB6824
:103ABC0098470368013B1F2B75D8A06A21683A1DF3
:103ACC000FF057FD002840F09780A389002B00F0E1
:103ADC00BC80BA68B3FBF2F102FB1133002B40F04F
:103AEC00B480E389012B40F2D9802046FFF73CFEDD
:103AFC000546002840F0CD8101232374A54B1B689B
:103B0C0003F00703022B40F21781B4F80EE0B4F86F
:103B1C000CC06E4688B06B4613F1100200F0E780C3
:103B2C0010217AB10846042903DDDFF86C82C3F852
:103B3C001480082801DDC3F818E00C2840F3DA8063
:103B4C00C3F81CC00F2940F31E814FF0100CD3E0BA
:103B5C00904B1B6813F0070F02D16FF0150598E11D
:103B6C008E4BC7F8843002233B7000237B70BB70F4
:103B7C00FB703A68C7F88020194663F3000163F3C1
:103B8C00410163F3820163F3C501012262F38811E1
:103B9C00082262F3532163F31F5107F180027D4821
:103BAC0000F0B6FED9E77B4B1B6813F0070F02D170
:103BBC006FF015056DE17A4BFB6602233B70002319
:103BCC007B70BB70FB703A68BA66194663F30001F0
:103BDC0063F3410163F3820163F3C501012262F3D4
:103BEC008811082262F3532163F31F5107F1680215
:103BFC00684800F08DFEDBE7664B1B6813F0070F7F
:103C0C0002D16FF0150544E1664B7B6502233B70D6
:103C1C0000237B70BB70FB703A683A65194663F3FE
:103C2C00000163F3410163F3820163F3C5010122D7
:103C3C0062F38811082262F3532163F31F5107F1D9
:103C4C005002544800F064FEDBE7524B1B6813F043
:103C5C00070F02D16FF015051BE1534BFB630223D9
:103C6C003B7000237B70BB70FB703A68BA631946DB
:103C7C0063F3000163F3410163F3820163F3C50154
:103C8C00012262F38811082262F3532163F31F515E
:103C9C0007F138023F4800F03BFEDBE73D4B1B6869
:103CAC0013F0070F02D16FF01505F2E03F4B7B626A
:103CBC0002233B7000237B70BB70FB703A683A6246
:103CCC00194663F3000163F3410163F3820163F36B
:103CDC00C501012262F38811082262F3532163F3B8
:103CEC001F5107F120022B4800F012FEDBE76FF0AA
:103CFC00004116E76FF01B0C3AB10421397000211A
:103D0C007970B970F9703868186100216FF300018F
:103D1C006FF341016FF382016FF3C501032363F36A
:103D2C008811CCF30A0363F353216FF31F51002363
:103D3C00184800F0EDFDB546164B1B6803F0070361
:103D4C00022B59D963684FEA134E99B26E4688B06C
:103D5C006B4613F1100219D010207AB18446042856
:103D6C0003DDDFF84C80C3F81480BCF1080F01DDD3
:103D7C00C3F818E0BCF10C0F1CDDD9610F2860DD15
:103D8C004FF0100C18E06FF01B0CB5E76FF0004013
:103D9C00E3E700BFE0020020945C0100005C01003E
:103DAC00245C0100445C01005C5C0100705C01005F
:103DBC00AC5C01006FF01B0C3AB10421397000218E
:103DCC007970B970F9703868186100216FF30001CF
:103DDC006FF341016FF382016FF3C501032363F3AA
:103DEC008811CCF30A0363F353216FF31F510023A3
:103DFC002C4800F08DFDB5462A4B1B6803F00703D9
:103E0C00022B46D9A1684FEA114C89B26C4688B096
:103E1C006B4613F1100217D010206AB10646042825
:103E2C0003DDDFF884E0C3F814E0082E01DDC3F8ED
:103E3C0018C00C2E0BDDD9610F282FDD4FF0100CA4
:103E4C0007E06FF01B0CB7E76FF00040E5E76FF091
:103E5C001B0C3AB10421397000217970B970F970DA
:103E6C003868186100216FF300016FF341016FF3A3
:103E7C0082016FF3C501032363F38811CCF30A03AA
:103E8C0063F353216FF31F510023064800F040FDEC
:103E9C00A54628468837BD46BDE8F0816FF01B0C5F
:103EAC00D7E700BFE0020020C05C01002DE9F04F15
:103EBC008DB0019290F810B0BBF1000F26D00446E3
:103ECC000E469946C36A1B68D9B201294AD901F139
:103EDC00070A4A420AEA020A012946D9DBB209EB6F
:103EEC00030808F1FF385B4208EA0308A389A3EB37
:103EFC008A034B45C0F0AE80B9F1000F03D0019B93
:103F0C00002B00F0AA806368039334E0544B1B68C9
:103F1C0013F0070F02D16FF00C0593E0514B0B938C
:103F2C0002238DF8083000238DF809308DF80A3003
:103F3C008DF80B30029A0A92194663F3000163F371
:103F4C00410163F3820163F3C501012262F388111D
:103F5C00082262F3532163F31F510AAA404800F070
:103F6C00D7FCD8E74FF0080AB6E7C846BEE7626848
:103F7C00039B9A4213D0039F04AA03A920460CF07A
:103F8C000DF9054600285DD1BDF81030B342EED1D5
:103F9C0004A920460CF086F80028E8D001E04FF088
:103FAC00000BBBF1000F18D03F0C3F04BDF81210F2
:103FBC003944B9F1000F03D1BDF8143083B941E095
:103FCC00BDF814304B450BD14B46019A20460BF0F3
:103FDC00EBFF002804DC054634E0B9F1000F31D0CA
:103FEC00B8F1000F1DD01AFA88F7BFB204F114080B
:103FFC004FF0FF324FF0FF33404609F04FFBE3899F
:10400C009D421AD06268A3683B449A420BD2204668
:10401C000CF089FAD0B920460CF0C6F9C0B90135BC
:10402C00EDE70027E2E74B46019A314620460CF0BB
:10403C005BFA054618B94D4601E06FF01B0540468A
:10404C0009F0B0FB28460DB0BDE8F08F0546F6E749
:10405C000546F4E76FF01505F4E76FF01505F1E789
:10406C00E0020020EC5B01002DE9F0478AB0994694
:10407C00BDF84880037CA3B104460F469246C36A40
:10408C001B68DAB2012A38D9134607325B421A4050
:10409C00A389A3EB42034B4570D3666803960025B6
:1040AC0031E03B4B1B6813F0070F02D16FF00C0390
:1040BC0059E0384B099302238DF8003000238DF81A
:1040CC0001308DF802308DF80330009A08921946B1
:1040DC0063F3000163F3410163F3820163F3C501F0
:1040EC00012262F38811082262F3532163F31F51FA
:1040FC0008AA274800F00CFCD8E70822C8E7626839
:10410C00039B9A4216D0454514D8039E01AA03A9D5
:10411C0020460CF043F8034628BBBDF80430BB42E4
:10412C00EDD101A920460BF0BDFF0028E7D00135E9
:10413C00ADB2E4E76268039B9A4218D0BDF8083030
:10414C00FBB1454520D3360C3604BDF806104B4563
:10415C0028BF4B465246314420460BF0F8FE03462E
:10416C0008B9BDF8083018460AB0BDE8F087BDF8AC
:10417C000430BB42E2D06FF00103F4E76FF015039B
:10418C00F1E76FF00103EEE76FF00103EBE700BF1F
:10419C00E0020020EC5B010070B506460D46084CB1
:1041AC0004E02A463146204698471034054B9C4281
:1041BC0004D223689B69002BF3D1F6E770BD00BFD6
:1041CC00CC530100EC5301002DE9F04107460546A4
:1041DC000AE007EA0807144B03EB06135B6804229A
:1041EC001968204600F064FBD5B195FAA5F6B6FA2D
:1041FC0086F60D4C04EB06140123B3406FEA03085A
:10420C0025EA0305237B002BEED03301064AD35855
:10421C001B69002BDDD0204698470028E4D1D8E755
:10422C003846BDE8F08100BFCC5301002DE9F041C8
:10423C0080460F46204BBFF35B8F53E8005F6A1C30
:10424C0043E800210029F8D1BFF35B8F002D2FD15B
:10425C001A4C002607E0636804221968204600F017
:10426C0027FB01361034164B9C4213D2237B002BB8
:10427C00F8D02368DB680BB12046984723681B698C
:10428C00002BE8D0204698470028E4D00123B34007
:10429C001D43E6E7B8F1000F0BD055B12846FFF7E8
:1042AC0093FF0546002FF8D00A200CF091F9F4E7A3
:1042BC0000252846BDE8F08164110020CC53010094
:1042CC00EC53010008B5064B186018B1054B1B6880
:1042DC00092B00DC08BD044809F0A2FAFAE700BF7C
:1042EC0058110020601100203003002008B502484E
:1042FC0009F096FA08BD00BF300300200B7813F0CC
:10430C00040F17D110B54A680B88C3F382140978CF
:10431C00C1F3C20113F4E07F0ED07AB1084BD21A6C
:10432C00012342F38F020CF0E3F984428CBF00208E
:10433C00012010BD012070470120FAE70120F8E7A9
:10434C00B002002038B505460B4C00E010340B4B86
:10435C009C420FD263685B79002BF7D0294620462C
:10436C00FFF7CCFF0028F1D023681B6829462046B4
:10437C009847EBE738BD00BFCC530100EC5301006C
:10438C0030B589B000220F490F4810F030FC0F4DAA
:10439C0000220023CDE90623002404940E2303936A
:1043AC000294019400940A4B4FF440720949284638
:1043BC0010F0A1F90849284609F040F8204609B048
:1043CC0030BD00BFF942000020080020600300202F
:1043DC002D470000B83E0020DC5C0100014B53F877
:1043EC0020007047F85C010048B108B5054A106020
:1043FC00054B1960084600F031FD002008BD6FF038
:10440C0015007047400000205411002008B5054BE2
:10441C001B781BB1034B01221A7008BD024809F02E
:10442C00FFF9F7E7B03C0020300300200D4BBFF341
:10443C005B8F53E8001F013143E80012002AF8D1CA
:10444C00BFF35B8F00B97047074BBFF35B8F53E82B
:10445C00001F013943E80012002AF8D1BFF35B8F2B
:10446C00F1E700BF5C11002060110020064B00201A
:10447C000146BFF35B8F53E8000F43E80012002A9C
:10448C00F9D1BFF35B8F70475C11002038B5FFF793
:10449C00EDFF0546094C00E01034094B9C420BD251
:1044AC0063685B79002BF7D023685B68002BF3D033
:1044BC00294620469847EFE738BD00BFCC53010092
:1044CC00EC530100034B18680028D4BF00200120D6
:1044DC00704700BF5C11002010B5044C0449204605
:1044EC000BF07FFB034B1C6010BD00BF6C02002067
:1044FC00E45C01005011002008B50023074A13703A
:10450C00074A1360074A13604FF400410648FFF74F
:10451C006BFFFFF7E1FF00F07BF908BDB13C002019
:10452C005C11002060110020D505010008B5014682
:10453C0001480CF063F808BD6C02002008B5024875
:10454C000BF033FC08BD00BF6C02002008B501461F
:10455C00024B18680CF058F808BD00BF5011002031
:10456C0008B502480CF054F808BD00BF6C020020DE
:10457C0010B582B000220023CDE90023284B187817
:10458C0008B902B010BD68460CF05AF8044688B160
:10459C00244BBFF35B8F53E8001F013943E8001233
:1045AC00002AF8D1BFF35B8F2046FFF7CBFE2046E5
:1045BC00FFF7CCFFFFF786FF58B91B4A1368516809
:1045CC0013F57A7341F1000113605160FFF7C8FFD6
:1045DC00D7E710F0F6FA4A0142EAD06243011B1AFF
:1045EC0062EB0102920042EA93729B001B1842EBB1
:1045FC000102D20042EA5372C3F3103343EA42433E
:10460C00D20B0948016840685B1A62EB000240F269
:10461C00E9318B4272F10002CFD3FFF737FFCCE7C1
:10462C00B03C002060110020180800200F4B1B78B4
:10463C0003B1704710B500210120FFF7F7FD0C4CBA
:10464C0000E010340B4B9C4208D263685B79002B62
:10465C00F7D023689B6820469847F2E7FFF788FF5E
:10466C000028FBD1014B01221A7010BDB13C002077
:10467C00CC530100EC53010010B582B01B4BBFF3BF
:10468C005B8F53E8002F511C43E800100028F8D131
:10469C00BFF35B8F164B1B7863B9164B1B68BBB112
:1046AC00C2B10A2A14D1144810F0ADFA134809F01B
:1046BC00B7F80DE04FF02003EFF3118483F3128869
:1046CC00BFF36F8FFFF754FF84F31188BFF36F8F25
:1046DC0002B010BD00220023CDE900234FF40042AC
:1046EC000023054809F0A8FEF2E700BF6011002086
:1046FC00B13C00205811002020080020300300207D
:10470C0010B50446044B1B689847A060214603482B
:10471C000BF09AFF10BD00BF400000206C0200207F
:10472C002DE9F04100210846FFF780FD804640B19D
:10473C0040F26766002709F06DFCFFF7C3FD00250A
:10474C0015E04FF0FF364FF0FF37F4E74046FFF728
:10475C003BFD804670B94FF0FF364FF0FF3709E054
:10476C002C4632463B46094809F082F82546B8F1FA
:10477C00000FEBD1FFF7FCFE04460028F6D1002D0C
:10478C00EED000210846FFF707FDEAE730030020D2
:10479C0008B50A46014602480BF0C1FB002008BDD3
:1047AC006C02002008B5014601480BF0C3FB08BDA4
:1047BC006C020020014800EB81007047B002002021
:1047CC000248034BC01AC008704700BFCC5301000D
:1047DC00F452010010B50C46FFF7F2FFA04203D9CA
:1047EC00024B53F8340010BD0020FCE7F4520100DA
:1047FC0010B50C46FFF7E4FFA04204D9034B03EBC2
:10480C00C403187910BD0020FCE700BFF45201006E
:10481C0010B5002410E021460020FFF7E9FF0A4AFA
:10482C0052F8243023F0070342F8243000F007003C
:10483C00034342F824300134044B054A9B1AB4EB71
:10484C00D30FE8D310BD00BFB0020020CC53010041
:10485C00F45201002DE9F0410E461746984600B37C
:10486C00054600230BF044FF044610B1404500D927
:10487C004446686823463A46F1B200790BF0FEFED6
:10488C002046BDE8F08143463A46314628460BF0B7
:10489C0048FF844238BF04461035034B9D42F2D387
:1048AC00EEE7024D0024F8E7EC530100CC53010075
:1048BC0038B504460D461146084BC31A1B1101337B
:1048CC0042681371436899710BF02FFF63681D6088
:1048DC00636801225A71FFF799FD38BDCC53010072
:1048EC0000B589B0059206930023079362B1074A7D
:1048FC000C9B02930B9B01930A9B009305ABFDF75A
:10490C00F3FD09B05DF804FB0022F1E77707010025
:10491C002DE9F04F8BB004AF05461E468846C1F317
:10492C004A24002C00F08F8091460022FA603A61F4
:10493C007A6104230293FB1801930A23009307F175
:10494C000C0321464846FDF7CFFDB0F5006F5ED352
:10495C00464B1B6813F0060F00F08480D9F8041046
:10496C006D4600233B7302237B738AB004AC14F1B5
:10497C00100221D012201AB1042801DD3C4B6361D6
:10498C0000233B7002237B70CAB10346082800DD6C
:10499C00A1610C2B02DD40F2FF73E36104F12003F3
:1049AC00002101290BD801F118063E4416F8186CA9
:1049BC0003F8016B0131F4E76FF00040DBE71128DD
:1049CC0022DD122342B10421397300217973B973AA
:1049DC000121F973F868206100216FF300016FF376
:1049EC0041016FF382016FF3C501022060F388115E
:1049FC00C3F30A0363F353210023C1F313011B48D0
:104A0C000BF0E0FEAD462DE06FF01B03DAE760F330
:104A1C005328C0F30A0A0AEB1850173020F007008D
:104A2C008008FFF783FD8346B0B104230293FB1883
:104A3C0001930A230093534600F110022146484685
:104A4C00FFF74EFF08E004EB1154173424F0070471
:104A5C00A008FFF76BFD834633464246294658466D
:104A6C000BF099FE1C37BD46BDE8F08FE802002024
:104A7C00185D01000EB400B584B0014605AB53F8C7
:104A8C00042B0393002000900348FEF7FBFA04B0BC
:104A9C005DF804EB03B070470709010030B585B031
:104AAC0011F0440F05D01A4B1C6834B9002005B026
:104ABC0030BD1849FFF7DEFFF9E7174B1968B2FB59
:104ACC00F1F1B1FBF4FC154AA2FB0C32D20A4FF403
:104ADC00616E0EFB12CE124BA3FB0E535B0904FB53
:104AEC001C114FF47A7C0CFB01F1B1FBF4F504FBC7
:104AFC0015110CFB01F1B1FBF4F102910195C3EB23
:104B0C000311AEEB810100910649FFF7B3FFCEE72D
:104B1C006C110020585D010068110020C5B3A291F2
:104B2C0089888888645D010061B108B52AB1064A9C
:104B3C0052F8232012B9054A00E0044A0449FFF751
:104B4C0099FF08BD704700BF005E0100805D010049
:104B5C00645801002DE9F041054690461E46069F1B
:104B6C0081B900242EB1324610492846FFF782FF46
:104B7C000444B7B1B8F1000F0DD0079B042B13D030
:104B8C000B4909E00B4B079A53F822200A49FFF70F
:104B9C0071FF0446E6E706493A462846FFF76AFFE6
:104BAC0004442046BDE8F0810449F5E79C5D010012
:104BBC008C5D0100145E0100945D0100885D0100B4
:104BCC002DE9F04F85B005460C46164603939DF82B
:104BDC00408001F0020B01F0010AC1F3C0090BF097
:104BEC0039FDD8B1024612492846FFF743FF074664
:104BFC00BBF1000F14D14246514628460BF03DFE46
:104C0C00CDF804800F9B00930E9B324649462846F4
:104C1C00FFF7A0FF384405B0BDE8F08F0027E7E7A9
:104C2C00039A21462846FFF739FF0744E3E700BF04
:104C3C00A05D010011F0100F0BD108B511F0200F81
:104C4C0003D00449FFF716FF08BD0349FFF712FF15
:104C5C00FAE77047C05E0100A45D01002DE9F04148
:104C6C0005460F46164698460699FFF7E3FF0024C3
:104C7C00444505DA23492846FFF7FCFE0134F7E7E3
:104C8C00002409E01F492846FFF7F4FE0BE01E49FB
:104C9C002846FFF7EFFE01340F2C0CDC002C02DD54
:104CAC0014F0070FEED0B442F1D23A5D1749284602
:104CBC00FFF7E0FEEFE716492846FFF7DBFE00247E
:104CCC0009E010492846FFF7D5FE0BE011492846AC
:104CDC00FFF7D0FE01340F2C12DC002C02DD14F097
:104CEC00070FEED0B44206D23A5DA2F120035E2B40
:104CFC00ECD92E22EAE703492846FFF7BBFEE9E789
:104D0C00BDE8F081985D0100B05D0100A85D010077
:104D1C00B45D0100547101002DE9F04184B00446EA
:104D2C009DF828500B9F0D9E95B9012B1BD0174851
:104D3C004FF0000827B13B46224615490AF066F8A9
:104D4C00AEB9EDB920460BF0CBFD04B0BDE8F08157
:104D5C000295019300920B4600220E99FFF730FF4B
:104D6C0080460C48E6E70B484FF00008E2E70E9B44
:104D7C000093434632460C9920460BF096FDE0E733
:104D8C002A460E9920460BF084FDDBE73F09010013
:104D9C0077080100070901002DE9F04186B00546AE
:104DAC000C461746D1F808800E88C6F38216087890
:104DBC00C0F3C2004B6833B1114A9B1A43F38F0105
:104DCC00002918DA0023224652F8101BC1F34A219D
:104DDC006088C0F30B10541801B90022049703909B
:104DEC00029401920096002241462846FFF794FF58
:104DFC0006B0BDE8F081FFF7EDFC0346E3E700BF2A
:104E0C00B002002070B582B00446056842F20F7300
:104E1C008B4228BF0B460E4A052168460AF079F8EA
:104E2C00064663685B680B220A4928460BF010FDA6
:104E3C0063685B683246694628460BF009FD636877
:104E4C005B681B22044928460BF002FD02B070BDC2
:104E5C00B0570100D45D0100B85D0100074B012281
:104E6C001A6004E04008054A13685B001360044BA9
:104E7C009842F7D8034B1860704700BF68110020A8
:104E8C0040420F006C1100200023CB604B60054B9F
:104E9C008B60042804D8044B53F820300B60704707
:104EAC000023FBE7AC540100946301000023CB60AA
:104EBC004B60074A8A600B60064B074A9B1AB0EBA3
:104ECC00131F03D202EB00139B680B60704700BFEB
:104EDC0018630100EC530100CC53010010B50C46D3
:104EEC000023CB604B60044A8A6001461846FFF7EA
:104EFC0071FC206010BD00BFAC54010008B5C36943
:104F0C009B681B790BB1012008BD034A01210CF0F1
:104F1C0087FB0020F8E700BF285E010030B583B0A6
:104F2C0005460C4C09E00C491279019200910B4A90
:104F3C00082128460CF074FB1034094B9C4206D215
:104F4C00A368626851790029EDD00649ECE700208E
:104F5C0003B030BDCC530100545E0100605E010013
:104F6C00EC5301004C5E01002DE9F04383B0804608
:104F7C000F460020FFF724FC81467B685B7963B108
:104F8C001C4B1D4A082140460CF04AFB1B4A0821C9
:104F9C0040460CF045FB002426E0194A032140460C
:104FAC000CF03EFBECE701232246002138460BF0C7
:104FBC009FFB054600232246194638460BF098FB0A
:104FCC00064621460020FFF705FC03460D4A52F821
:104FDC00251052F82620019200910B4A08214046D8
:104FEC000CF01EFB013424B24C45DCD3002003B082
:104FFC00BDE8F083985E0100A45E0100C45E010070
:10500C00845E0100A8630100045F010070B50646D0
:10501C000DF05FFE0546084C00E01034074B9C4237
:10502C0007D22A46A16830460DF071FE0028F4D153
:10503C0000E00024204670BDCC530100EC5301006D
:10504C002DE9F0410546884614461E4652F8047C6C
:10505C003846FFF7DBFF38B1014623464246284667
:10506C00B0470020BDE8F0813B46044A01212846A8
:10507C000CF0D6FA6FF00700F4E700BF185F0100E0
:10508C0008B5024BFFF7DCFF002008BD754F000090
:10509C0008B5024BFFF7D4FF08BD00BF5D09010046
:1050AC0008B5024BFFF7CCFF08BD00BF6509010036
:1050BC0008B5024BFFF7C4FF08BD00BFB951000093
:1050CC0008B5024BFFF7BCFF08BD00BF2B0A01005F
:1050DC0038B505460024042C09D80422064B53F895
:1050EC00241028460DF013FE18B10134F3E74FF0ED
:1050FC00FF34204638BD00BFA86301002DE9F04FF6
:10510C0083B081468A461E46DDF83080154632B1A2
:10511C001746DAF804305B7933B100241DE0002027
:10512C00FFF74EFB0746F4E71C4A032148460CF0F8
:10513C0077FAF2E756F824000BF046FC12E0214611
:10514C000020FFF747FB03461BE056F82430144AB7
:10515C00012148460CF064FA0134BC421BDA002DE4
:10516C00E8D120460028F0DB02B24346002150462D
:10517C00FFF770FB83468045EED0002DDFD056F84C
:10518C002430084A52F82B200092074A0321484643
:10519C000CF046FAE0E703B0BDE8F08F305F010099
:1051AC00605F0100A8630100485F0100F0B583B0A7
:1051BC0005460E4617461C465868FFF789FF00281F
:1051CC000ADB009004F10803BA1E31462846FFF7AB
:1051DC0095FF002003B0F0BD6368044A0121284606
:1051EC000CF01EFA6FF00700F4E700BF7C5F0100C3
:1051FC0010B584B0044602A903A8FFF7C9FA002829
:10520C001EDB174A082120460CF00AFA039B154AAC
:10521C00082120460CF004FA029B134A0821204670
:10522C000CF0FEF901A8FFF7BDFA002810DB019B7A
:10523C000E4A082120460CF0F3F9002004B010BDF2
:10524C000B4A012120460CF0EBF96FF00700F5E753
:10525C00084A082120460CF0E3F90020EEE700BFD5
:10526C00C85F0100F05F0100086001006060010090
:10527C00945F010028600100034B01221A70034B5C
:10528C00034A1A60704700BFB23C002098110020FE
:10529C009C110020014B19600020704784110020E4
:1052AC0008B518B9074B00221A7008BD064B1B78BD
:1052BC0023B141F288300FF088FCF6E705200BF0A3
:1052CC00CAFBF2E7B23C0020B33C002038B50446E0
:1052DC000A4B01221A700A4B1B782BB938BD651E7C
:1052EC002046FFF7DDFF2C46002007F04FFD00287D
:1052FC00F4D0024B1B78002BF1D1EFE7B23C00202D
:10530C00B33C0020F8B506460D4604270DE02A46AE
:10531C003146002007F0A0FC044614E03846FFF7A5
:10532C00D5FFDCB9114B1B78C3B1114B1B78002B8B
:10533C00EDD107F03BFD2A463146002007F08CFCEE
:10534C00044607F03FFD002CE8D1084B1B78002BDE
:10535C00E7D0013F3846FFF7A3FFE2E714B9034B50
:10536C001B7803B92C462046F8BD00BFB23C002088
:10537C00B33C002008B5034B01221A7002480BF015
:10538C00AFFA08BDB33C0020E863010008B5024841
:10539C00FFF738FD08BD00BFE863010010B50C46EF
:1053AC00044B1868FFF71AF803460F2221460248EF
:1053BC00984710BD84110020E863010070B50546C4
:1053CC004FF02003EFF3118683F31288BFF36F8F36
:1053DC000E4B1C680DE0A2683AB10D4B1B7C03EB25
:1053EC0043030C4911F8230090472346246804B169
:1053FC0023B12CB1002DEED06268EDE71C46F8E726
:10540C0086F31188BFF36F8F70BD00BFD0110020E1
:10541C006C3C0020C411002008B5064B23B1417828
:10542C0000780DF0E9FE08BD002383F31188BFF36B
:10543C006F8FF8E70532010010B5084B1C68013C72
:10544C0006E00121064B53F8240000F027FA013C3A
:10545C00002CF6DA014B00221A6010BDB4110020AA
:10546C0060020020F0B585B000AF07F10C0007F02A
:10547C00EFFC5D4B00221A60C0EBC00083001C3BAC
:10548C00FC681C447AE0594B1B6813F0070F00F0C2
:10549C00A6802668012000F0EBF96C4600233B72D5
:1054AC0002237B720123BB720323FB728AB06B460F
:1054BC0013F1100229D018212AB1042903DDDFF8D9
:1054CC0030C1C3F814C04FF0000C87F804C04FF083
:1054DC00020C87F805C012B1082900DD9E614FF05F
:1054EC00010C87F806C04FF0030C87F807C0DAB13F
:1054FC008C460C2900DDD861BCF1100F00DD1D625B
:10550C0003F124004FF0000C0BE06FF00041D3E7E7
:10551C000CF110063E4416F80C6C00F8016B0CF103
:10552C00010CBCF1030FF3D9172923DD4FF0180C34
:10553C0042B10521397200217972B9720221F972D6
:10554C00B868186100216FF300016FF341016FF32C
:10555C0082016FF3C501012363F38811CCF30A0CAC
:10556C006CF353216FF31F5100232048FFF7D0F940
:10557C00A54634E06FF01B0CDAE71C3CFB689C4240
:10558C002CD320460FF04EF80028F6D020460BF016
:10559C00BFFA0028F1D120460BF0EEFA0028ECD12E
:1055AC0020460BF0DFFA0028E7D10021204600F05E
:1055BC0075F9054610F1580FDFD010F1860FDCD0CD
:1055CC0010F1780FD9D00028FFF65DAF064A1368AA
:1055DC00084941F8234001331360CEE700252846E3
:1055EC001437BD46F0BD00BFB4110020FC020020F2
:1055FC00F86301006002002070B50E4B1C7C214644
:10560C000D480BF03EFA00B970BD650004EB440088
:10561C000A4E06EB8000FFF7FFFE0020FFF7CEFEE0
:10562C002B19990006EB8303002272505A609A6082
:10563C00EAE700BF6C3C0020D8110020C411002008
:10564C00F8B50546584B1C7C4FF02003EFF3118640
:10565C0083F31288BFF36F8F04EB4402534B13F8A0
:10566C002230002B5CD0524B03EB820C4F4F4FEA95
:10567C00820E07EB820393E807008CE807000023F7
:10568C0007F80E3086F31188BFF36F8F04EB4403D9
:10569C00474A12F82330002B00F08380B5F1FF3F0E
:1056AC004DD1444BBFF35B8F53E8002F013A43E8D5
:1056BC0000210029F8D1BFF35B8F32B904EB44030E
:1056CC003B4A12F82330012B4FD108F0A1F90120ED
:1056DC00FFF774FE214638480BF0EFF9374B5BB1FE
:1056EC00334A04EB440302EB830304EB4404597880
:1056FC0012F824000DF078FD2E4BBFF35B8F53E8AE
:10570C00002F511C43E800100028F8D1BFF35B8F29
:10571C00002A43D0FFF770FF08F066FB0120F8BDAC
:10572C000146204600F050F80028ABD004EB4401B1
:10573C001F4B03EB810307C883E80700A2E704EBC8
:10574C0044021B4B03EB82039868410CC0031C4BB7
:10575C00C0181C4A4FF0000341F10001FAF7B8FCE5
:10576C000121281A06F0BCFA9BE7FFF77BFE002804
:10577C00ABD0FFF761FE04EB4404A40000200C4BFB
:10578C0018550C4BBFF35B8F53E8001F013143E8F6
:10579C000012002AF8D1BFF35B8FC0E7FFF74CFE75
:1057AC00B8E70020BBE700BF6C3C0020B81100201C
:1057BC00C411002044000020D8110020F531010054
:1057CC003F420F0040420F002DE9F04182B00E46DF
:1057DC0001A900F045F8441E24B207E0B6F1FF3FE2
:1057EC0033D08044B04530D9013C24B2002C2BDBA3
:1057FC00019B04EB440203EB8205697813F8220049
:10580C000BF06EF90028EFD16868410CC003114F02
:10581C00C019114A4FF0000341F10001FAF758FC8E
:10582C008046AB68590CDB03D8190B4A4FF00003C8
:10583C0041F10001FAF74CFC084B1B68B3F1FF3F38
:10584C00CCD08342CAD8CFE70025284602B0BDE8A9
:10585C00F08100BF3F420F0040420F004800002083
:10586C0008B9024B0B600020704700BF2464010094
:10587C00012806D0032806D008B104487047044814
:10588C007047044870470448704700BFA865010082
:10589C00246401002C64010038640100F8B58769A8
:1058AC00002F3ED005460C460BF066F900283BD184
:1058BC003B7A224A165DB34239D0214A125D93429B
:1058CC0038D1FB68214628469847002804DB3E72F5
:1058DC00022C17D00020F8BD022C11D0032CFAD1C9
:1058EC0010F1860F0CD03B1DBFF35B8F53E8001FEC
:1058FC0041F0020143E80012002AF7D1BFF35B8F9D
:10590C003E72E8E73B1DBFF35B8F53E8001F21F0AD
:10591C00020143E80012002AF7D1BFF35B8F00208D
:10592C00D9E76FF05700D6E74FF0FF30D3E76FF0B1
:10593C007700D0E76FF08500CDE700BF4064010031
:10594C003C6401002DE9F04182B006461546002367
:10595C00019301AA0A21A8680CF015F9019C9CB9C5
:10596C008046C3B2042B17D868680AF0A7FE071E3E
:10597C001DDB3AB25FFA88F300210846FEF76AFF96
:10598C00204602B0BDE8F08123460C4A0121304686
:10599C000BF046FE019CF3E7C3B2094A01213046E5
:1059AC000BF03EFE30460BF049FE0124E8E76B6835
:1059BC00044A012130460BF033FEDAE75064010053
:1059CC00786401009064010030B583B0054613463D
:1059DC000022019201AA0A2158680CF0D4F8019C0B
:1059EC0024B90BF0D3F8204603B030BD2346034A4C
:1059FC00012128460BF014FE019CF4E7B064010071
:105A0C0010B582B0044607F027FEC0F307230193BC
:105A1C00C0F307430093030E034A082120460BF002
:105A2C00FFFD002002B010BDD064010010B504468B
:105A3C000BF0C2F80346034A082120460BF0F0FD98
:105A4C00002010BDEC64010010B5044606F084F98A
:105A5C000346084A082120460BF0E2FD064A0821BD
:105A6C0020460BF0DDFD2146044807F0ABFC00207E
:105A7C0010BD00BFFC6401001C6501008D5A0000C4
:105A8C00F0B58FB004460D46D0F8A0700EF022FE93
:105A9C00064608F0BFFA844230D0234B002E2FD09C
:105AAC0001960094214A082128460BF0B9FD94F97F
:105ABC000E10D4E90A23CDE902230091237B1C4A62
:105ACC00082128460BF0ACFD202205A9204607F042
