:1000000048560020697200006DE900003D72000052
:100010003D7200003D7200003D72000000000000D3
:10002000000000000000000000000000C56A0000A1
:100030003D72000000000000796A00003D7200007F
:10004000416B0000416B0000416B0000416B000000
:10005000416B0000416B0000416B0000416B0000F0
:10006000416B0000416B0000416B0000416B0000E0
:10007000416B0000416B0000416B0000416B0000D0
:10008000416B0000416B0000416B0000416B0000C0
:10009000416B0000416B0000416B0000416B0000B0
:1000A000416B0000416B0000416B0000416B0000A0
:1000B000416B0000416B0000416B0000416B000090
:1000C000416B0000416B0000416B0000416B000080
:0C00D000416B0000416B0000416B000020
:1000DC0053B94AB9002908BF00281CBF4FF0FF31A3
:1000EC004FF0FF3000F00CB8ADF1080C6DE904CE08
:1000FC0000F008F8DDF804E0DDE9022304B07047F5
:10010C00704700BF2DE9F04786468C460846089E8E
:10011C00154674461946002B40F0C2808542B2FA4F
:10012C0082F245D94AB1C2F1200300FA02FC2EFA40
:10013C0003F3954043EA0C0C94404FEA154EA8B2D9
:10014C00BCFBFEF8230C0EFB18CC08FB00F943EAB1
:10015C000C43994528D9EB1808F1FF3704D299457F
:10016C0002D9A8F102072B44A3EB0903A4B2B3FBF9
:10017C00FEFC0EFB1C330CFB00F044EA0344A042D3
:10018C0014D92C190CF1FF3304D2A04202D9ACF1D2
:10019C0002032C44241A43EA07401EB1D440002326
:1001AC0034607360BDE8F0874746DDE76346F1E7EE
:1001BC0092BB431B01214FEA154EAFB2B3FBFEFCC1
:1001CC00200C0EFB1C330CFB07F840EA034398454C
:1001DC0062D9EB180CF1FF3004D2984502D9ACF17E
:1001EC0002002B44A3EB0803A4B2B3FBFEFC0EFBF2
:1001FC001C330CFB07F744EA0344A7424ED92C19D5
:10020C000CF1FF3304D2A74202D9ACF102032C4407
:10021C00E41B43EA0040C0E7C2F1200320FA03F1DB
:10022C00954090402EFA03F303434FEA154EAFB2BC
:10023C00B1FBFEFC0EFB1C10190C0CFB07F841EA81
:10024C000041884504FA02F422D969180CF1FF30F8
:10025C0004D2884502D9ACF102002944A1EB080173
:10026C009BB2B1FBFEFC0EFB1C110CFB07F743EA27
:10027C0001439F420ED9EB180CF1FF3104D29F427F
:10028C0002D9ACF102012B44DB1B41EA004192E79D
:10029C006046E3E76146F7E76046A3E76346B7E7E6
:1002AC00834206D916B9002108467BE7C6E900E06F
:1002BC00F9E7B3FA83F78FB9834201D3724508D8B3
:1002CC00BEEB020460EB030301209C461EB9002127
:1002DC0068E73846FAE7C6E9004CF8E7C7F1200CA6
:1002EC00BB4022FA0CF41C432EFA0CF120FA0CF34E
:1002FC00B84001434FEA14490EFA07F5B3FBF9F87D
:10030C001FFA84FE09FB18300B0C08FB0EFA43EAAB
:10031C0000439A4502FA07F240D9E31808F1FF307E
:10032C0004D29A4502D9A8F102002344A3EB0A0394
:10033C0089B2B3FBF9F809FB183308FB0EFE41EA4E
:10034C0003418E452CD9611808F1FF3304D28E4538
:10035C0002D9A8F10203214443EA0040A0FB029811
:10036C00A1EB0E014145CE46434602D306D14D4585
:10037C0004D2B9EB020E68EB04030138002EA6D0B0
:10038C00B5EB0E0261EB030101FA0CFC22FA07F348
:10039C004CEA0303F940C6E9003198E74046C5E74B
:1003AC004346D9E7B0B586B000AF00214FF480408A
:1003BC000BF010FA00F0A0F9454D0346A8B12B68DC
:1003CC005B0705D14FF0FF3420461837BD46B0BD52
:1003DC00404B7B6102233B61002307F110024FF479
:1003EC008251284603F0AEF9ECE72A6854070FD582
:1003FC006C4688B06A46384951613849916103218D
:10040C0042F8101F4FF4C851284603F09BF9A5463B
:10041C00334C344800F0DAF9204600F0C9F90346B1
:10042C0090B12B68580702D16FF00104CCE72E4B2A
:10043C007B6102233B612648002307F110024FF435
:10044C00825103F07FF9EFE72A68510711D5217823
:10045C006C4688B06A46254850612048C2E90601BE
:10046C00042142F8101F1A484FF4045103F06AF9A2
:10047C00A5461C4800F0B8F82B68044688B15A070A
:10048C0002D16FF002049FE7194B7B6102233B61A1
:10049C000F48002307F110024FF4825103F052F978
:1004AC00EFE75B0710D56D4688B06A46114B536178
:1004BC000A4B9361032342F8103F4FF4C851034693
:1004CC00034803F03FF9AD4600F0F4F87CE700BFB9
:1004DC00F0020020120E01002D0E01009F0E0100F3
:1004EC00C034002054020020440E01005A0E0100BA
:1004FC00730E01008B0E0100014B1B685B681847E3
:10050C000000002001480AF031BE00BF4803002063
:10051C0098B50B4803685B0700AF0FD56C4688B0E5
:10052C006A46084B5361084B9361032342F8103F12
:10053C0000234FF4C85103F005F9A546BD4698BDFC
:10054C0018030020090F0100790F010098B50B4822
:10055C0003685B0700AF0FD56C4688B06A46084B42
:10056C005361084B9361032342F8103F00234FF46F
:10057C00C85103F0E7F8A546BD4698BD1803002006
:10058C001C0F01006E0F0100F8B5134E134C00AF99
:10059C0040F26762002330460AF00EFE08B900F004
:1005AC0091FA4FF4004000210BF014F923685B071B
:1005BC00EED56D4688B06A46094B5361094B936181
:1005CC00032342F8103F00234FF4C851204603F098
:1005DC00B9F8AD46DCE700BF480300201803002043
:1005EC002B0F0100650F010030B587B000F0F0FB58
:1005FC00054698B1254803685A0704D14FF0FF34DB
:10060C00204607B030BD224B0593022304930023F0
:10061C0004AA4FF4825103F095F8EFE70BF0FBFEC0
:10062C00012000F007FB044688B1184803685B07FB
:10063C0002D16FF00104E3E7164B059302230493F8
:10064C004FF482512B4604AA03F07CF8F1E70BF02F
:10065C00E8FE114800F0C6F844F234000BF0B7FD88
:10066C0044F234000BF0ADFD0C4800F0B3FC0C4B25
:10067C000C4A0D490D4800F0B9F90D4801210BF059
:10068C0082FE012000F0BCF9BAE700BF180300207D
:10069C00380F01004B0F010048020020110500002B
:1006AC00B5C00000B1C0000005050000B9C00000D5
:1006BC0080D0230400B50D4B1B68B7B01B6898475E
:1006CC0000220023CDE9062300230522CDE90323D4
:1006DC00CDE9013300930649064B4FF4FC7208A890
:1006EC000AF0E4FB37B05DF804FB00BF000000200B
:1006FC00103C00209505000030B5274C2748A0621F
:10070C008BB00FF00FF8034678B9254802685107F3
:10071C0008D0244A0992022208924FF4825108AA66
:10072C0003F010F84FF0FF300EE04FF4F421A06A04
:10073C00216001AA0EF0F7FC054690B11848036839
:10074C005A0703D16FF001000BB030BD164B099363
:10075C0002230893002308AA4FF4825102F0F2FFFF
:10076C00F0E7029BA38120460323E38102F0F0F81B
:10077C000028E9D00A4803685B0702D16FF0020039
:10078C00E2E70A4B0993022308934FF482512B465C
:10079C0008AA02F0D7FFF1E7E00D0020A4FE00004C
:1007AC00CC020020930F0100AD0F0100C60F010019
:1007BC0008B502460123002103480CF0D0FD013896
:1007CC0018BF4FF0FF3008BDE00D002008B5024601
:1007DC0001230021024802F0C5FA4FF0FF3008BD9A
:1007EC00E00D00202DE9F843067847784279734BE9
:1007FC00013F042E33F812800446FFB200F0C08093
:10080C00F31FD3F1000949EB03096D4DE379296816
:10081C000A69002B40F0B78042F480024FEAD808F6
:10082C000A61237A8B7222F440320A61237A1B0408
:10083C0003F440331A430A61042000210BF0CCFC72
:10084C00424642F604012E200BF0AFFC38460BF06A
:10085C00F1FC5C4B13F806805B4B072153F8282006
:10086C002B200BF0B9FC594B0B2113F808202B2033
:10087C000BF08EFC564B0B2113F8092028200BF0A3
:10088C0087FC544B0C2153F8282028200BF0A4FC97
:10089C00E279A37903EB42034F4A022132F8132089
:1008AC0027200BF082FC4D4B042133F81720272016
:1008BC000BF07BFCE379002B68D164220621272006
:1008CC000BF073FCE378464A03EB8703082152F8DC
:1008DC00232027200BF080FC638913B941F24103DC
:1008EC006381DFF800816289202127200BF05DFCF9
:1008FC00D8F8002008EB47080C2123200BF06CFCE7
:10090C002320B8F8042004210BF04FFCA079002818
:10091C0051D0E379344A2120D25C00210BF038FC11
:10092C0001220320617906F00F0343EAC163617869
:10093C003601F6B28904334301F440210B4321798B
:10094C00890501F0F8610B4343EA005343EA424244
:10095C0000211F200BF040FC6278A3781343E2794E
:10096C00520342EA03422B680021DA6008200BF0A4
:10097C0033FCBDE8F843422200210D200BF008BCEB
:10098C004FF0010941E722F4800249E7A378042BD8
:10099C000AD11022062127200BF007FC1022262159
:1009AC0027200BF0F5FB8DE72022062127200BF0EA
:1009BC00FCFB2822F3E70246B4E700BFD00D010090
:1009CC000C00002004100100E4020100FE0F0100E5
:1009DC00FC0F0100FC020100060E0100020E0100DA
:1009EC00BC020100DC020100F90F010010B5034C40
:1009FC002468C4E90A01C4E90C2310BD0C000020D2
:100A0C0038B510F00105044625D0002126200BF046
:100A1C0091FB20F4705242F4A052002126200BF0DE
:100A2C00DBFB002136200BF085FB002140F4040297
:100A3C0036200BF0D1FBA30707D44FF48872282182
:100A4C003620BDE838400BF0C7BB074A28213620BA
:100A5C000BF0C2FBF1E7294626200BF06BFB294675
:100A6C0020F470522620ECE710010F0038B500215D
:100A7C000E200BF05FFB05460BF0B7FC0022114675
:100A8C0004460E200BF0A8FB402200210D200BF099
:100A9C007FFB0A4A00210F200BF09EFB0BF062FC3F
:100AAC002A4600210E200BF097FB20460BF09FFCF2
:100ABC00034B1B6800225A7538BD00BFF8FF272472
:100ACC000C00002070B5474C00210F2026680BF05D
:100ADC0031FBF0614604054641D54FF4DE4200215E
:100AEC000F200BF079FB2368002183F824101020D1
:100AFC000BF035FB23689A7A002A6FD0C0F30902F9
:100B0C0000041A8442BF93F8242042F0010283F8B7
:100B1C00242000212233022211200BF0EBFA2907AA
:100B2C0010D5236893F8226016F020060AD108220B
:100B3C0031460F200BF050FB2368DA695E7522F00A
:100B4C000802DA612068C36A0BB11C30984723682D
:100B5C001B7D23B1012203210D200BF019FB2A066A
:100B6C0012D5F82200210F200BF036FB2B0706D5EF
:100B7C0023685B7D1BB1FFF779FF0BF021FC20682C
:100B8C00836A0BB11C30984715F4081F11D00F2045
:100B9C0000214FF400320BF01FFB236800225A7522
:100BAC00FFF764FF0BF00CFC2068036B0BB11C30DF
:100BBC0098470D4A154214D00F2000210BF00CFB66
:100BCC00236800225A75FFF751FF0BF0F9FB2068E0
:100BDC00436B33B1BDE870401C30184700F07F0206
:100BEC008EE770BD0C0000200090052408B50BF0BA
:100BFC00AEFB002211462C200BF0D7FA0022062166
:100C0C002C200BF0C5FA0BF008FB00220321362038
:100C1C000BF0BEFA01200BF0EBFBF0220321362087
:100C2C000BF0B6FA024B1B6800225A7508BD00BFC8
:100C3C000C0000202DE9F041624D2B680027C3E920
:100C4C000A77C3E90C775F6104460BF084FA5E4BBC
:100C5C009842014640F0B2805C480BF08CFC14F0DA
:100C6C0002064AD014F0F8086FD00422394624202A
:100C7C000BF08EFA302128200BF05CFAB0F1883F93
:100C8C001FBF2A68D38A43F48053D38204F00A032B
:100C9C000A2B60D11E200BF0AAFA2B68C0F3072098
:100CAC00D87214F010002F6802D006200BF09FFAB7
:100CBC00386014F020002F6802D007200BF097FA50
:100CCC0014F0400278604AD008200BF090FA2B68A0
:100CDC00187214F0800245D009200BF088FA2B68AA
:100CEC005872002E67D1E2073FD50BF01EFB2A6825
:100CFC00D38A43F40063D38242E0FFF777FF304698
:100D0C000BF0ADFA0422314624200BF041FA0420FA
:100D1C000BF06DFAC0B248B1022212212D200BF05B
:100D2C0037FA2A68D38A43F48053D3821E200BF0FF
:100D3C005EFA2B6810F01F0FC0F3072208BF1020BB
:100D4C00DA72C0B20BF049FBABE740460BF087FA06
:100D5C00042241468BE72B680022DA72A1E72B684C
:100D6C001A72B6E72B685A72BBE7052136200BF0D6
:100D7C00F6F920F4007292B2052136200BF015FA28
:100D8C0001200BF06CFA00220A212C200BF000FA47
:100D9C00002104202C680BF0CDF920612C68638AAB
:100DAC0003F00303A372002108200BF0C3F9E060E9
:100DBC000020BDE8F0816307E2D498E74FF0FF30E4
:100DCC00F7E700BF0C0000203001CADEDC0F010089
:100DDC0030B5194A194C1A4D07CA85B001AB83E8D6
:100DEC00070084E80700174A174B1360174A184985
:100DFC0011604FF480729C605C611C62DC629A80B2
:100E0C00144C154A1A600021FF2228460DF04CFFA5
:100E1C00FF22002120460DF047FF104B1049114ACC
:100E2C001D609C600B6008331360002001234B6035
:100E3C00536005B030BD00BFE0010100480E00203A
:100E4C00C0350020A40E0020740E0020A80E002037
:100E5C00C0FE0000C134002080841E00640E0020FF
:100E6C005C0E0020540E002008B50A4A0A4B136091
:100E7C004FF480729A80094A1A600021FF220848B8
:100E8C000DF012FFBDE808400648FF2200210DF0CE
:100E9C000BBF00BFA40E0020740E002080841E0027
:100EAC00C0350020C13400200A4A0B4808B50B4B52
:100EBC0013604FF480729A800C3B094ADA6000216F
:100ECC00FF220DF0F1FEBDE808400648FF2200218C
:100EDC000DF0EABEA40E0020C0350020800E0020CC
:100EEC0000127A00C13400202DE9F8431F46154644
:100EFC00044688460BF079FADFF8409022464146CA
:100F0C00064648460DF0C5FE394609EB04002A4654
:100F1C000DF0BFFE0A4B2C445C60DC60094B18687A
:100F2C00094B19688368094A1C68094BA04730466D
:100F3C000BF05DFA0020BDE8F88300BFC03500203F
:100F4C00640E0020A80E0020A40E00205C0E0020D1
:100F5C00540E00202DE9F0471F46044689461546DD
:100F6C000BF043FADFF850A004EB050842460646A6
:100F7C00002150460DF098FE4946224650460DF091
:100F8C0088FE0E4BC3F80480C3F80C800C4B186819
:100F9C000C4B196883680C4AD3F800800B4BC04784
:100FAC000B492A46214438460DF073FE30460BF0AF
:100FBC001EFA0020BDE8F087C0350020640E00202A
:100FCC00A80E0020A40E00205C0E0020540E002061
:100FDC00C134002080B582B000AF7860132216496E
:100FEC0016480BF0C8FA164B164A1A60144B1B68BD
:100FFC00002B03D114480BF0BEFA1AE0104B1B68FF
:10100C00124A132118460BF01BFA4FF40022796890
:10101C000F480BF00CFA0A4B1B680D4918460BF0E5
:10102C0009FA074B1B684FF0A862132118460BF006
:10103C0023FA0837BD4680BD15100100EC010100F4
:10104C00B80E00206CFE000010020100110001001F
:10105C00AC0E00202DE9F84300AF80460E46154635
:10106C0000F0C2F8C36804461BB943691A78002A19
:10107C0059D10023E3606368434556F8232009DB0C
:10108C00484B6361204600F095F84FF0FF30BD46A9
:10109C00BDE8F883511C616192F80090B9F12D0FF5
:1010AC00EED1911C61615178A1602D2904D1927807
:1010BC006AB901336360E3E749B93A4B6361494666
:1010CC0028460DF081FD0028DCD0C4F80890A168FA
:1010DC0028460DF079FDA36862693A2B01D01146C0
:1010EC0030BB127812B96268013262602268AAB110
:1010FC002A783A2A12D02C48026851070ED06D4635
:10110C0088B06A462949C2E90513032342F8103F07
:10111C0000234FF4C25102F015FBAD46204600F0FF
:10112C0049F83F20B3E75A1C42611B788360CEE735
:10113C0040783A280BD000232361137813B96368E5
:10114C0001336360204600F035F8A0689FE791F802
:10115C0000C062681348BCF1000F05D10132904504
:10116C00626004DD56F82210C4E90410E7E7606100
:10117C002D783A2D04D1204600F01CF8284686E73D
:10118C002268002ACAD0084802685207C6D06D46A9
:10119C0088B06A460649C2E90513032342F8103F9A
:1011AC006346B6E78F180100E40200202710010007
:1011BC003C100100074B02681A60074B42681A602A
:1011CC00064B82681A60064BC2681A60054B0269AE
:1011DC001A6070472C00002028000020C40E00204C
:1011EC00C00E0020BC0E00200048704710000020EC
:1011FC002DE9F04F91B08407009302F004030293A1
:10120C00C2F3C20303F10103DDF8688003920546C3
:10121C000E46059340F0BE81041D30B1072909D854
:10122C006FF01B0011B0BDE8F08F01F00706341D04
:10123C00C6F10806009B4FF00009591E4FF0040A36
:10124C004FF0FF330193CDF810904F46CB465346E9
:10125C000DB1009A22600598002800F3EB809A48A3
:10126C00009A824203D399488242C0F0E380039AE9
:10127C00A4EB050E92074FEA9E0000F106810F2F9A
:10128C0000F2B480002D00F0088107F140020DEB54
:10129C00020C019A0CF8200C0CF8102C049801305C
:1012AC000490EAE07A2860D84B280ED847285CD8FE
:1012BC0029282FD8252855D057D820287DD0233839
:1012CC00D0F1000B4BEB000B77E0A0F14C0CBCF118
:1012DC002E0F4AD8DFE80CF0714949494949494970
:1012EC00494949494C49494949494949495A494C4B
:1012FC004C5A5A5A714C6E497149184C18494983C9
:10130C00804C49494C49800000204FF0000B4FF0B5
:10131C00040A39E0A0F12A0C5FFA8CFC012202FAD3
:10132C000CFC1CEA0E0F48D11CF062502ED11CEAAA
:10133C00020B42D0013C5444CAF1000C04EA0C04E8
:10134C00002D61D0A3EB050CA444B4453FF668AF67
:10135C00002868D1042B47D158F8043B236004348F
:10136C0004232AE0019A013A01924FF0000B24E089
:10137C0011F8010C6C2834D111F8023C00206C2BB4
:10138C008346C4D14FF0080A5346D3E708F1070847
:10139C0028F007080734F8E802AB24F0070435B14D
:1013AC0006982044B0423FF63BAFC4E900AB08348A
:1013BC004FF0000B4FF0080A534611F8010F0028AC
:1013CC0078D0BBF1000F7FF46DAF2528F5D1019BD0
:1013DC00013301934FF0010B4FF0040AECE7584630
:1013EC0093E700208346A5E7082B02D06FF0150089
:1013FC0018E708F1070828F00708F8E80223C4E901
:10140C00002308340823D8E768B9042B02D108F16B
:10141C000408A4E7082BE9D108F1070828F007080D
:10142C0008F10808EDE7059A013A059258F8042BE3
:10143C0000920DE7039A900720D5A4EB050E4FEA16
:10144C009E004FF0010CBEF5007FCFD20F2FCDD8F0
:10145C00F5B107F140020DEB020EC0B2019A0EF885
:10146C00200C0EF8102CBCF1000F3FF417AF60F0FD
:10147C007F000EF8200C09F101090137C5F10802B3
:10148C00043406924FF6DA7E97E74FF0000CDAE759
:10149C00BCF1000F01D00136EFE7029802360028AC
:1014AC00EBD10098CDE906310DF09CFBDDE906315E
:1014BC000644E2E7631BB3F5806F97D245B9A6F1FA
:1014CC000804E018AEE600BFE0FD00004436010061
:1014DC00029A28609B082B709DF81030C2B1EB70FB
:1014EC0085F80290B9F1000F05D008A80022C5F1CB
:1014FC00010C97420ED1C5F101030DF120084FF0FC
:10150C00000A01930DF1300B574512D1601B89E68F
:10151C006B70E5E710F8013B190608D504EB0C0ECF
:10152C00B64503F07F033FF67BAE04F8013B013276
:10153C00DFE7B9F1000F03D098F90020002A17DB80
:10154C00029BD3B11AF80B2004F8012B0022019B4B
:10155C0098182044B0423FF663AE98F8000004F8A7
:10156C00010B0099039220460DF093FB039A14444F
:10157C000AF1010A08F10108C6E798F8002055F8AD
:10158C0022300093029B45F8223000980DF02AFB84
:10159C00421CDCE76FF00D0044E600BF2DE9F04F74
:1015AC0095B000AF0446D7F878B0BB61CBF3C0035D
:1015BC007A623B61396251B903784678807800EBE6
:1015CC00830020443B6A9E421AD8031B3B6294F86A
:1015DC0002A0E3787B615646BAF1000F02D01BF0F3
:1015EC00010F17D17B695BBB7B6A1BB1BA69396A86
:1015FC00204698473D6A28465437BD46BDE8F08FD3
:10160C00451C28460DF0EEFA3B6A013001332844A4
:10161C003B62D7E794F800806368FB617B6A4FEA12
:10162C008802FA6004EB8808002B40F005813D6AC3
:10163C00C1460AEB080300264B4552D1D04413E0B7
:10164C001BF0020FD0D094F800804FEA8803FB60A7
:10165C006368FB617B6A04EB8808002B7CD13D6AD4
:10166C00BAF1000F52D156461BF0050F0CBF0223E6
:10167C0001237B627B6908EB430A0BF002033B629C
:10168C00D045B8D018F8021B18F8013C54F8239038
:10169C00AD4B994502D3AD4B99453DD33B69002BDE
:1016AC0047D0F8690AF02DFF002842D0A8480368FB
:1016BC0013F0060F13D0E9468AB06A46A54B536166
:1016CC00FB69C2E906314FF400731384A24B42F854
:1016DC00103F00234FF4125102F034F8CD46023D76
:1016EC00CEE719F8012B7B6254F822000DF07AFA40
:1016FC00FA6F7B6A01303AB1D7F8802096423EBF30
:10170C00FA6F22F816000136054495E71BF0040623
:10171C001CBF7E6AD044A7E73B6923B1F8690AF085
:10172C00F0FE0028C2D11BF0010F05D17B6AED1A27
:10173C00A6E73B6A002BA3D048460DF053FAFB6F8B
:10174C0043B1D7F880309E423FBFFA6F431C22F85A
:10175C0016300136054493E7BAF1000F71D01BF037
:10176C00040671D0D146002607F14000524641468E
:10177C000DF08FFA7B695B00BB607B69D04408EB92
:10178C0043037B610BF002037B607B6998455DD161
:10179C002378FB6163781BF0020F06EB03020CBF8E
:1017AC004FEA590100211BF0010FD2B240F09D808D
:1017BC001BF0040F14BF4846002094F802B094F8B4
:1017CC0003803B616270A070E170BA69F9687B6A52
:1017DC0020469847051EFFF60EAFFB6923703B6948
:1017EC00637084F80380BA697B6A84F802B0494656
:1017FC0007F140009847B0F10008C0F2A3803B6AA3
:10180C00BA697869A3EB0A01FB68C91ABB68C91AE3
:10181C007B6A98470028C0F2A180A84408EB000519
:10182C004FF0000B07F1300AB34560D30021BA69C1
:10183C007B6A08469847DEE64FF0000907F1300056
:10184C0094E75646D14695E7B14693E718F8021B44
:10185C003D4A18F8015C54F82530934202D33B4AB8
:10186C0093421CD33B6923B1F8690AF04AFE002865
:10187C008BD17B68F3B909F1280207F128000244E7
:10188C0009F1010302F8101C07F1500252FA83F31C
:10189C0009F102095FFA89F903F8105C75E73B69F5
:1018AC002BB1F8690AF02DFE00287FF46EAF1BF007
:1018BC00010F09D006F1280207F12801731C5618F4
:1018CC0006F8205CDEB260E71BF0040F3FF45DAF5E
:1018DC0009F1280207F1280109F1010302EB0109C2
:1018EC0009F8105C5FFA83F94FE7002065E71BF8F5
:1018FC000A3087F82F3054F82390FB6FFBB133F884
:10190C001B80BA697B6A012107F12F0098470028D8
:10191C0024DB0544B8F1000F06D148460DF062F9FE
:10192C0000F101081FFA88F8BA697B6A41464846FB
:10193C009847002812DB05440BF1010B74E7D7F82C
:10194C007C80DEE7454656E6E0FD000044360100AB
:10195C00C4020020651001000400000105464AE69F
:10196C00014B1860704700BF3000002030B587B0C5
:10197C000025CDE903010446009503A9054805950A
:10198C0000F02EF9DDE904309842B8BF255407B0B9
:10199C0030BD00BF5DC500002DE9F047058B044646
:1019AC002807904611D4022905F0070540F0CD8098
:1019BC0020460AF004FE78B10138218B042811D896
:1019CC00DFE800F0C3106D85950001290CBF45F0D0
:1019DC00100545F02005258388F31188BFF36F8F20
:1019EC00BDE8F08701F0070AAA4500F0A6800027A1
:1019FC00B9463E46A368002B00F0BD8041F00801BB
:101A0C00218388F31188BFF36F8FA168002900F040
:101A1C00BB800D68002900F0B780D1F804803346F4
:101A2C0052462046C047002D76D02B6829461D46CD
:101A3C00F0E701F007035A1F012A1BD8002221F0FE
:101A4C000701062B276889B2C4E9002209D13B465D
:101A5C0003E0628B013262831B68002BF9D141F0E9
:101A6C000201218320460AF0AAFD00287BD041F018
:101A7C00200177E0042B0AD121F0070189B22183E0
:101A8C0020460AF09CFD10B141F020012183218BEE
:101A9C0001F0070AAA4550D00027B946AAE72369E6
:101AAC0021F0070141F00601062DD3F800902183A7
:101ABC002DD1B9F1000F40D041F00801218388F3FA
:101ACC001188BFF36F8F3A492046C84729E021F0AF
:101ADC000701236941F0040189B2042DD3F8049065
:101AEC002183E6D000273E464FF0040A82E721F01E
:101AFC000701236941F0050189B2052DD3F808903F
:101B0C002183D6D000273E464FF0050A72E7002706
:101B1C003E464FF0060A6DE72B4687E7B9F1000FFA
:101B2C00D1D14FF02003EFF3118883F31288BFF368
:101B3C006F8F238B23F008032383258BEA062ED586
:101B4C0025F01003238305F007056669218B002E11
:101B5C00BFF66FAF00232768C4E9003321F00701FB
:101B6C0041F001012183218B01F0070AAA454FF0B6
:101B7C0000097FF43FAF002F9BD041F00801218377
:101B8C0088F31188BFF36F8F002FC7D03D6839469B
:101B9C003346524620460AF03EFD2F46F4E7AB068C
:101BAC007FF51AAF25F02003238305F00705FFE628
:101BBC004FC6000010B5094C0A44914200D110BD2B
:101BCC0011F8013B584003090001E35CC0B24340EB
:101BDC0018091B01205CDBB25840EEE7191101001B
:101BEC002DE9F04F9FB08246039116461C46002506
:101BFC00307810B9284600F08BBD731C252806934D
:101C0C0006D00399D0470028C0F2828501352BE21B
:101C1C001822002110A80DF047F87378252B7DD0E1
:101C2C000023701C98469E469C461F46014610F8A1
:101C3C00012B2B2A00F0A18000F29880202A00F0C2
:101C4C009F80232A00F09F802BB19DF8483043F0F1
:101C5C0040038DF84830B8F1000F05D09DF848309E
:101C6C0043F020038DF84830BEF1000F05D09DF8ED
:101C7C00483043F010038DF84830BCF1000F05D00C
:101C8C009DF8483043F008038DF848302FB19DF88B
:101C9C00483043F004038DF848309DF8483003F089
:101CAC004400442803D16FF386138DF848309DF817
:101CBC0048302A2A43F080038DF848307FD19DF8B4
:101CCC00492042F001024B1C8DF849201A782E2A2B
:101CDC009DF849200CBF0121002161F341028DF8D0
:101CEC00492078D15A782A2A6ED0013300224FF03D
:101CFC000A0C194611F8010BA0F13007092F40F21C
:101D0C00AF809DF848101492C1F3400040EAD270A5
:101D1C000A4660F341028DF848205CE0B21C069242
:101D2C008DF84B309DF84930DF0740F1548154F861
:101D3C00042B0492002A08DA9DF8482042F0040291
:101D4C008DF84820049A52420492580740F14B8176
:101D5C0054F8047B002F80F24A819DF849306FF3D0
:101D6C0041038DF849304FF0FF3740E12D2A0DD05B
:101D7C00302A7FF469AF012358E74FF0010C55E787
:101D8C004FF0010E52E74FF001084FE701274DE7E6
:101D9C000EFB0272303A0346184610F8017BA7F18D
:101DAC00300CBCF1090FF3D999428FD09DF8481033
:101DBC001392D20F62F341018DF8481086E70B465F
:101DCC0000224FF00A0EE7E79DF8492042F004028A
:101DDC008DF8492002331A786C2A61D045D8682ACC
:101DEC004BD06A2A65D04C2A6BD013F8012B069382
:101DFC00782A8DF84B2000F2AD806D2A6ED8692AB6
:101E0C0000F2A880572A00F28880412A04D0A2F15F
:101E1C004503022B00F29E809DF84A3002F0DF024F
:101E2C000421A2F1410861F30203D8F100029DF8EC
:101E3C0049108DF84A3042EB080262F3C7110A06CA
:101E4C008DF84910CBB200F1C48003F07802182A47
:101E5C0040F0AE806FF3C6038DF8493000239DE04F
:101E6C000CFB0202303A0B4643E7742A25D07A2A3F
:101E7C00BBD19DF8492006210CE05A78682A9DF8C0
:101E8C00492006D1012161F3C6028DF849200233A5
:101E9C00ABE7022161F3C6028DF849200133A4E7B8
:101EAC005A786C2A9DF8492001D10421EBE70321D3
:101EBC00F0E79DF849200521ECE79DF84920072122
:101ECC00E8E7BDF8482022F4F04222F0020242F486
:101EDC00804242F00202ADF84820DFE76E3AD3B2FE
:101EEC0001229A4040F282431A429DF8493038D17F
:101EFC0012F0240F60D1D1072CD59DF84A2003F0A5
:101F0C007803A3F1400C032161F30202DCF100031E
:101F1C008DF84A2043EB0C0340E0A2F15801C9B202
:101F2C00012000FA01F111F4624F7FF475AF40F615
:101F3C00010319429DF8493019D111F4043F09D01D
:101F4C009DF84A2060F3020203F07803402B8DF8D1
:101F5C004A2083D19DF8483043F001038DF8483076
:101F6C007CE79DF84A20022161F30202ECE79DF820
:101F7C004A10022003F0780360F30201402B8DF825
:101F8C004A1002BF9DF8481041F001018DF848102D
:101F9C00632A7FF463AF003B18BF01239DF84820F0
:101FAC00C2F340010B4363F341028DF84820B9E6BC
:101FBC0013F0380FCED151E79DF84A20032113F0CE
:101FCC00780F61F302028DF84A2014BF012300231D
:101FDC00E4E70123E2E79DF94820002AB4BF139AF5
:101FEC004FF0FF32B0E699077FF5BDAE149F9DF818
:101FFC0049100023CDE913339DF84A3003F0070252
:10200C00042A07D18A0705D49DF94920002AACBFC0
:10201C0006270D2703F00703012BC1F3C30133D1AE
:10202C00CB1E042B04D8DFE803F021464621210007
:10203C00236801294FEAE372CDE910321CD19DF9D6
:10204C004030DA17CDE9103204349DF8483007934C
:10205C009B0750D0069B0399324650460AF00CFC65
:10206C000028C0F255830544069EC1E554F8043B94
:10207C00DA17CDE91032E8E70229E5D11AB243F3B9
:10208C00C033CDE91023DFE7022B24D1CB1E042B68
:10209C0004D8DFE803F0181010181800012954F8C0
:1020AC00043B4FF0000214D00229CDE91032CCD100
:1020BC009BB21093C9E7073424F00704F4E8022319
:1020CC00CDE91023C1E754F8043B1093002311937E
:1020DC00BBE7DBB2CDE7042B08D1073424F00704AF
:1020EC00D4E900230834CDE91023AEE7032BACD19F
:1020FC0054F8043BDDE79DF84BB0BBF1780FB3D837
:10210C00BBF1570F49D8BBF1250F00F09180BBF103
:10211C00240FA9D9BBF1410F03D0ABF14502022A20
:10212C00A2D8DDE91012002AC0F23681079B1807ED
:10213C0000F13581C3F300194FEA4919C2F30A5073
:10214C00C2F31302002840F02D8151EA020614BF9D
:10215C0001260026D20242EA5152C902BBF1460FB7
:10216C0040EA010E42EAE07C08BF4FF0660B5EEAE3
:10217C000C0CCDE90C1200F09981002E40F044813A
:10218C000D9A42F00042A0F2FE380D920020DDE9DB
:10219C000C1206464FF0050C50E1ABF15802202A08
:1021AC003FF662AF01A050F822F000BF43230000BD
:1021BC0075200000752000007520000075200000BF
:1021CC0075200000752000007520000075200000AF
:1021DC002F21000075200000C7220000DB22000028
:1021EC002F2100002F2100002F210000752000005E
:1021FC00DB22000075200000752000007520000017
:10220C00752000007D2300004323000049230000BB
:10221C00752000007520000043220000752000008E
:10222C0043230000752000007520000043230000AC
:10223C0003995846E6E4002F109E3ADB39463046A7
:10224C000CF0D7FC3718002E3FF40EAF4FF00009FE
:10225C009DF84A3013F01002059200F04E820230C5
:10226C0013F04003DDF84C80089318BF149BCDF895
:10227C001C80404418BFC018049B002B40F35882AC
:10228C009DF848201B1A04935307C2F3800B00F1EE
:10229C004F82500640F13F82B9F1000F07D00399ED
:1022AC004846D0470028C0F233820135D946302247
:1022BC0032E230460CF096FCC4E7109B8DF85C3093
:1022CC004FF000090DF15D0717AE0120C0E7079B29
:1022DC001E0758BFC3F30019DDE9102354BF4FEAA2
:1022EC0049194FF02B09002B06DA524263EB4303DA
:1022FC00CDE910234FF02D090DF175030093DDE9A5
:10230C00100117AB12AA0AF071FA0646002F0CDB6B
:10231C009DF848200DF175039B1B6FF386129F42AD
:10232C008DF8482001D9FB1A1393002E3FF49CAE74
:10233C000DF1750756E04FF00009DDE71098002805
:10234C0000F0D6810DF17503009312AA17AB002192
:10235C000AF04CFABDF84A3003F0EF0343F4F043B3
:10236C0043F010030646ADF84A304FF00009CDE7B4
:10237C00109B07293FF678AEDFE801F00C04060C41
:10238C0008080C0C1D706FE61D806DE6EA17C3E99A
:10239C00005269E61D6067E64FF02D09CEE64FF05E
:1023AC002B09CBE640F2FF76B0422AD10A43ABF1BF
:1023BC0041031ED11A2B35BF492369234E216E21AF
:1023CC0034BF462266228DF85C309DF848308DF87B
:1023DC005D106FF386138DF85E208DF848300DF18B
:1023EC005F0717AEB81BB9F1000F3FF431AF0130E6
:1023FC002EE7192B8BBF6E234E23612141211A46E8
:10240C00E1E70026A6E6013849185241002AFADA1B
:10241C00CDE90C12B4E6490841EAC2715208B2F196
:10242C00333F404608F10108F5D20CFB02FEA1FB3C
:10243C000C1200F102087244013E012018F1020F47
:10244C00E9DB08B1CDE90C12B8F1000FDDE90C2184
:10245C002FDCC8F1040008F11C08A0F1200CC240CC
:10246C0021FA00F301FA08F80BF0DF0042EA080247
:10247C0021FA0CFC472842EA0C0208933AD1F31CCF
:10248C0001DBB7422BDAABF10203002F5FFA83FBBF
:10249C007FDD9DF84800800607F1FF3779D43B1E9D
:1024AC0018BF0123059307F101082DE04FF0000838
:1024BC006CE6023241F100010CA8CDE90C210AF0C6
:1024CC0066F9DDE90C2108F1FF3801369218494113
:1024DC00002908F1FF38F9DACDE90C21B4E79DF8B1
:1024EC0048309906A7EB060751D43B1E18BF0123B1
:1024FC00059304E00023BBF1660F0593D3D117EBD2
:10250C0006084FF0660B46D4B8F1100FA8BF4FF079
:10251C00100810200B904FF000610020CDE90E0147
:10252C00DDE90E03B8F1000F38D10899121841EB10
:10253C000301B1F1805F3FD2CDE90C21079BBBF1C8
:10254C00660F03F0200240F0B280002E3FDC3021F9
:10255C008DF85C10002A63D1002F40F3A8812E2245
:10256C008DF85D2086B17242BA42A8BF3A469DF8FA
:10257C004A101392002AA7EB0207D4BF00220122B3
:10258C0062F345118DF84A100DF15E0837E0002317
:10259C00AEE7002386E74FF00008BAE7400840EAB0
:1025AC00C3705B08CDE90E030EA8099208F1FF3841
:1025BC000AF0EDF8099AB3E7520842EAC1720CA886
:1025CC004908CDE90C2101360AF0E1F8B6E70DF126
:1025DC005C080B99002909DD0BA90CA807920AF0DD
:1025EC00EEF8013E08F8010B079AF2D113969AB94E
:1025FC00002F40F35A812E2108F8011B0026002FD2
:10260C0017DD0B9A002A14DD0BA90CA80AF0D7F8D9
:10261C00013F08F8010BF2E72E2208F8012BEDE739
:10262C002E228DF85D20002EAED0002F9BDC0DF1FC
:10263C005E08059B002B4ED1149747460BF0DF022A
:10264C00452A23D1002EBABF76422D232B23632E8D
:10265C00C8BF64217B70D1BFBA1CB6FBF1F3FA1C66
:10266C0003F13000C8BF01FB13664FF00A01C8BF6D
:10267C00B87087F800B0B6FBF1F3174603F13000E1
:10268C0001FB1363303307F8020B5370139B002BC1
:10269C002CDC149B002BD4BF002301239DF84A2073
:1026AC0063F3861200238DF84A203B7099E60BA940
:1026BC000CA807920AF083F8079A8DF85C00302872
:1026CC0018BF06F1FF3612B9002F40F3F0802E220E
:1026DC008DF85D2058E7474608F1FF3817F8012CB4
:1026EC00302AF8D02E2A08BF4746A7E70123D5E7A2
:1026FC00704F81467E1F0520AAE51A0748BF01309E
:10270C00AEE5104609920399D0470028099A05DADC
:10271C001FB0BDE8F08F2022DDF810B0594600291B
:10272C000BF1FF3BEDDC049BCDF810B02B445D1A94
:10273C00B9F1000F05D003994846D0470028E7DBD4
:10274C000135089B002B75D09DF94930002B28DBF7
:10275C00B3469BF80000A0F13003092BD9460BF1CE
:10276C00010B3FD99DF84A30AE1B99064E4407D455
:10277C004246002A08F1FF3839DC079B33449E1A85
:10278C0099F800002E280AD10399D0470028BFDB06
:10279C00B8F1000F06F101062FDC09F101094D46D5
:1027AC0035E0B14699F800007028C84609F10109D6
:1027BC0013D1AE1B149D46443544AB1B002B31DCAE
:1027CC0003993B46424650460AF056F800289FDBD8
:1027DC003044049E0546064462E00399D047002825
:1027EC00E0DA95E70399D0470028B2DA90E703992D
:1027FC003020D0470028BBDA8AE703993020D04735
:10280C0008F1FF38C2E70399D047002880DB28780D
:10281C00A0F13003092BA84605F10105F3D9A6EB6D
:10282C000906C7E703993020D0470028FFF670AFA0
:10283C000136C2E79DF84A30DA0601D41B0706D5EB
:10284C0003993020D0470028FFF662AF0135059B75
:10285C003BB103999DF84B00D0470028FFF658AFC9
:10286C000135A84406E003993020D0470028FFF634
:10287C004FAF0135A8EB0503002BF4DC03993B4665
:10288C003246504609F0F8FF0028FFF641AF2844C5
:10289C009FE703992020D0470028FFF639AF013578
:1028AC00731B002BF5DCFFF7DFBB1646C1E60DF101
:1028BC005D08BEE62E11010008B504464FF020025B
:1028CC00EFF3118382F31288BFF36F8F06F07EFF54
:1028DC00204604F051FE034809F04DFE03F0B2FF10
:1028EC00FCE700BF2F11010006F0BCBF2DE9F74338
:1028FC000F4606460821C06ADFF850900AF076FBB6
:10290C003C68241A80463C6004EA0905AC4203D8B2
:10291C00002003B0BDE8F08308236A462146304608
:10292C000AF0D4FA0028F4D1694630460AF068FB64
:10293C0040B1BDF80230BDF804203C6005EA090541
:10294C0013441D44A4EB0804E0E700BF0000FFFFA4
:10295C002DE9F04F8FB0044600AF00F1140840464B
:10296C000CF031FFA06A8368DB689847E062A8B975
:10297C00A84803685D0706D16FF0150528463C375B
:10298C00BD46BDE8F08FA44B7B6302233B6307F18C
:10299C0030024FF482510AF026FBEDE7A06A8368FF
:1029AC00DB6898470368013B1F2B05D999480368DE
:1029BC005C07E1D0994BE7E7A06A216807F11402A4
:1029CC000CF0B1FB28B1934803685907D4D0944B51
:1029DC00DAE7A5892DB1BB69B5FBF3F203FB125500
:1029EC002DB18C4803685A07C6D08E4BCCE7E389CF
:1029FC00012B05D8874803685B07BDD08A4BC3E71A
:102A0C00E36A3D6093F804A04FF0FF334FF0FF32C0
:102A1C00404608F0F3FAE06A08210AF0E7FAA94602
:102A2C000646E3891FFA85FB5B4508D8E3894B45CD
:102A3C0023D1404608F05CFB6FF02C059EE7A18982
:102A4C002B04891B13FA81F1524608232046396066
:102A5C000AF081FA78B1394620460AF045FA09F1B4
:102A6C00010939680823524620461FFA89F90AF0F1
:102A7C0072FA0028DAD00135D3E75B450BD13968FF
:102A8C0008235246891B20460AF065FA18B93946C4
:102A9C0020460AF029FA39462046FFF727FF05465B
:102AAC0018B1404608F024FB68E73B6863604FEAC6
:102ABC0013494FEA0949C4F80890D4E90113994223
:102ACC000FD308233A1D20460AF000FA05460028C9
:102ADC00E7D13B1D13F8012B924545D10135082D4B
:102AEC00F8D163681B0C1B04394620463B600AF086
:102AFC00FBF9A3893968524620460AF02CFA051EC8
:102B0C00CFDB636800F0A68003EB06094FF6FF7A73
:102B1C00A389C7F800901FFA89F29B1B9A423DD3F8
:102B2C0000223C48036803F00703002A50D0022B14
:102B3C0009D93E4B7B6302233B6307F130024FF410
:102B4C0086510AF050FA63681B0C1B043946204668
:102B5C003B600AF0C9F9396820460AF021FA0546AB
:102B6C00002D00F095809CE7391D20460AF048FAAC
:102B7C00626810B9921B62609FE73D89F988E06A30
:102B8C00C4F8089029440AF031FA48449042A060F5
:102B9C00F0D1002DEED06FF01C05D2E0082307F128
:102BAC000C02494620460AF091F9054600287FF4AC
:102BBC0078AF07F10C0120460AF022FA20B1BB894C
:102BCC00534501D13B8A0BB1B144A1E70122A8E7DF
:102BDC00022B09D9164B7B6302233B6307F13002AE
:102BEC004FF486510AF0FFF9616820460AF0D8F9D3
:102BFC00054600287FF455AF63680E4AA18913403F
:102C0C000B44A3EB460363601340A36020460AF019
:102C1C00D9FAA4E7E00200206C1101008E1101002A
:102C2C00AB110100C3110100D7110100FA11010011
:102C3C000F1201000000FFFF5B1A524620460AF0FB
:102C4C008AF9051EFFF62DAF08D0E26AA368126858
:102C5C001344A360D4E901318B42EDD86168A38998
:102C6C0001EB46029A427FF47BAFDFF8E490A36855
:102C7C0001EA090293423FF473AF20460AF090F93F
:102C8C00054600287FF40DAF636803EA0903A360CF
:102C9C00A389A288A3EB46039A424ED0404608F083
:102CAC0027FADFF8B08001232374D8F8003003F042
:102CBC000703022B3FD96D4688B0E189A3896A4688
:102CCC002548D3610426C2E9050142F8106F4FF480
:102CDC00035140460AF087F9D8F8003003F0070397
:102CEC00022BAD4627D988B063686A461B495161EF
:102CFC00190C9BB29161D3614FF4035142F8106FE0
:102D0C0040460AF070F9D8F8003003F00703022BA4
:102D1C00AD4610D988B0A3686A4611495161190CA7
:102D2C009BB29161D3614FF4035142F8106F40464E
:102D3C000AF059F9AD46002520E620460AF02DFA96
:102D4C000546404608F0D4F9002DAAD016E600BF7F
:102D5C000000FFFFE0020020361201004D120100BE
:102D6C005F1201002DE9F04F1D46037C8DB0044627
:102D7C00894690469BB9684803685B0705D16FF09C
:102D8C000C0630460DB0BDE8F08F644B0B930AAACD
:102D9C0002234FF482510A930AF025F9EFE7C26A35
:102DAC00082110460AF022F92946824610460AF0FC
:102DBC001DF9A389A3EB8A03AB420746C0F0A98097
:102DCC001DB1B8F1000F00F0A4806368039304AA4E
:102DDC0003A92046DDF80CB00AF04AF90646002893
:102DEC00CFD1BDF810304B4505D06268039B9A4299
:102DFC00EDD1E5B9C5E704A920460AF001F9002890
:102E0C00F3D0BDF81200BDF8143075B1AB420ED141
:102E1C004FEA1B41090401442B46424620460AF066
:102E2C0070F8002803DC0646ABE7002BA9D0002F76
:102E3C003ED104F1140301934FF0FF324FF0FF33F6
:102E4C0004F1140008F0DAF8DFF8D4B0E3899E42FC
:102E5C005CD0D4E90123F9188A422CD3ADF81A308E
:102E6C0006A8FF238DF81E30ADF81890ADF81C5055
:102E7C000AF0B0F8A1682B46424620460AF042F907
:102E8C0029468246E06A0AF0B1F8A2680244A260C0
:102E9C00BAF1000F07D106A920460AF06DF90028F7
:102EAC0014BF8246AA46019808F022F9564668E7F4
:102EBC005744BFB2BDE70821E06A0AF097F84FF615
:102ECC00FF73ADF818300023ADF81C301318ADF8B3
:102EDC001A30A38902EA0B021A44101A606006A881
:102EEC000AF078F806A920460AF046F9211D20467A
:102EFC0009F0FAFF636803EA0B03A36020460AF0AB
:102F0C0061F982460028CED101369FE76FF01B0A8B
:102F1C00C9E76FF0150634E7E002002058110100F4
:102F2C000000FFFF2DE9F0471E4688B0037CBDF87A
:102F3C00409004460F46904693B9314803685B07AE
:102F4C0004D16FF00C0008B0BDE8F0872D4B07934F
:102F5C0006AA02234FF4825106930AF044F8F0E7D4
:102F6C00C06A08210AF042F8A389A3EB4003B342DC
:102F7C0043D3D4F804A0CDF804A000254D45514608
:102F8C00DDF804A009D9636853451ED1BDF808309B
:102F9C00BB421AD06FF00100D5E702AA01A9204666
:102FAC000AF066F80028CED1BDF80830BB4206D135
:102FBC0002A920460AF024F808B10135ADB26268C6
:102FCC00019B9A42DAD15146E0E7BDF80C30002B58
:102FDC00E0D0A945DED8BDF80A00090CB3424FEA8F
:102FEC00014128BF334601444246204609F06EFF9A
:102FFC000028A8D1BDF80C00A5E76FF01500A2E7DA
:10300C00E0020020581101002DE9F047DFF858804C
:10301C00044607464FF0010914B93846BDE8F0875D
:10302C0094FAA4F5B5FA85F509FA05F32E0108EB27
:10303C0005156FEA030A24EA03042B7B002BEBD063
:10304C0058F806301B694BB946440422736828466D
:10305C00196807EA0A0700F039FBDDE728469847AC
:10306C000028D9D1F0E700BF2C01010030B5104980
:10307C00104889B000220CF0FDFC0F4D0F490022C6
:10308C000023CDE9062300240E23CDE90334CDE93A
:10309C0001440B4B00944FF44072284607F006FF96
:1030AC000849284607F040FE204609B030BD00BF55
:1030BC00D53000002008002060030020083E0020CE
:1030CC0001340000C3160100014808F04FB800BFDE
:1030DC00300300202DE9F04780461F480F460AF0C8
:1030EC0059F90646002830D000252846BDE8F0875F
:1030FC00237B73B12368DB680BB1204698472368A8
:10310C001B69D3B9636804221968204600F0DEFA03
:10311C00013610344C45EBD3B8F1000FE5D0002D3F
:10312C00E2D02846FFF770FF0546002FF7D00021AC
:10313C004FF4A47008F04EFBF1E7204698470028A6
:10314C00E0D00AFA06F31D43E2E7044CDFF81090D6
:10315C0005464FF0010ADDE7D80E00202C010100D6
:10316C004C010100014B53F820007047280301006B
:10317C0008B5034608462BB1044A136000F084FDE1
:10318C00002008BD6FF01500FBE700BF34000020E5
:10319C0010B5044C237813B9034807F0E7FF01235B
:1031AC00237010BDBF3600203003002010B504463C
:1031BC0008480AF0EFF85CB1BFF35B8F064B53E89D
:1031CC00001F013943E80012002AF8D1BFF35B8FCE
:1031DC0010BD00BFD00E0020D40E00200020064BE6
:1031EC00BFF35B8F014653E8000F43E80012002A3F
:1031FC00F9D1BFF35B8F7047D00E002070B5FFF78D
:10320C00EDFF084C084E0546B44200D370BD636810
:10321C005B792BB123685B6813B12946204698472C
:10322C001034F1E72C0101004C01010010B5044CE5
:10323C000449204609F0D9FC034B1C6010BD00BFAB
:10324C007002002014030100C80E0020094A0A482D
:10325C0008B500231370094A1360094A4FF4004162
:10326C001360FFF785FFFFF7E1FFBDE8084000F0B2
:10327C0085B900BFC03600209DD30000D00E0020C1
:10328C00D40E0020014600220148002309F0CEBCD8
:10329C0070020020014809F067BD00BF70020020D9
:1032AC00024B0146186809F0B1BD00BFC80E0020E2
:1032BC00014809F0E7BD00BF70020020F8B5354B9E
:1032CC001878002864D0FFF7E5FF044690B1BFF3EF
:1032DC005B8F314B53E8001F013943E80012002A81
:1032EC00F8D1BFF35B8F2D4D2D4EB5422DD320461B
:1032FC00FFF7D6FF2B4B2C4C1B68002B19DD0CF069
:10330C00B3FB4FF47A72A0FB020302FB0131C30B37
:10331C00D4E9002043EA41439B1A4FEAD13140F2F1
:10332C00E93261EB0001934271F1000101D3FFF727
:10333C0065FFD4E9003213F57A7342F10002C4E957
:10334C000032BDE8F840FFF7B3BF6B685B793BB167
:10335C0021784B0706D52B6821461B6828469847D1
:10336C001035C2E72388626813F4E07FC3F3821739
:10337C00C1F3C201EFD0002AEDD00C4BD21A42F3AC
:10338C008F020123284600F0BBF9B842E8D3E2E7EC
:10339C00F8BD00BFBF360020D40E00202C01010068
:1033AC004C010100D00E002018080020B4020020AF
:1033BC0070B50D4D297861B90120FFF78BFE0B4CD0
:1033CC000B4EB44206D3FFF779FF0028FBD1012343
:1033DC002B7070BD63685B791BB1236820469B68BA
:1033EC0098471034EDE700BFC03600202C010100D7
:1033FC004C01010000212DE9F0470846FFF76AFE59
:10340C00044648B340F267684FF0000908F0FCF935
:10341C001A4B186030B11A4B1B68092B02DD194886
:10342C0007F0A4FE184FDFF85CA0002544B120463D
:10343C00FFF7EAFD044618B94FF0FF384FF0FF399B
:10344C00FFF73CFF064628B9B5B942464B465046F5
:10345C0007F0B2FE3546E9E74FF0FF384FF0FF3981
:10346C00D4E72B689B691BB100221146284698476C
:10347C001035BD42F5D3E8E7044DFAE7CC0E002039
:10348C00D40E0020300300204C0101002C0101005F
:10349C0013B5184809F07EFF174B1B787BB14FF022
:1034AC002003EFF3118483F31288BFF36F8FFFF7C0
:1034BC0005FF84F31188BFF36F8F02B010BD0F4B63
:1034CC001B68002BF9D050B900220023CDE9002352
:1034DC000B484FF40042002308F0DEFBEDE70A280E
:1034EC00EBD107480CF0D2FA064802B0BDE8104008
:1034FC0007F03CBED40E0020C0360020CC0E0020BD
:10350C00200800203003002010B5064B1B68044631
:10351C0098472146A060044809F006FCBDE810401D
:10352C00FFF7B6BF340000207002002008B50A4631
:10353C000146024809F0B3FC002008BD70020020CF
:10354C000146014809F0B6BC70020020024B03484A
:10355C00C01AC008704700BF5C0001002C010100BC
:10356C00044A054B9B1AB1EBD30F34BF52F8310010
:10357C00002070475C0001002C0101000B480C4B33
:10358C0030B51B1A0B4CDB0800210430994200D1DA
:10359C0030BD10F83120256802F0070225F0070530
:1035AC002A4344F8042B0131F0E700BF5C00010012
:1035BC002C010100B4020020F8B50B4F0B4DED1B94
:1035CC000646ED080024AC4202D14FF0FF3409E06E
:1035DC0057F8340008B90134F5E731460BF012FB0B
:1035EC000028F8D12046F8BD5C0001002C01010038
:1035FC002DE9F843884615461E4698B9224FDFF848
:10360C008C90044609E0384633462A464146FFF77B
:10361C00EFFF844238BF044610374F45F3D32046A2
:10362C00BDE8F8831A4B1B4AD21AB5EBD20F28D23D
:10363C0003EBC5031C79B44228BF34464368164ECD
:10364C001A7956F8253002EB42020721914023EA01
:10365C00010304F0070101FA02F2134300210322D3
:10366C0023FA02F000F00700814202F1030238BF96
:10367C0001461E2AF4D123F007030B4346F82530EC
:10368C00CDE70024DAE700BF2C0101004C0101005A
:10369C005C0001002C010100B4020020F8B5094DBA
:1036AC00094BED1A06460F46ED080024AC4200D338
:1036BC00F8BD002122B23B4630460134FFF798FF9B
:1036CC00A4B2F3E72C0101005C00010038B50B4BF0
:1036DC00C31A0D461B11114642680133137143681E
:1036EC0004469971FFF7DAFF63681D606368012275
:1036FC005A71BDE83840FFF74BBD00BF2C010100EB
:10370C000146184663B1002A14DB4B680A491B7941
:10371C0051F8220003EB4303D84000F00700704738
:10372C00064B0749C91AB2EBD10F04D203EBC20303
:10373C001879704704207047B40200205C00010027
:10374C002C0101002DE9F04F8FB004AFC1F34A28D2
:10375C00B8600D4691467B600C0DB8F1000F67D038
:10376C00002607F114034FF0040B4FF00A0AC7F8B8
:10377C000C80C7E907667E620193CDF808B0CDF8DE
:10378C0000A007F11C03F96832464846FDF706FF16
:10379C00B0F5006F034620D32A48036813F0060FD8
:1037AC0017D06C468AB0D9F8041004AB264DC3E987
:1037BC00055140F2FF71D9611A464FF4007119841A
:1037CC00224B42F8103F4FF412513346FFF7BAFF29
:1037DC00A5462C37BD46BDE8F08FC0F30A0804F1AE
:1037EC001700184420F0070080083B60FFF74AFDE3
:1037FC0068F35325044690B13B68154AC7E908366F
:10380C0000F1100107F11403F961CDE900A3CDF823
:10381C0008B0F96807F11C034846FDF7BFFE68F3D2
:10382C0053257B68B9682A46204609F0F5FDD0E798
:10383C0004F1170020F007008008FFF723FD044671
:10384C00EDE700BFE8020020841201000400000133
:10385C00F9D300002DE9F04F87B0DDE91269DDE9FD
:10386C00105A04460F4693469846A6B31021CDF83D
:10387C000090334652460020CDF81490FDF7B8FC6A
:10388C00014605F117000844144B039104F007049A
:10389C000BF0070BE40020F0070003EA412344EA95
:1038AC008B1480081C43FFF7EDFC44EA05540546D5
:1038BC0040B13EB10399CDF80090334652461030DA
:1038CC00FDF796FC434622463946284607B0BDE82C
:1038DC00F04F09F0A1BD3146D3E700BF00FE0F0049
:1038EC000EB403B503AB014653F8042B0448019303
:1038FC0009F0B8FD02B05DF804EB03B0704700BFEF
:10390C0099D40000CA0605D48B064CBF0249034962
:10391C00FFF7E6BF704700BF8E180100831301004C
:10392C002DE9F04F89B09B469DF848300493DDE9B2
:10393C0013930593049B0692DDE9157604460D4618
:10394C00002B00F0878006F00803079309F040FD78
:10395C0006F0020A024600284BD086492046FFF7A3
:10396C00BFFF8046BAF1000F08D016F0440F42D1C9
:10397C0081492A462046FFF7B3FF804406F0010335
:10398C005BB17E4B049A7E4953F822207D4B204636
:10399C00002A08BF1A46FFF7A3FF06F00803002B06
:1039AC0055D0794B049A794953F822202046FFF7D9
:1039BC0097FF0546069B2BB175491A462046FFF723
:1039CC008FFF0544BBF1000F05D072495A462046C3
:1039DC00FFF786FF05444544B9F1000F49D1002F8C
:1039EC004FD1F30700F1C08031462046FFF78AFF24
:1039FC00B4E08046B6E7684B18680028BDD0674B2A
:103A0C004FF47A7E1B68B5FBF3F54FF46162B5FB9E
:103A1C00F0F300FB1355B3FBF2FA0EFB05F502FBBA
:103A2C001A323C21B5FBF0FCB2FBF1F300FB1C5548
:103A3C0001FB13220EFB05F50092B5FBF0F558497E
:103A4C00CDE901C552462046FFF74AFF95E706F03F
:103A5C000805AFE7BBF1010F06D1B9F1000F64D136
:103A6C00002F7BD000250CE0B9F1000FF8D04D48A9
:103A7C005CE04D484D494B46224608F011FD002FA5
:103A8C0068D0DFF82C91DFF82CA1102F314620469E
:103A9C00B84628BF4FF01008FFF734FF4FF0000B6B
:103AAC005D4545DC059B51461A782046FFF718FF0B
:103ABC004FF0010B1BF0070F03D149462046FFF7CF
:103ACC000FFFD8453BD9059B514613F80B202046D8
:103ADC00FFF706FF0BF1010BBBF1100FEAD13649D2
:103AEC0020464FF0000BFFF7FBFE5A46059B9A5CF5
:103AFC00A2F120015F2928BF2E2230492046FFF772
:103B0C00EFFE0BF1010BBBF1100F1DD01BF0070FDB
:103B1C0003D149462046FFF7E3FED8455A46E5D87F
:103B2C0049462046FFF7DCFEEBE71F48049DA1E762
:103B3C0049462046FFF7D4FE0BF1010BB0E72049B4
:103B4C002046FFF7CDFEC5E7059BB7EB08074344BE
:103B5C0005939AD1049B002B7FF443AF204609B008
:103B6C00BDE8F04F09F085BC064A05492046FFF731
:103B7C00B7FE39E7C8120100CC120100380301006E
:103B8C00E41A0100C31201004C030100F112010000
:103B9C00F7120100FB120100E00E0020DC0E0020E9
:103BAC00D5120100CFD4000099D4000071D40000CC
:103BBC0008130100001301000A1301003910010061
:103BCC00061301002DE9F0410F884B688E6886B012
:103BDC0005460C469046C7F382175BB1134A9B1AF5
:103BEC0043F38F0100291FDB2078C0F3C200FFF7DD
:103BFC00B7FC03462146608851F8102B0097C2F39E
:103C0C004A22002A01EB0204C0F30B1008BF00216A
:103C1C00CDE90308CDE90114002231462846FFF70F
:103C2C007FFE06B0BDE8F0810023E3E7B40200207C
:103C3C0073B542F20F738B4228BF0B4605680F4ACF
:103C4C0004460521684608F0A3FC63680C495B68D0
:103C5C0006460B22284609F0F8FB63683246694693
:103C6C0028465B6809F0F1FB636806495B681B2218
:103C7C00284609F0EAFB02B070BD00BF700E0100CF
:103C8C00281301000C130100074A00210123904264
:103C9C0006D8064A01B901231360054B186070471A
:103CAC0040085B000121F2E740420F00DC0E0020CF
:103CBC00E00E002000230428CB604B6098BF044B1F
:103CCC00044A98BF53F820308A600B60704700BFDD
:103CDC00A8040100CC0101000023084A0B60CB6052
:103CEC004B608A60064B074AD21AB0EB121F3EBFDC
:103CFC0003EB00139B680B60704700BF2C040100A2
:103D0C002C0101004C0101000023064A10B50C46A1
:103D1C00CB604B608A6001461846FFF721FC20609F
:103D2C0010BD00BFCC0101002DE9F3410E4C0F4E2C
:103D3C000F4FDFF840800546B44203D3002002B099
:103D4C00BDE8F081636859791B7900290CBF3A46AC
:103D5C004246CDE900230821A368074A284609F00A
:103D6C00E6FD1034E8E700BF2C0101004C01010016
:103D7C005C13010054130100651301002DE9F74F8A
:103D8C000D4604460020FFF7E1FB6B685B790746A4
:103D9C0023B91E4A0321204609F0C9FD1C4B1D4ABC
:103DAC00DFF874A00821204609F0C1FD1B4A082148
:103DBC00204609F0BCFD4FF000080FFA88F6BE4211
:103DCC0008F1010803D3002003B0BDE8F08F3246A0
:103DDC00012300212846FFF793FC002332461946A5
:103DEC0081462846FFF78CFC314683460020FFF7BE
:103DFC00B7FB5AF82B2001925AF82920009203465F
:103E0C00074A0821204609F092FDD6E786130100E7
:103E1C0098130100A4130100BC040100C21301009B
:103E2C00FF1301002DE9F84F52F8048C134D064690
:103E3C0040469B468A4617460AF0D4FE104B8146F4
:103E4C009D4208D30F4A43460121304609F06FFDCD
:103E5C006FF007040CE0A9684A4640460AF0DEFE03
:103E6C00074B044638B93B46524629463046D8479C
:103E7C002046BDE8F88F1035E2E700BF2C010100A9
:103E8C004C0101001314010008B5024BFFF7CAFFE7
:103E9C00002008BD893D0000014BFFF7C3BF00BFE8
:103EAC00EBD40000014BFFF7BDBF00BFF3D4000003
:103EBC00014BFFF7B7BF00BF55400000014BFFF7A8
:103ECC00B1BF00BF3FD500001FB5044602A901A831
:103EDC00FFF72CFB002808DA2046164A012109F0CE
:103EEC0026FD6FF0070004B010BD134A08212046D0
:103EFC0009F01DFD019B114A0821204609F017FD10
:103F0C00029B0F4A0821204609F011FD03A8FFF778
:103F1C0017FB002806DA0B4A0821204609F007FD9A
:103F2C000020E0E7039B084A0821204609F0FFFC2B
:103F3C00F6E700BF28140100591401008114010098
:103F4C0096140100B3140100EB14010010B5C36901
:103F5C009B681C792CB9044A012109F0E8FC204625
:103F6C0010BD0120FCE700BF051501002DE9F04F45
:103F7C00074685B0894698461546B2BB1046FFF7F2
:103F8C00E5FA0646D9F804305B7923B92A4A0321AD
:103F9C00384609F0CCFCDFF8A4B00024B44221DA96
:103FAC003DB358F8243002930020FFF7CFFA0023DA
:103FBC0082469A450CD0194600200393FFF7D0FA9D
:103FCC00029940220AF02AFE039B80B9002B2CDABE
:103FDC0058F824301A4A01213846013409F0A7FC5C
:103FEC00A642DEDC05B0BDE8F08F1646CAE7013309
:103FFC00DFE7A24600210E9B22B24846FFF7F8FAF3
:10400C000E9B834204460DD095B951462846FFF7C6
:10401C00A7FA03465BF8242000920321094A38468C
:10402C0009F085FC0AF10104B8E7A2461C46E1E759
:10403C0058F82A30EEE700BF29150100BC04010036
:10404C00541501003E1501002DE9F74FDFF850B073
:10405C00D3F804A00646884691461D4600275BF817
:10406C00041B042250460AF0D9FD044658B101370E
:10407C00052FF4D16B680B4A0121304609F057FC2F
:10408C006FF0070408E0009705F10803A9F102029C
:10409C0041463046FFF76AFF204603B0BDE8F08F7B
:1040AC00BC0401006E150100014B01221A7070470F
:1040BC00C1360020014B002019607047F80E00201B
:1040CC00024B034801221A7009F0D3B9C236002002
:1040DC00EC0401000148FFF7ABBD00BFEC0401008C
:1040EC0010B5064B18680C46FFF73CF82146034602
:1040FC00BDE8104002480F22184700BFF80E002000
:10410C00EC04010010B9074B18707047064B1B7874
:10411C001BB141F288300BF0A9BCA420002107F0A0
:10412C0059BB00BFC1360020C23600202DE9F84330
:10413C00DFF874901D4F80460E46042499F8005009
:10414C0095B906F0BDFB28463246414606F03AFBCF
:10415C00054606F0BFFBE5B101233B7099F8003032
:10416C0073B93046BDE8F88332464146002006F06C
:10417C0029FB0546EFE72046FFF7C4FF651E2C46DA
:10418C00002006F093FB0028EBD03B78002BF2D1FB
:10419C00E7E73B78002BE4D0013C2046FFF7B2FF69
:1041AC003B78002BCAD1DCE7C2360020C136002098
:1041BC002DE9F84305464FF02003EFF3118683F306
:1041CC001288BFF36F8F0E4B0E4F1C68DFF83880D0
:1041DC004FF00C092CB986F31188BFF36F8FBDE833
:1041EC00F883D4E90123002D18BF13462BB198F89E
:1041FC00102009FB02F2B85C98472468EAE700BF7C
:10420C00180F00200C0F00208034002070B5084DD2
:10421C00084E2C68013C002C02DA00232B6070BD88
:10422C0056F82400012100F0C9F9013CF3E700BF66
:10423C00FC0E00206402002070B5194B1C7CBFF3EF
:10424C005B8F04F01F0301229A40164B610903EBAC
:10425C008103D04353E8001F01EA000543E80056F0
:10426C00002EF7D1BFF35B8F0A4213D00E4B0F4DCC
:10427C008BB10C236343EA18E85C51780AF068FEB2
:10428C000020FFF795FF0C235C432A1900232B51C8
:10429C00C2E9013370BD83F31188BFF36F8FEFE771
:1042AC0080340020200F00205DEF00000C0F002058
:1042BC002DE9F04F844B83B01D7C00AF80464FF04E
:1042CC002003EFF3118983F31288BFF36F8F0C2453
:1042DC007E4B7F4E6C431A19195D00297ED007CA9C
:1042EC0006EB040C8CE8070000221A5589F31188A0
:1042FC00BFF36F8F0C236B43F218F35C002B00F0B1
:10430C00D480B8F1FF3F11D0D2F808C0714C724A7A
:10431C004FF400400021ECFB004100232046FBF74A
:10432C00D7FE0121A8EB000005F014FABFF35B8F58
:10433C00DFF8A88158E8004F013C48E80043002B07
:10434C00F8D1BFF35B8FC2469CB90C236B43F35C73
:10435C00012B0ED0384606F0F1FADFF884B11C239D
:10436C00CBF8004058433C681C3804443B689C42E2
:10437C003FD207F075F90120FFF71AFFBFF35B8FEF
:10438C00584B6A0903EB820305F01F0101228A4096
:10439C0053E8000F104343E800010029F8D1BFF3A4
:1043AC005B8F514B33B10C235D437319705D59789E
:1043BC000AF0C2FDBFF35B8F5AE8003F5A1C4AE873
:1043CC0000210029F8D1BFF35B8F0BB9FFF71EFF5B
:1043DC00FFF732FF07F058F9012067E00146284645
:1043EC0000F08EF8002881D007C8344484E8070018
:1043FC007CE720460BF096F9002863D0204609F0A4
:10440C00D4F800285ED1204609F003F9002859D1D0
:10441C00204609F0F4F80146002853D1204600F05C
:10442C00CDF820F02003783381464BD010F1860F65
:10443C0048D000283EDA2D4B1B685B0724D00120A6
:10444C00D4F800A000F0AEF86C468AB06B46284950
:10445C00C3E9051A27497960C3E9070903F110027A
:10446C00381D03F1230103F1270C10F801EB01F8BF
:10447C0001EF8C45F9D1204919611C4800234FF4F8
:10448C004151FFF75FF9A546FFF7C0FE0C236B43C4
:10449C000022F254BFF35B8F58E8003F013348E829
:1044AC000032002AF8D1BFF35B8F00200C37BD46D9
:1044BC00BDE8F08FDBF80030104A42F8234001339E
:1044CC00CBF800301C3C51E780340020000F00205A
:1044DC000C0F00203F420F0040420F00380000201C
:1044EC00FC0E0020200F002045EF0000FC020020F5
:1044FC0039170100000201030500000264020020CC
:10450C002DE9F04F85B00E4603A900F043F81E4B81
:10451C00039DD3F800A0DFF87480431E1BB203EB9D
:10452C004303044605EB83054FF400474FF0000BA3
:10453C0024B9A146484605B0BDE8F08F6868144A16
:10454C00C4465946E0FB07C100236046FBF7C0FD9B
:10455C000190A8680E4AC4465946E0FB07C10023E7
:10456C006046FBF7B5FDBAF1FF3FA94601D0824585
:10457C0005D9731CDED0019B1844B042DAD9013C3A
:10458C00A4B20C3DD4E700BF3C0000203F420F001A
:10459C0040420F0008B9024B0B600020704700BF6F
:1045AC00FC04010003289ABF024B53F82000024878
:1045BC00704700BFFC0401008F18010070B58469BE
:1045CC0003460D46002C3AD009F023F8002839D1C7
:1045DC002148227A465CB24237D02048405C904257
:1045EC0036D1E26818469047002815DA022D11D012
:1045FC00032D10D110F1860F0CD0BFF35B8F231D50
:10460C0053E8001F41F0020143E80012002AF7D1E1
:10461C00BFF35B8F267270BD022D267201D0002075
:10462C00F9E70434BFF35B8F54E8003F23F0020337
:10463C0044E80032002AF7D1BFF35B8FEFE76FF04D
:10464C005700E8E74FF0FF30E5E76FF07700E2E75F
:10465C006FF08500DFE700BF8517010081170100AF
:10466C0013B5044606F0AAFCC0F307230193C0F36C
:10467C0007430093044A030E0821204609F057F91A
:10468C00002002B010BD00BF8917010038B50446E8
:10469C000BF0EAF94FF47A75A0FB052305FB013307
:1046AC00D20B42EA43432046024A082109F03FF963
:1046BC00002038BDA217010010B5044605F07CF8A7
:1046CC00084A03460821204609F031F9064A2046DB
:1046DC00082109F02CF90548214606F0EDFA0020D6
:1046EC0010BD00BFB1170100D0170100FD4600003E
:1046FC00F0B58FB0D0F8A07004460D460BF03FF823
:10470C00064607F081F8244B244A002E08BF1E46AB
:10471C00234BCDE90046844218BF13460821284696
:10472C00204A09F004F9D4E90A23CDE9022394F9CB
:10473C000E300093237B1C4A2846082109F0F7F819
:10474C0006A92022204606F0FFFA626E009203466C
:10475C00164A0821284609F0EAF805A920460BF06C
:10476C001EF8034630B1124A0821284609F0DFF83A
:10477C000FB0F0BD059A6423B91ACDE900214B4363
:10478C000C4AB3FBF7F30821CDE9027328463B46EC
:10479C0009F0CDF8ECE700BFDA17010008130100AF
:1047AC00952A0100DD170100E91701001518010019
:1047BC002C1801005918010030B593B000211C22AF
:1047CC0004460BA80A910AF06FFA1B480AF00AFA81
:1047DC00C0F1200001282CD917480AF003FAC0F1C7
:1047EC0020020AAD202128460AF05EFA2146134821
:1047FC0006F062FA09AA4FF4006111480AF0C3FFEF
:10480C00099A0195C2F5006164234B43DB0A0693B8
:10481C0000254FF40063CDE90413CDE902322046A4
:10482C00074B084A0095082109F081F8284613B077
:10483C0030BD0122D5E700BF9018010045490000AA
:10484C00084900209718010010B504460AF07FFEB5
:10485C00034A03460821204609F069F8002010BDE0
:10486C00E01801002DE9F34117460023044601AA84
:10487C00B86801930A2109F0C9FA019DC6B255B175
:10488C002B46154A0121204609F051F8019D284676
:10489C0002B0BDE8F081042E0AD9104A334601213A
:1048AC00204609F044F8204609F04EF80125EEE7C1
:1048BC007868FEF781FEB0F1000805DA7B68084ADB
:1048CC000121204609F033F8002133460FFA88F213
:1048DC000846FEF78DFEDAE7F61801001D190100F7
:1048EC003419010073B5134600220192044601AA43
:1048FC0058680A2109F08AFA019D95B920EAE074FA
:10490C004FF40046294640F2E7304FF47A72002308
:10491C00C4FB0601FBF7DCFB06F05CFF284602B08B
:10492C0070BD2B46034A0121204609F000F8019D79
:10493C00F4E700BF53190100F0B50446D0F8A060AD
:10494C0089B00D4607A90AF02AFF034630B1104A78
:10495C000821284608F0EBFF09B0F0BD20460AF00C
:10496C000EFF0C4F079A002818BF0746B11A642394
:10497C00CDE902214B43CDE90076B3FBF6F3064AB1
:10498C00CDE9046308212346284608F0D0FFE3E76D
:10499C002C180100DA1701007319010010B5034639
:1049AC0000680C46114608B1027822B9024A20462A
:1049BC0002F0B0FD204610BDB41A010010B50C6811
:1049CC00D1E90112FFF7EAFF034A0346082120460A
:1049DC0008F0ADFF002010BDB91A01002DE9F04719
:1049EC008AB0054601A805F0A9FF019E224ADFF80E
:1049FC008C80DFF88C90DFF88CA01C2303FB006606
:104A0C000821284608F093FF019CB44203D30020F0
:104A1C000AB0BDE8F08705AF394614222046FFF7EF
:104A2C00BDFF424603460821284608F080FF204679
:104A3C000AF078FEF0B1002302A920468DF8083068
:104A4C0008F0AAFDA0B99DF80800FFF7ABFD0346DE
:104A5C000D4A0821284608F06AFF142320460B490A
:104A6C00049302AACDE902571C340AF066FECCE787
:104A7C005346EDE74B46EBE7D81A0100E21A01006A
:104A8C00CF1A0100C91A0100E71A0100C949000038
:104A9C002DE9F043114BDFF8489053F821400131D8
:104AAC0087B053F8218006460027A04503D8384626
:104ABC0007B0BDE8F08320460AF034FE054658B135
:104ACC00142201A92046FFF769FF4A460346082134
:104ADC00304608F02CFF2F461C34E6E76C0601002C
:104AEC00EE1A010010B508210446254A08F01FFFF4
:104AFC0000212046FFF7CCFF20B9224A082120468E
:104B0C0008F015FF082120461F4A08F010FF01216C
:104B1C002046FFF7BDFF20B91A4A0821204608F0AD
:104B2C0006FF08212046194A08F001FF0221204601
:104B3C00FFF7AEFF20B9134A0821204608F0F7FE14
:104B4C0008212046124A08F0F2FE03212046FFF706
:104B5C009FFF20B90B4A0821204608F0E8FE0821E7
:104B6C0020460C4A08F0E3FE04212046FFF790FF94
:104B7C0020B9044A0821204608F0D9FE002010BDB7
:104B8C00F41A0100FC1A0100041B0100131B0100A4
:104B9C00221B0100301B01008B1E022B2DE9F04162
:104BAC0007468846144637D860681022002109F061
:104BBC0056FFB8F1020F064607D1264A20230821DA
:104BCC00384608F0B4FE336816E00A220021A068CB
:104BDC0009F045FFC5B21F4A2B460821384608F09C
:104BEC00A6FEB8F1040F1AD0102D0DD0202DEAD04E
:104BFC00082D0CD13378DBB2174A0821384608F05F
:104C0C0096FE0020BDE8F08133889BB2F4E7134A8E
:104C1C000821384608F08BFE6FF01500F2E7E068CB
:104C2C001022002109F01BFF0D4A034604460821FF
:104C3C00384608F07CFE102D06D0202D07D0082D0C
:104C4C00E5D1E4B23470DCE7A4B23480D9E7346047
:104C5C00D7E700BF8D1B0100B81B0100A21B010090
:104C6C00C91B010070B5104E044633780D4681B156
:104C7C002BB1BDE870400D4A012108F058BE01234C
:104C8C0033700B4A0821204608F051FE0123337083
:104C9C0004E083F001033370002BF2D12946204647
:104CAC00BDE8704008F065BED3360020DD1B010066
:104CBC00181C010070B504463C480378182B02D12F
:104CCC000B78112B31D0013A0B468D18AB4225D104
:104CDC008B5C0A780370A2F13003092B344C04D995
:104CEC0022F02003413B052B04D823683149CA54D8
:104CFC00013323602368022B34D110222D4800216C
:104D0C0009F0ADFE2C4A136803F8010B13602B4A13
:104D1C001368013313600023236023E013F8016B45
:104D2C00182ED3D11E78112ED0D1244D244A2B68A5
:104D3C000821204608F0FBFD20460021FFF792FFDA
:104D4C00204B187870B9204A2B681168042B0ADCA8
:104D5C0008B111602B6013F003010BD112681368BA
:104D6C001BBA136070BD086800BA41F8040B043B11
:104D7C000120EBE75B4203F0030358BF59420229C1
:104D8C0004D1126813885BBA9BB2EAE70329E9D114
:104D9C00106802681104C2F3074301F47F010B434E
:104DAC0002F47F4213430360DCE700BFD4360020DB
:104DBC00240F0020D6360020300F0020280F0020B2
:104DCC00421C0100D53600202C0F00202DE9F84F95
:104DDC000D462B49DFF8AC80DFF8AC90DFF8ACB0B7
:104DEC0000230B602A4988F8003006460B601446F5
:104DFC00012D274654F804AF1ED9022249465046CD
:104E0C0009F00CFF80B922689278003A18BF012291
:104E1C00924420490222504609F000FF30B9012388
:104E2C0088F80030013DE3E70022F1E7494650469F
:104E3C0009F0E8FEA8B9043700221146786809F099
:104E4C0099FD154B002211461860786809F092FD07
:104E5C00124B134918603046FFF704FF0020BDE8E1
:104E6C00F88F9AF800202D2AE6D19AF80120002A12
:104E7C00E2D053465A460821304608F058FDD1E797
:104E8C00240F0020D53600205C1C0100621C0100A0
:104E9C00280F00205F1C0100300F00202C0F002079
:104EAC00C14C00002DE9F04F574BDFF860A1914643
:104EBC004FF0FF35012285B0074688461A60202640
:104ECC002C46494652464046FCF7C4F8411C07D1D3
:104EDC006A1C4FD14E4A0121384608F028FD1CE0CF
:104EEC0073281FD0772831D0612816D1DFF824B170
:104EFC001022DBF80000002109F0B1FD0546002866
:104F0C00DFD105F053FD0368162BDAD1DBF8003046
:104F1C00414A0121384608F00AFD6FF0150005B032
:104F2C00BDE8F08FDFF8ECB00022DBF80000114692
:104F3C0009F095FD04460028C3D105F037FD036840
:104F4C00162BBED1DBF80030344AE2E7DFF8C4B0F0
:104F5C000022DBF80000114609F081FD064600280E
:104F6C00AFD105F023FD0368162BAAD1DBF8003076
:104F7C002B4ACEE7631C01D12A4AACE75FFA86F8CC
:104F8C00C6F3C406002C3CD06B4629461A46A6EB49
:104F9C00050C0CE0B8F1100F1DD0B8F1200F20D08B
:104FAC00B8F1080F2AD10878187031443344A6425E
:104FBC0003D80CEB01001028ECD9102CA14628BF0B
:104FCC004FF0100929464B46384600F06FFF10355C
:104FDC00A4EB0904D6E7088880B21870000A587050
:104FEC00E3E7086818704FEA102E83F801E04FEAE7
:104FFC00104E000E83F802E0D870D6E70A4A08215A
:10500C006AE720468BE700BF28000020B11C010096
:10501C00B81C0100BC0E0020771C01008A1C01008A
:10502C009D1C0100D51C0100A21B010007B50A48FC
:10503C000AF078FB60B1094A074912680848042352
:10504C000093012300F004FE002003B05DF804FB84
:10505C006FF01200F9E700BF88FE0000D8060100CF
:10506C004C01010010B514464268106801601168CB
:10507C004C6011688B601368D1681C680023C1E90F
:10508C000233C1E905334B600B611169C1E902338D
:10509C00C1E905334B600B611168CB60A36823B188
:1050AC009B6C13B1044920469847A3689B6A0BB1CB
:1050BC0020469847002010BDC95000002DE9F04152
:1050CC00044688B00D4683685B6C03B19847A368AF
:1050DC005B6B03BB4FF00008286901A9C26907F09C
:1050EC00E2FB0746002837D0A36801999B6943B3BC
:1050FC00024620469847064630B32869314607F0E9
:10510C00F1FBB7424FF00108E6D02B680020D3E941
:10511C000121904703E0204698470028DAD1A36884
:10512C005B6A002B30D1E86802A9C26907F00EFC5B
:10513C00064600282FD1204608F08DFA2B68DE6039
:10514C0034E06FF05706D8E70146286907F0CAFB30
:10515C00B8F1000FE3D0D8E71948036813F0060F35
:10516C0009D0184B0793022306934FF484513B4606
:10517C0006AAFEF7E7FAA3689B69002BE8D0012288
:10518C0002A920469847E3E7204698470028CAD151
:10519C0008B0BDE8F081A36802995B6963B102466F
:1051AC00204698470146E86807F0F0FB2B68012081
:1051BC00D3E901219047EBE76FF05701F3E700BF0C
:1051CC00080300203B1E010010B58168044608311D
:1051DC0001F002F9A168034A20460831BDE81040ED
:1051EC0001F09AB87D1E0100014908F0D8BA00BF41
:1051FC008E18010037B504468068D0F864325A071F
:10520C000D4605D5002108F016FBE06809F0B4FA4C
:10521C00E368DB6873B9002D39D0A068423008F020
:10522C00B8FAA368002834D003F1420103F5A17049
:10523C0009F0ACFCA268E0680DF106034232294685
:10524C0009F09DFA58B9A06800F5A171423009F037
:10525C009DFCA068423008F09CFAADF80600204690
:10526C0008F0D0FEA368D3F860329B0603D50A4938
:10527C00606908F094FA204600F01AFFA268BDF8A5
:10528C000630D387A2682046938708F026FE03B029
:10529C0030BD83F84201CDE7170201002DE9F04F34
:1052AC00A7B004465422002111A809F0FDFC0023EC
:1052BC00CDE90533A36820464233029308F0A8FEDB
:1052CC00204608F0F1FD10B96069FFF78DFFA0686A
:1052DC0014220021083009F0E7FC204608F02EFDCE
:1052EC00A168E0688A8F4231002609F07FFA2046D7
:1052FC0009F0FEFA4FF0FF37B24603960DF1440861
:10530C00B3463546B146DDE90532012A6DD0132B83
:10531C006ED85FBBBBF1000F0AD0204609F009FB29
:10532C00A2681423423211A90DEB030008F091FB83
:10533C00B9F1000F0CD099F81130FE2B08D1059B58
:10534C0026AA02EB830252F8542C0AB101330593BE
:10535C00A068059D4369002B40F0B680CEB1C368B0
:10536C009E422DD00D9600F1080524E0029A0223EE
:10537C00414606A808F06DFB0699D8F80420029265
:10538C00034631B101290AD148B16C4A204608F0D4
:10539C00ECFE6FF00705284627B0BDE8F08F059BA3
:1053AC00002B34D0D8F8000001F03AF898B166B16F
:1053BC00A5680D9608350CAE0FCE0FC533682B6063
:1053CC002046FFF701FF0125E5E75D4A0121204654
:1053DC0008F0CBFEDDE7059BCBB1D8F800202946C1
:1053EC00204601F0B7F9022809D1059B132B91D95E
:1053FC00069B022B8ED1534B534A0121C6E703283F
:10540C0005D0059B013305934FF0010B7BE7039B04
:10541C0033B9D8F8001007AA484608F010FC054626
:10542C0008F10408013F9DB3EB68BBF1000F08D0F5
:10543C00F3B1204608F0ECFD204608F04EFD434A3F
:10544C00C4E7ABB1A368DDF814A0AE4603F1080CB9
:10545C00BEE80F00ACE80F00DEF80030CCF80030EE
:10546C00AB682BB96B7CFE2B04BF2F7C07F1FF378D
:10547C00D5F804C0BCF1000F08D0AE46BEE80F0052
:10548C000CAE0FC6DEF8003033606646A94603E06A
:10549C00059B53B101230393069B17B9022B7FF491
:1054AC0032AF059B013305932DE7A368DB6913B17C
:1054BC00DB68002BEED1264B0093264A119B012171
:1054CC00204608F052FEE5E7037EA5EB0A05B3B1D2
:1054DC00417E4FF6FF72FF2918BF0A469D4202D348
:1054EC0013449D420BD983681B4A0121204608F0C6
:1054FC003CFE2046FFF768FE6FF015054BE70121D7
:10550C0008F08EF9A06800F53E7008F0ADF9A368BC
:10551C0011AA294602EB8A025B6920469847054688
:10552C00A0684FF0FF324FF0FF3300F53E7008F0EB
:10553C0043F9A068002108F073F92CE78B1E0100D9
:10554C009F1E0100001F0100F01A0100BD1E01008A
:10555C00EC1E0100DA210100241F010010B5836844
:10556C0002221A7183689B6B0446BBB908F0D4F80D
:10557C008368D3F86432DB040BD50321084B094A4A
:10558C0008F0F3FDA0686FF4805100F5197008F075
:10559C00DBF82046BDE8104000F0A0BE10BD00BFF7
:1055AC003F1F0100E41A01002DE9F04F044680680A
:1055BC00B1B0012100F5197008F0B7F8A3681B7998
:1055CC00022B20D100230993A36860689E6B0368AB
:1055DC001D6909AB0EB310221BA9A847099B93B1F7
:1055EC00A068012108F01CF9099A1BA92046B047B4
:1055FC00A068002108F014F9A3689B6B002BE3D181
:10560C002046FFF7ABFFA0686FF0010100F51970A1
:10561C0031B0BDE8F04F08F097B801220DF123012D
:10562C00A847099B002BEED09DF923209DF8231051
:10563C00A368002AC8DB5A79032A00F28F82DFE8BC
:10564C0012F004007C0293028D020D297AD00A29F3
:10565C0058D0B3F864226FF3CA02A3F86422092964
:10566C00A06800F082803DD80029ADD0082900F058
:10567C00F3810346D3F860229207A5D50139162988
:10568C00A2D801A252F821F0155C00009F5A00002C
:10569C00A75A0000975A0000095C0000C55A000088
:1056AC00D5550000D5550000D5550000D555000046
:1056BC00CD5A0000D55A0000D5550000FF5A000005
:1056CC00D5550000095B0000D5550000D5550000EC
:1056DC00D5550000D55500000D5B0000D5550000D8
:1056EC00375B00001B293DD07F2900F0C181A1F15F
:1056FC0020025E2A0346BDD8012108F09CF89DF8D3
:10570C002310E4E0D3F86422C2F3C7022AB1D3F821
:10571C006422C2F3C7020A2AACD1B3F8642261F343
:10572C00CA02A3F86422A068818FB9B908F083F883
:10573C00E06809F021F86069FFF756FD2046FFF795
:10574C000DFF41E7D3F86422C2F3C702002AE4D06C
:10575C00D3F86422C2F3C7020D2ADDE72046FFF717
:10576C009DFDEBE7012343712EE7D0F860329B07D8
:10577C007FF52AAF012108F05EF8A068838FFF2B1C
:10578C003FF422AFC28F00F1420100F5A17009F085
:10579C0080FAA368DA8F1344002583F84251A2687B
:1057AC001BA9142302F5A1720BA808F052F90B994E
:1057BC0014293FF609AF30AB03EB810343F8545C7B
:1057CC00A368DA8F134493F84130202B02D0093BA5
:1057DC00042B46D8002947D100250A950A9B30AAEC
:1057EC0002EB8303002653F854AC504607F0D1FF6C
:1057FC00B3460290B046374616AA3946284600F002
:10580C00DFFB814600283BD1012E64D10A9B30AAD4
:10581C0002EB830353F8540C07F0BBFFA268064657
:10582C0008324146284600F0CBFB0546006807F0DD
:10583C00B0FF864206D02968821B92B231442046C2
:10584C0008F0D3FCA068C38F034493F84230202B9C
:10585C0002D0093B042B29D80121204608F070FB0B
:10586C00B2E60129B8D9013900200CAB00930190A4
:10587C000AAB1BAA08F003FA05460028AED1A3E632
:10588C00029AD9F80000514609F0C8F960B9D9F864
:10589C00000009F0A7F9584538BF58461FFA80FB9D
:1058AC00002E08BFB84601360137A5E7D0F86032A4
:1058BC00DF070BD5002107F0C8FF2021204600F0A0
:1058CC00D7FCA068012107F0C0FF7DE6202120460F
:1058DC0000F0CEFC78E67FF677AE0A9A30AB03EB9D
:1058EC008202C24652F8543C0293184607F051FF0C
:1058FC00A2680490A2F830900396A2685146083230
:10590C00284600F05DFB029B07460AF1010A002BBA
:10591C0051D13B68002B58D1A2681386039B013BE5
:10592C000393EAD16069FFF75FFC204600F0D6FCD8
:10593C000A9B30AA02EB830308F1010A53F8540CBA
:10594C0007F027FF414611AA8146284600F038FB94
:10595C000746A0683968FF2200F5A17009F020F90C
:10596C003B6802934FF6FF77B84616AA5146284675
:10597C000AF1010B00F024FB002861D0A168036838
:10598C0001F24111002211F801EF985C704503D12E
:10599C0010B101324245F6D1B9F1000F01D04A45A0
:1059AC0007DBBA4206F1FF36A8BF3A46012E97B282
:1059BC0046D0DA46D9E700680028AAD0049A0299A2
:1059CC0009F02CF90028A4D097E79B48069307F020
:1059DC00E0FEA16800EB0B0292B297484F8D079244
:1059EC0007F0D7FE069B0590184607F0D2FE079AE3
:1059FC00A168059BA2EB0009088EFF1A97FBF2F732
:105A0C00BFB200F1010EB0FBF7F207FB120080B23F
:105A1C00069BA1F830E01FFA89F958B90093874A20
:105A2C00854B0621204608F0A0FB4946204600F095
:105A3C0029FB73E7824A0621204608F096FBF4E71F
:105A4C00002F3FF4C1AD0299A7EB090292B2494471
:105A5C00204608F0CAFBB7E5D0F860329E077FF508
:105A6C00B3AD012107F0E7FE204608F0DBFBABE508
:105A7C00D0F860329D077FF5A7AD012107F0DBFE62
:105A8C00A368D3F860321907EED4204608F0AFFBB8
:105A9C009AE5204608F0C3FA96E5204608F0B8FAD5
:105AAC00204608F001FA10B96069FFF79DFBA06869
:105ABC00012107F0C0FE41E6204608F0B8FA83E564
:105ACC00204608F0BDFA7FE5D3F860329B0603D57B
