:10000000201900209D340000D172000071340000DE
:1000100071340000713400007134000000000000F1
:10002000000000000000000000000000152E00008D
:100030007134000000000000CD2D0000713400007C
:10004000912E0000912E0000912E0000912E0000B4
:10005000912E0000912E0000912E0000912E0000A4
:10006000912E0000912E0000912E0000912E000094
:10007000912E0000912E0000912E0000912E000084
:10008000912E0000912E0000912E0000912E000074
:10009000912E0000912E0000912E0000912E000064
:1000A000912E0000912E0000912E0000912E000054
:1000B000912E0000912E0000912E0000912E000044
:1000C000912E0000912E0000912E0000912E000034
:0C00D000912E0000912E0000912E0000E7
:1000DC0053B94AB9002908BF00281CBF4FF0FF31A3
:1000EC004FF0FF3000F00CB8ADF1080C6DE904CE08
:1000FC0000F008F8DDF804E0DDE9022304B07047F5
:10010C00704700BF2DE9F04786468C460846089E8E
:10011C00154674461946002B40F0C2808542B2FA4F
:10012C0082F245D94AB1C2F1200300FA02FC2EFA40
:10013C0003F3954043EA0C0C94404FEA154EA8B2D9
:10014C00BCFBFEF8230C0EFB18CC08FB00F943EAB1
:10015C000C43994528D9EB1808F1FF3704D299457F
:10016C0002D9A8F102072B44A3EB0903A4B2B3FBF9
:10017C00FEFC0EFB1C330CFB00F044EA0344A042D3
:10018C0014D92C190CF1FF3304D2A04202D9ACF1D2
:10019C0002032C44241A43EA07401EB1D440002326
:1001AC0034607360BDE8F0874746DDE76346F1E7EE
:1001BC0092BB431B01214FEA154EAFB2B3FBFEFCC1
:1001CC00200C0EFB1C330CFB07F840EA034398454C
:1001DC0062D9EB180CF1FF3004D2984502D9ACF17E
:1001EC0002002B44A3EB0803A4B2B3FBFEFC0EFBF2
:1001FC001C330CFB07F744EA0344A7424ED92C19D5
:10020C000CF1FF3304D2A74202D9ACF102032C4407
:10021C00E41B43EA0040C0E7C2F1200320FA03F1DB
:10022C00954090402EFA03F303434FEA154EAFB2BC
:10023C00B1FBFEFC0EFB1C10190C0CFB07F841EA81
:10024C000041884504FA02F422D969180CF1FF30F8
:10025C0004D2884502D9ACF102002944A1EB080173
:10026C009BB2B1FBFEFC0EFB1C110CFB07F743EA27
:10027C0001439F420ED9EB180CF1FF3104D29F427F
:10028C0002D9ACF102012B44DB1B41EA004192E79D
:10029C006046E3E76146F7E76046A3E76346B7E7E6
:1002AC00834206D916B9002108467BE7C6E900E06F
:1002BC00F9E7B3FA83F78FB9834201D3724508D8B3
:1002CC00BEEB020460EB030301209C461EB9002127
:1002DC0068E73846FAE7C6E9004CF8E7C7F1200CA6
:1002EC00BB4022FA0CF41C432EFA0CF120FA0CF34E
:1002FC00B84001434FEA14490EFA07F5B3FBF9F87D
:10030C001FFA84FE09FB18300B0C08FB0EFA43EAAB
:10031C0000439A4502FA07F240D9E31808F1FF307E
:10032C0004D29A4502D9A8F102002344A3EB0A0394
:10033C0089B2B3FBF9F809FB183308FB0EFE41EA4E
:10034C0003418E452CD9611808F1FF3304D28E4538
:10035C0002D9A8F10203214443EA0040A0FB029811
:10036C00A1EB0E014145CE46434602D306D14D4585
:10037C0004D2B9EB020E68EB04030138002EA6D0B0
:10038C00B5EB0E0261EB030101FA0CFC22FA07F348
:10039C004CEA0303F940C6E9003198E74046C5E74B
:1003AC004346D9E71FB50C4A0C4C106851681289AA
:1003BC0001AB03C31A800A2101A806F0FBFC10B1A3
:1003CC00204606F043FD00214FF4004006F00AF9E8
:1003DC0000F08EF9EFE700BF577F00008E8200001F
:1003EC0008B500F06BFC014620B9054806F02EFD5F
:1003FC00FFF7D8FF034806F029FD4FF0FF3008BD8A
:10040C00C0820000A2820000054B1B68DB6843EA37
:10041C00C233034343EA81520820002106F066BB35
:10042C00000000202DE9F843067847784279734B99
:10043C00013F042E33F812800446FFB200F0C08056
:10044C00F31FD3F1000949EB03096D4DE3792968DA
:10045C000A69002B40F0B78042F480024FEAD808BA
:10046C000A61237A8B7222F440320A61237A1B04CC
:10047C0003F440331A430A610420002106F036FBD2
:10048C00424642F604012E2006F019FB384606F0CF
:10049C005BFB5C4B13F806805B4B072153F8282061
:1004AC002B2006F023FB594B0B2113F808202B2093
:1004BC0006F0F8FA564B0B2113F80920282006F009
:1004CC00F1FA544B0C2153F82820282006F00EFB8F
:1004DC00E279A37903EB42034F4A022132F813204D
:1004EC00272006F0ECFA4D4B042133F81720272077
:1004FC0006F0E5FAE379002B68D164220621272067
:10050C0006F0DDFAE378464A03EB8703082152F83C
:10051C002320272006F0EAFA638913B941F241033C
:10052C006381DFF8008162892021272006F0C7FA59
:10053C00D8F8002008EB47080C21232006F0D6FA47
:10054C002320B8F80420042106F0B9FAA079002879
:10055C0051D0E379344A2120D25C002106F0A2FA72
:10056C0001220320617906F00F0343EAC16361782D
:10057C003601F6B28904334301F440210B4321794F
:10058C00890501F0F8610B4343EA005343EA424208
:10059C0000211F2006F0AAFA6278A3781343E279AF
:1005AC00520342EA03422B680021DA60082006F06D
:1005BC009DFABDE8F843422200210D2006F072BAE4
:1005CC004FF0010941E722F4800249E7A378042B9C
:1005DC000AD110220621272006F071FA10222621BA
:1005EC00272006F05FFA8DE720220621272006F04F
:1005FC0066FA2822F3E70246B4E700BF4C820000FB
:10060C0000000020F9820000A07F0000F3820000AF
:10061C00F1820000B87F0000828200007E82000020
:10062C00787F0000987F0000EE82000010B5034C2C
:10063C002468C4E90A01C4E90C2310BD00000020A1
:10064C0010F0020208B504D0124B1B6801225A7537
:10065C00802210F0010116D042F0060200210D207C
:10066C0006F020FA03210F2006F003FA10F4816F34
:10067C0001D1002008BD0D204022002106F012FA05
:10068C004FF0FF30F6E742F002020D2006F00AFAB6
:10069C00EFE700BF0000002038B500210E2006F067
:1006AC00D3F9054606F02BFB0022114604460E201A
:1006BC0006F01CFA402200210D2006F0F3F90A4A3C
:1006CC0000210F2006F012FA06F0D6FA2A46002175
:1006DC000E2006F00BFA204606F013FB034B1B68AA
:1006EC0000225A7538BD00BFF8FF272400000020F7
:1006FC0070B5474C00210F20266806F0A5F9F06173
:10070C004604054641D54FF4DE4200210F2006F089
:10071C00EDF92368002183F82410102006F0A9F9C4
:10072C0023689A7A002A6FD0C0F3090200041A8455
:10073C0042BF93F8242042F0010283F824200021C8
:10074C0022330222112006F05FF9290710D5236805
:10075C0093F8226016F020060AD1082231460F20A9
:10076C0006F0C4F92368DA695E7522F00802DA61D2
:10077C002068C36A0BB11C30984723681B7D23B1DA
:10078C00012203210D2006F08DF92A0612D5F8223C
:10079C0000210F2006F0AAF92B0706D523685B7DF4
:1007AC001BB1FFF779FF06F095FA2068836A0BB14D
:1007BC001C30984715F4081F11D00F2000214FF45E
:1007CC00003206F093F9236800225A75FFF764FF94
:1007DC0006F080FA2068036B0BB11C3098470D4A69
:1007EC00154214D00F20002106F080F92368002256
:1007FC005A75FFF751FF06F06DFA2068436B33B161
:10080C00BDE870401C30184700F07F028EE770BDC9
:10081C00000000200090052408B506F022FA002202
:10082C0011462C2006F04BF9002206212C2006F054
:10083C0039F906F07CF900220321362006F032F952
:10084C00012006F05FFAF0220321362006F02AF987
:10085C00024B1B6800225A7508BD00BF0000002027
:10086C002DE9F041624D2B680027C3E90A77C3E9F3
:10087C000C775F61044606F0F8F85E4B984201462F
:10088C0040F0B2805C4806F0E1FA14F002064AD05F
:10089C0014F0F8086FD004223946242006F002F92F
:1008AC003021282006F0D0F8B0F1883F1FBF2A680D
:1008BC00D38A43F48053D38204F00A030A2B60D109
:1008CC001E2006F01EF92B68C0F30720D87214F016
:1008DC0010002F6802D0062006F013F9386014F0CF
:1008EC0020002F6802D0072006F00BF914F040020C
:1008FC0078604AD0082006F004F92B68187214F0BE
:10090C00800245D0092006F0FCF82B685872002EA6
:10091C0067D1E2073FD506F092F92A68D38A43F4EF
:10092C000063D38242E0FFF777FF304606F021F9EF
:10093C0004223146242006F0B5F8042006F0E1F834
:10094C00C0B248B1022212212D2006F0ABF82A6861
:10095C00D38A43F48053D3821E2006F0D2F82B683E
:10096C0010F01F0FC0F3072208BF1020DA72C0B2BC
:10097C0006F0BDF9ABE7404606F0FBF80422414611
:10098C008BE72B680022DA72A1E72B681A72B6E7A4
:10099C002B685A72BBE70521362006F06AF820F462
:1009AC00007292B20521362006F089F8012006F07B
:1009BC00E0F800220A212C2006F074F80021042013
:1009CC002C6806F041F820612C68638A03F003035D
:1009DC00A3720021082006F037F8E0600020BDE883
:1009EC00F0816307E2D498E74FF0FF30F7E700BFE0
:1009FC00000000203001CADED182000030B5194A57
:100A0C00194C1A4D07CA85B001AB83E8070084E87E
:100A1C000700174A174B1360174A184911604FF417
:100A2C0080729C605C611C62DC629A80144C154A7A
:100A3C001A600021FF22284606F090FCFF220021BC
:100A4C00204606F08BFC104B1049114A1D609C602F
:100A5C000B6008331360002001234B60536005B01A
:100A6C0030BD00BF207F000028030020BF060020FF
:100A7C00840300205403002088030020DC7C000049
:100A8C00C005002080841E00440300203C0300208D
:100A9C003403002008B50A4A0A4B13604FF48072E5
:100AAC009A80094A1A600021FF22084806F056FC79
:100ABC00BDE808400648FF22002106F04FBC00BFED
:100ACC00840300205403002080841E00BF060020F5
:100ADC00C00500200A4A0B4808B50B4B13604FF4B5
:100AEC0080729A800C3B094ADA600021FF2206F0E2
:100AFC0035FCBDE808400648FF22002106F02EBC5C
:100B0C0084030020BF0600206003002000127A003E
:100B1C00C00500202DE9F8431F46154604468846BB
:100B2C0006F0EDF8DFF8409022464146064648466E
:100B3C0006F009FC394609EB04002A4606F003FCD2
:100B4C000A4B2C445C60DC60094B1868094B196833
:100B5C008368094A1C68094BA047304606F0D1F857
:100B6C000020BDE8F88300BFBF060020440300202E
:100B7C0088030020840300203C0300203403002061
:100B8C002DE9F0471F4604468946154606F0B7F88E
:100B9C00DFF850A004EB05084246064600215046FB
:100BAC0006F0DCFB49462246504606F0CCFB0E4BC9
:100BBC00C3F80480C3F80C800C4B18680C4B1968F4
:100BCC0083680C4AD3F800800B4BC0470B492A466C
:100BDC002144384606F0B7FB304606F092F8002068
:100BEC00BDE8F087BF0600204403002088030020E6
:100BFC00840300203C03002034030020C0050020A7
:100C0C0080B582B000AF786013221649164806F002
:100C1C001DF9164B164A1A60144B1B68002B03D196
:100C2C00144806F013F91AE0104B1B68124A1321F2
:100C3C00184606F08FF84FF4002279680F4806F03A
:100C4C0080F80A4B1B680D49184606F07DF8074BD7
:100C5C001B684FF0A8621321184606F097F8083766
:100C6C00BD4680BD0A8300002C7F00009803002045
:100C7C00A47C0000507F0000110001008C030020B8
:100C8C00014806F0E3B800BF1C830000014806F0E1
:100C9C00DDB800BF2F830000014806F0D7B800BFB5
:100CAC0044830000014806F0D1B800BF5483000013
:100CBC00014806F0CBB800BF6683000010B5FFF703
:100CCC009DFE10BB06F031F80120FFF7C9FD04466C
:100CDC00F0B906F030F81048FFF7A4FB44F23400EA
:100CEC0005F0FFFE44F2340005F0F5FE0B48FFF76B
:100CFC0087FF0B490B480C4B0C4AFFF797FC0C4831
:100D0C00022105F0CAFF204610BD4FF0FF34FAE770
:100D1C006FF00104F7E700BF74010020BD0C000068
:100D2C00A50C0000B10C00008D0C0000990C00000B
:100D3C0080D023042DE9F04F91B08407009302F08A
:100D4C0004030293C2F3C20303F10103DDF86880CC
:100D5C00039205460E46059340F0BE81041D30B14A
:100D6C00072909D86FF01B0011B0BDE8F08F01F016
:100D7C000706341DC6F10806009B4FF00009591EEA
:100D8C004FF0040A4FF0FF330193CDF810904F460B
:100D9C00CB4653460DB1009A22600598002800F30B
:100DAC00EB809A48009A824203D399488242C0F061
:100DBC00E380039AA4EB050E92074FEA9E0000F124
:100DCC0006810F2F00F2B480002D00F0088107F18E
:100DDC0040020DEB020C019A0CF8200C0CF8102CB4
:100DEC00049801300490EAE07A2860D84B280ED899
:100DFC0047285CD829282FD8252855D057D8202803
:100E0C007DD02338D0F1000B4BEB000B77E0A0F139
:100E1C004C0CBCF12E0F4AD8DFE80CF07149494953
:100E2C0049494949494949494C4949494949494923
:100E3C00495A494C4C5A5A5A714C6E497149184C82
:100E4C0018494983804C49494C49800000204FF097
:100E5C00000B4FF0040A39E0A0F12A0C5FFA8CFC6D
:100E6C00012202FA0CFC1CEA0E0F48D11CF0625055
:100E7C002ED11CEA020B42D0013C5444CAF1000CA6
:100E8C0004EA0C04002D61D0A3EB050CA444B4457A
:100E9C003FF668AF002868D1042B47D158F8043BC3
:100EAC002360043404232AE0019A013A01924FF0A2
:100EBC00000B24E011F8010C6C2834D111F8023C21
:100ECC0000206C2B8346C4D14FF0080A5346D3E75D
:100EDC0008F1070828F007080734F8E802AB24F0FB
:100EEC00070435B106982044B0423FF63BAFC4E945
:100EFC0000AB08344FF0000B4FF0080A534611F8C2
:100F0C00010F002878D0BBF1000F7FF46DAF2528BE
:100F1C00F5D1019B013301934FF0010B4FF0040A03
:100F2C00ECE7584693E700208346A5E7082B02D050
:100F3C006FF0150018E708F1070828F00708F8E823
:100F4C000223C4E9002308340823D8E768B9042B2A
:100F5C0002D108F10408A4E7082BE9D108F107082D
:100F6C0028F0070808F10808EDE7059A013A059200
:100F7C0058F8042B00920DE7039A900720D5A4EBA8
:100F8C00050E4FEA9E004FF0010CBEF5007FCFD24C
:100F9C000F2FCDD8F5B107F140020DEB020EC0B208
:100FAC00019A0EF8200C0EF8102CBCF1000F3FF437
:100FBC0017AF60F07F000EF8200C09F10109013722
:100FCC00C5F10802043406924FF6DA7E97E74FF02B
:100FDC00000CDAE7BCF1000F01D00136EFE7029804
:100FEC0002360028EBD10098CDE9063106F09BF9CA
:100FFC00DDE906310644E2E7631BB3F5806F97D257
:10100C0045B9A6F10804E018AEE600BF307C00003C
:10101C00CC8B0000029A28609B082B709DF8103036
:10102C00C2B1EB7085F80290B9F1000F05D008A899
:10103C000022C5F1010C97420ED1C5F101030DF14F
:10104C0020084FF0000A01930DF1300B574512D1D7
:10105C00601B89E66B70E5E710F8013B190608D5B3
:10106C0004EB0C0EB64503F07F033FF67BAE04F8A1
:10107C00013B0132DFE7B9F1000F03D098F90020F2
:10108C00002A17DB029BD3B11AF80B2004F8012BB2
:10109C000022019B98182044B0423FF663AE98F8AA
:1010AC00000004F8010B00990392204606F04BF95E
:1010BC00039A14440AF1010A08F10108C6E798F8EA
:1010CC00002055F822300093029B45F822300098FE
:1010DC0006F029F9421CDCE76FF00D0044E600BF76
:1010EC00014B1860704700BF040000202DE9F04749
:1010FC00058B04462807904611D4022905F00705F4
:10110C0040F0CD80204605F0B8FE78B10138218B37
:10111C00042811D8DFE800F0C3106D859500012973
:10112C000CBF45F0100545F02005258388F3118888
:10113C00BFF36F8FBDE8F08701F0070AAA4500F0F6
:10114C00A6800027B9463E46A368002B00F0BD8060
:10115C0041F00801218388F31188BFF36F8FA168D8
:10116C00002900F0BB800D68002900F0B780D1F891
:10117C000480334652462046C047002D76D02B685B
:10118C0029461D46F0E701F007035A1F012A1BD818
:10119C00002221F00701062B276889B2C4E900223E
:1011AC0009D13B4603E0628B013262831B68002B42
:1011BC00F9D141F002012183204605F05EFE0028A2
:1011CC007BD041F0200177E0042B0AD121F00701FC
:1011DC0089B22183204605F050FE10B141F0200168
:1011EC002183218B01F0070AAA4550D00027B9466C
:1011FC00AAE7236921F0070141F00601062DD3F877
:10120C00009021832DD1B9F1000F40D041F008019D
:10121C00218388F31188BFF36F8F3A492046C84762
:10122C0029E021F00701236941F0040189B2042D62
:10123C00D3F804902183E6D000273E464FF0040AF1
:10124C0082E721F00701236941F0050189B2052DE0
:10125C00D3F808902183D6D000273E464FF0050ADC
:10126C0072E700273E464FF0060A6DE72B4687E7EC
:10127C00B9F1000FD1D14FF02003EFF3118883F3B4
:10128C001288BFF36F8F238B23F008032383258BE6
:10129C00EA062ED525F01003238305F007056669B1
:1012AC00218B002EBFF66FAF00232768C4E90033F3
:1012BC0021F0070141F001012183218B01F0070A84
:1012CC00AA454FF000097FF43FAF002F9BD041F0AF
:1012DC000801218388F31188BFF36F8F002FC7D0CB
:1012EC003D68394633465246204605F0F2FD2F46FE
:1012FC00F4E7AB067FF51AAF25F02003238305F046
:10130C000705FFE60B6F00002DE9F04F9FB08246FA
:10131C00039116461C460025307810B9284600F07B
:10132C008BBD731C2528069306D00399D047002843
:10133C00C0F2828501352BE21822002110A806F09C
:10134C000DF87378252B7DD00023701C98469E4693
:10135C009C461F46014610F8012B2B2A00F0A18059
:10136C0000F29880202A00F09F80232A00F09F80B2
:10137C002BB19DF8483043F040038DF84830B8F15C
:10138C00000F05D09DF8483043F020038DF848300D
:10139C00BEF1000F05D09DF8483043F010038DF8D6
:1013AC004830BCF1000F05D09DF8483043F00803DD
:1013BC008DF848302FB19DF8483043F004038DF878
:1013CC0048309DF8483003F04400442803D16FF3B3
:1013DC0086138DF848309DF848302A2A43F0800354
:1013EC008DF848307FD19DF8492042F001024B1C0A
:1013FC008DF849201A782E2A9DF849200CBF01211E
:10140C00002161F341028DF8492078D15A782A2ABB
:10141C006ED0013300224FF00A0C194611F8010B63
:10142C00A0F13007092F40F2AF809DF848101492BC
:10143C00C1F3400040EAD2700A4660F341028DF8D5
:10144C0048205CE0B21C06928DF84B309DF8493078
:10145C00DF0740F1548154F8042B0492002A08DA77
:10146C009DF8482042F004028DF84820049A52421C
:10147C000492580740F14B8154F8047B002F80F202
:10148C004A819DF849306FF341038DF849304FF094
:10149C00FF3740E12D2A0DD0302A7FF469AF0123AC
:1014AC0058E74FF0010C55E74FF0010E52E74FF0A3
:1014BC0001084FE701274DE70EFB0272303A034655
:1014CC00184610F8017BA7F1300CBCF1090FF3D9C9
:1014DC0099428FD09DF848101392D20F62F34101BC
:1014EC008DF8481086E70B4600224FF00A0EE7E70E
:1014FC009DF8492042F004028DF8492002331A78F5
:10150C006C2A61D045D8682A4BD06A2A65D04C2AFF
:10151C006BD013F8012B0693782A8DF84B2000F230
:10152C00AD806D2A6ED8692A00F2A880572A00F285
:10153C008880412A04D0A2F14503022B00F29E8040
:10154C009DF84A3002F0DF020421A2F1410861F358
:10155C000203D8F100029DF849108DF84A3042EB95
:10156C00080262F3C7110A068DF84910CBB200F1DC
:10157C00C48003F07802182A40F0AE806FF3C603E3
:10158C008DF8493000239DE00CFB0202303A0B46EB
:10159C0043E7742A25D07A2ABBD19DF8492006212D
:1015AC000CE05A78682A9DF8492006D1012161F394
:1015BC00C6028DF849200233ABE7022161F3C60263
:1015CC008DF849200133A4E75A786C2A9DF84920FC
:1015DC0001D10421EBE70321F0E79DF84920052117
:1015EC00ECE79DF849200721E8E7BDF8482022F4F4
:1015FC00F04222F0020242F4804242F00202ADF8C4
:10160C004820DFE76E3AD3B201229A4040F282437F
:10161C001A429DF8493038D112F0240F60D1D1070D
:10162C002CD59DF84A2003F07803A3F1400C03213C
:10163C0061F30202DCF100038DF84A2043EB0C034A
:10164C0040E0A2F15801C9B2012000FA01F111F4F5
:10165C00624F7FF475AF40F6010319429DF8493093
:10166C0019D111F4043F09D09DF84A2060F302020D
:10167C0003F07803402B8DF84A2083D19DF8483035
:10168C0043F001038DF848307CE79DF84A20022195
:10169C0061F30202ECE79DF84A10022003F0780394
:1016AC0060F30201402B8DF84A1002BF9DF84810E0
:1016BC0041F001018DF84810632A7FF463AF003BC1
:1016CC0018BF01239DF84820C2F340010B4363F37C
:1016DC0041028DF84820B9E613F0380FCED151E70E
:1016EC009DF84A20032113F0780F61F302028DF864
:1016FC004A2014BF01230023E4E70123E2E79DF90C
:10170C004820002AB4BF139A4FF0FF32B0E6990775
:10171C007FF5BDAE149F9DF849100023CDE913331E
:10172C009DF84A3003F00702042A07D18A0705D432
:10173C009DF94920002AACBF06270D2703F00703AB
:10174C00012BC1F3C30133D1CB1E042B04D8DFE82A
:10175C0003F0214646212100236801294FEAE37258
:10176C00CDE910321CD19DF94030DA17CDE9103299
:10177C0004349DF8483007939B0750D0069B03997F
:10178C003246504605F0C7FC0028C0F2558305448C
:10179C00069EC1E554F8043BDA17CDE91032E8E7B0
:1017AC000229E5D11AB243F3C033CDE91023DFE7A8
:1017BC00022B24D1CB1E042B04D8DFE803F0181025
:1017CC0010181800012954F8043B4FF0000214D0F3
:1017DC000229CDE91032CCD19BB21093C9E7073462
:1017EC0024F00704F4E80223CDE91023C1E754F8F0
:1017FC00043B109300231193BBE7DBB2CDE7042B22
:10180C0008D1073424F00704D4E900230834CDE9C7
:10181C001023AEE7032BACD154F8043BDDE79DF865
:10182C004BB0BBF1780FB3D8BBF1570F49D8BBF114
:10183C00250F00F09180BBF1240FA9D9BBF1410F0A
:10184C0003D0ABF14502022AA2D8DDE91012002A1E
:10185C00C0F23681079B180700F13581C3F30019DC
:10186C004FEA4919C2F30A50C2F31302002840F0A0
:10187C002D8151EA020614BF01260026D20242EA4B
:10188C005152C902BBF1460F40EA010E42EAE07C1C
:10189C0008BF4FF0660B5EEA0C0CCDE90C1200F0A1
:1018AC009981002E40F044810D9A42F00042A0F242
:1018BC00FE380D920020DDE90C1206464FF0050CA7
:1018CC0050E1ABF15802202A3FF662AF01A050F86C
:1018DC0022F000BF6B1A00009D1700009D1700003E
:1018EC009D1700009D1700009D1700009D1700001C
:1018FC009D1700009D170000571800009D17000051
:10190C00EF190000031A00005718000057180000C8
:10191C00571800009D170000031A00009D170000C7
:10192C009D1700009D1700009D170000A51A0000D0
:10193C006B1A0000711A00009D1700009D17000023
:10194C006B1900009D1700006B1A00009D1700001A
:10195C009D1700006B1A000003995846E6E4002F0F
:10196C00109E3ADB3946304605F0E4FC3718002E61
:10197C003FF40EAF4FF000099DF84A3013F01002FF
:10198C00059200F04E82023013F04003DDF84C80DB
:10199C00089318BF149BCDF81C80404418BFC01886
:1019AC00049B002B40F358829DF848201B1A04938B
:1019BC005307C2F3800B00F14F82500640F13F8277
:1019CC00B9F1000F07D003994846D0470028C0F260
:1019DC0033820135D946302232E2304605F0A3FC81
:1019EC00C4E7109B8DF85C304FF000090DF15D07DA
:1019FC0017AE0120C0E7079B1E0758BFC3F30019A1
:101A0C00DDE9102354BF4FEA49194FF02B09002B85
:101A1C0006DA524263EB4303CDE910234FF02D0954
:101A2C000DF175030093DDE9100117AB12AA05F057
:101A3C002CFB0646002F0CDB9DF848200DF175039E
:101A4C009B1B6FF386129F428DF8482001D9FB1A1D
:101A5C001393002E3FF49CAE0DF1750756E04FF03A
:101A6C000009DDE71098002800F0D6810DF1750310
:101A7C00009312AA17AB002105F007FBBDF84A3002
:101A8C0003F0EF0343F4F04343F010030646ADF8C4
:101A9C004A304FF00009CDE7109B07293FF678AE8E
:101AAC00DFE801F00C04060C08080C0C1D706FE646
:101ABC001D806DE6EA17C3E9005269E61D6067E612
:101ACC004FF02D09CEE64FF02B09CBE640F2FF7616
:101ADC00B0422AD10A43ABF141031ED11A2B35BFB8
:101AEC00492369234E216E2134BF462266228DF88C
:101AFC005C309DF848308DF85D106FF386138DF8CF
:101B0C005E208DF848300DF15F0717AEB81BB9F1A8
:101B1C00000F3FF431AF01302EE7192B8BBF6E2332
:101B2C004E23612141211A46E1E70026A6E6013841
:101B3C0049185241002AFADACDE90C12B4E64908E8
:101B4C0041EAC2715208B2F1333F404608F1010834
:101B5C00F5D20CFB02FEA1FB0C1200F10208724440
:101B6C00013E012018F1020FE9DB08B1CDE90C129E
:101B7C00B8F1000FDDE90C212FDCC8F1040008F1ED
:101B8C001C08A0F1200CC24021FA00F301FA08F85D
:101B9C000BF0DF0042EA080221FA0CFC472842EA6B
:101BAC000C0208933AD1F31C01DBB7422BDAABF1F0
:101BBC000203002F5FFA83FB7FDD9DF8480080064F
:101BCC0007F1FF3779D43B1E18BF0123059307F1AA
:101BDC0001082DE04FF000086CE6023241F10001E3
:101BEC000CA8CDE90C2105F021FADDE90C2108F156
:101BFC00FF38013692184941002908F1FF38F9DA0B
:101C0C00CDE90C21B4E79DF848309906A7EB0607FF
:101C1C0051D43B1E18BF0123059304E00023BBF1F4
:101C2C00660F0593D3D117EB06084FF0660B46D41D
:101C3C00B8F1100FA8BF4FF0100810200B904FF008
:101C4C0000610020CDE90E01DDE90E03B8F1000FB3
:101C5C0038D10899121841EB0301B1F1805F3FD2E2
:101C6C00CDE90C21079BBBF1660F03F0200240F07D
:101C7C00B280002E3FDC30218DF85C10002A63D13D
:101C8C00002F40F3A8812E228DF85D2086B1724280
:101C9C00BA42A8BF3A469DF84A101392002AA7EB05
:101CAC000207D4BF0022012262F345118DF84A10BD
:101CBC000DF15E0837E00023AEE7002386E74FF016
:101CCC000008BAE7400840EAC3705B08CDE90E0390
:101CDC000EA8099208F1FF3805F0A8F9099AB3E7A4
:101CEC00520842EAC1720CA84908CDE90C21013610
:101CFC0005F09CF9B6E70DF15C080B99002909DD9C
:101D0C000BA90CA8079205F0A9F9013E08F8010BE4
:101D1C00079AF2D113969AB9002F40F35A812E21CB
:101D2C0008F8011B0026002F17DD0B9A002A14DD82
:101D3C000BA90CA805F092F9013F08F8010BF2E78A
:101D4C002E2208F8012BEDE72E228DF85D20002EB7
:101D5C00AED0002F9BDC0DF15E08059B002B4ED105
:101D6C00149747460BF0DF02452A23D1002EBABF49
:101D7C0076422D232B23632EC8BF64217B70D1BFE9
:101D8C00BA1CB6FBF1F3FA1C03F13000C8BF01FB1F
:101D9C0013664FF00A01C8BFB87087F800B0B6FBE5
:101DAC00F1F3174603F1300001FB1363303307F8EE
:101DBC00020B5370139B002B2CDC149B002BD4BFF9
:101DCC00002301239DF84A2063F3861200238DF82B
:101DDC004A203B7099E60BA90CA8079205F03EF936
:101DEC00079A8DF85C00302818BF06F1FF3612B93F
:101DFC00002F40F3F0802E228DF85D2058E74746E7
:101E0C0008F1FF3817F8012C302AF8D02E2A08BF19
:101E1C004746A7E70123D5E7704F81467E1F052073
:101E2C00AAE51A0748BF0130AEE51046099203999E
:101E3C00D0470028099A05DA1FB0BDE8F08F2022A0
:101E4C00DDF810B0594600290BF1FF3BEDDC049B8B
:101E5C00CDF810B02B445D1AB9F1000F05D00399E1
:101E6C004846D0470028E7DB0135089B002B75D08E
:101E7C009DF94930002B28DBB3469BF80000A0F1FC
:101E8C003003092BD9460BF1010B3FD99DF84A3091
:101E9C00AE1B99064E4407D44246002A08F1FF387F
:101EAC0039DC079B33449E1A99F800002E280AD17E
:101EBC000399D0470028BFDBB8F1000F06F10106EB
:101ECC002FDC09F101094D4635E0B14699F80000C7
:101EDC007028C84609F1010913D1AE1B149D464464
:101EEC003544AB1B002B31DC03993B464246504634
:101EFC0005F011F900289FDB3044049E054606448A
:101F0C0062E00399D0470028E0DA95E70399D047BF
:101F1C000028B2DA90E703993020D0470028BBDACA
:101F2C008AE703993020D04708F1FF38C2E70399BC
:101F3C00D047002880DB2878A0F13003092BA84675
:101F4C0005F10105F3D9A6EB0906C7E70399302083
:101F5C00D0470028FFF670AF0136C2E79DF84A3033
:101F6C00DA0601D41B0706D503993020D047002888
:101F7C00FFF662AF0135059B3BB103999DF84B0011
:101F8C00D0470028FFF658AF0135A84406E0039966
:101F9C003020D0470028FFF64FAF0135A8EB0503E2
:101FAC00002BF4DC03993B463246504605F0B3F85F
:101FBC000028FFF641AF28449FE703992020D04723
:101FCC000028FFF639AF0135731B002BF5DCFFF74A
:101FDC00DFBB1646C1E60DF15D08BEE68683000048
:101FEC0002F016BD2DE9F84F81462F480F4605F03B
:101FFC00AEF8064670B92D4CDFF8B4A00546A046E5
:10200C004FF0010B544507D3B9F1000F02D04FF03C
:10201C00010AE5B9BDE8F88F237B73B12368DB684F
:10202C000BB12046984723681B6943B963680422A7
:10203C001968204600F0C8F801361034E2E7204653
:10204C0098470028F2D00BFA06F31D43F4E7A94693
:10205C0095FAA5F4B4FA84F40AFA04F3260108EB11
:10206C0004146FEA030B25EA0305237B63B158F8CC
:10207C0006301B6993B946440422736820461968DC
:10208C0009EA0B0900F0A0F8002DE1D127B14FF4BB
:10209C00A470002104F0A6FA4D46BAE720469847F2
:1020AC000028F1D1E7E700BFA4030020FC7E00006C
:1020BC001C7F0000014B53F820007047D07F0000BC
:1020CC0008B5034608462BB1044A136000F07EFAAB
:1020DC00002008BD6FF01500FBE700BF08000020D2
:1020EC00054A064800231370054A1360054A4FF44D
:1020FC0000411360FFF7E4BFBE07002057710000DA
:10210C009C030020A003002070B50B4D297841B929
:10211C000120FFF767FF094C094EB44202D301239B
:10212C002B7070BD63685B791BB1236820469B687C
:10213C0098471034F1E700BFBE070020FC7E00007A
:10214C001C7F000010B50446084805F000F85CB18F
:10215C00BFF35B8F064B53E8001F013943E80012B5
:10216C00002AF8D1BFF35B8F10BD00BF9C03002089
:10217C00A003002070B50A4B0A4C1B680A4E05469A
:10218C009847A860B44200D370BD63685B7923B1F3
:10219C00236829461B68204698471034F2E700BF95
:1021AC0008000020FC7E00001C7F0000044A054B48
:1021BC009B1AB1EBD30F34BF52F83100002070479B
:1021CC00747E0000FC7E0000084BC31A10B41B1177
:1021DC0044680133237143689A71436819604368FA
:1021EC0001225A7110BC04F0D4BF00BFFC7E000069
:1021FC002DE9F04F85B002AFD7E90EA93D6B04462F
:10220C000E4693469846BAF1000F33D0C7F80490A7
:10221C00CDF8009010217A6B53460020FEF78AFD12
:10222C000146154A04F007040BF0070BE40044EADE
:10223C008B1402EA4122144344EA055417350D4429
:10224C0025F00705ADEB050D02ADBAF1000F07D077
:10225C00CDF800907A6B534605F11000FEF76AFD3D
:10226C00434622463146284604F096FF0C37BD46BD
:10227C00BDE8F08F5146D4E700FE0F000EB403B555
:10228C0003AB014653F8042B0448019304F0C6FF3A
:10229C0002B05DF804EB03B0704700BFD7710000CB
:1022AC00CA0605D48B064CBF02490349FFF7E6BFAB
:1022BC00704700BF95830000948300002DE9F04F18
:1022CC0089B09B469DF848300493DDE91393059340
:1022DC00049B0692DDE9157604460D46002B00F0B2
:1022EC00878006F00803079304F054FF06F0020AF7
:1022FC00024600284BD086492046FFF7BFFF804698
:10230C00BAF1000F08D016F0440F42D181492A4689
:10231C002046FFF7B3FF804406F001035BB17E4B10
:10232C00049A7E4953F822207D4B2046002A08BF90
:10233C001A46FFF7A3FF06F00803002B55D0794B84
:10234C00049A794953F822202046FFF797FF054657
:10235C00069B2BB175491A462046FFF78FFF0544A3
:10236C00BBF1000F05D072495A462046FFF786FF95
:10237C0005444544B9F1000F49D1002F4FD1F30763
:10238C0000F1C08031462046FFF78AFFB4E080465A
:10239C00B6E7684B18680028BDD0674B4FF47A7EBF
:1023AC001B68B5FBF3F54FF46162B5FBF0F300FB72
:1023BC001355B3FBF2FA0EFB05F502FB1A323C2166
:1023CC00B5FBF0FCB2FBF1F300FB1C5501FB132237
:1023DC000EFB05F50092B5FBF0F55849CDE901C5AA
:1023EC0052462046FFF74AFF95E706F00805AFE78F
:1023FC00BBF1010F06D1B9F1000F64D1002F7BD0D6
:10240C0000250CE0B9F1000FF8D04D485CE04D48C8
:10241C004D494B46224604F0E6FC002F68D0DFF80D
:10242C002C91DFF82CA1102F31462046B84628BF3E
:10243C004FF01008FFF734FF4FF0000B5D4545DC03
:10244C00059B51461A782046FFF718FF4FF0010BF9
:10245C001BF0070F03D149462046FFF70FFFD84565
:10246C003BD9059B514613F80B202046FFF706FF7E
:10247C000BF1010BBBF1100FEAD1364920464FF09E
:10248C00000BFFF7FBFE5A46059B9A5CA2F120015C
:10249C005F2928BF2E2230492046FFF7EFFE0BF1B3
:1024AC00010BBBF1100F1DD01BF0070F03D14946D8
:1024BC002046FFF7E3FED8455A46E5D84946204664
:1024CC00FFF7DCFEEBE71F48049DA1E749462046D9
:1024DC00FFF7D4FE0BF1010BB0E720492046FFF7C4
:1024EC00CDFEC5E7059BB7EB0807434405939AD18E
:1024FC00049B002B7FF443AF204609B0BDE8F04F9E
:10250C0004F093BE064A05492046FFF7B7FE39E7AB
:10251C009C830000A0830000E07F0000768900000F
:10252C0097830000F47F0000C5830000CB8300007C
:10253C00CF830000AC030020A8030020A983000077
:10254C00F3710000D771000029720000DC830000D9
:10255C00D4830000DE830000E0830000DA830000F7
:10256C002DE9F0410F884B688E6886B005460C4605
:10257C009046C7F382175BB1134A9B1A43F3CF0102
:10258C0000291FDB2078C0F3C200FFF70FFE0346C3
:10259C002146608851F8102B0097C2F34A22002A7A
:1025AC0001EB0204C0F30B1008BF0021CDE90308B6
:1025BC00CDE90114002231462846FFF77FFE06B014
:1025CC00BDE8F0810023E3E7747E0000074A002198
:1025DC000123904206D8064A01B901231360054B2A
:1025EC001860704740085B000121F2E740420F0081
:1025FC00A8030020AC030020014B01221A70704785
:10260C00BF070020014B002019607047C403002055
:10261C00024B034801221A7004F007BEC0070020C9
:10262C002480000010B5064B18680C46FFF742FDDD
:10263C0021460346BDE8104002480F22184700BF50
:10264C00C403002024800000F8B5194D07460E463F
:10265C00042432463946002003F050F9C8B1012356
:10266C002B70144B1B782BB93046F8BD5CB92C7011
:10267C004FF0FF34002003F0B5F90028F4D02B788C
:10268C00002BF3D1F0E7013C41F2883005F0C0FAA1
:10269C00F0E72B7813B1013C04D12C702B78002B74
:1026AC00D7D1E1E741F2883005F0B2FAF6E700BF86
:1026BC00BF070020C0070020014B002019607047A5
:1026CC00DC03002007B50B480DF1070104F0BBFD3E
:1026DC0030B99DF80710012902D1064800F02CFAF8
:1026EC00054B064801221A7004F09FFD03B05DF8FB
:1026FC0004FB00BFC07C0000C3070020508000001A
:10270C0010B5064B18680C46FFF7D4FC214603465F
:10271C00BDE8104002480F22184700BFDC03002020
:10272C0050800000F8B5074F0D4604464618B442D9
:10273C0001D12846F8BD14F8011BBB6801485B6841
:10274C009847F4E7C07C00002DE9F84305464FF0AC
:10275C002003EFF3118683F31288BFF36F8F0E4BB8
:10276C000E4F1C68DFF838804FF00C092CB986F33B
:10277C001188BFF36F8FBDE8F883D4E90123002DD6
:10278C0018BF13462BB198F8102009FB02F2B85C65
:10279C0098472468EAE700BFFC030020F003002000
:1027AC008C05002070B5084D084E2C68013C002C9F
:1027BC0002DA00232B6070BD56F82400012100F0D2
:1027CC00BBF9013CF3E700BFE00300208C010020C3
:1027DC007FB50BAB05930393054B02930023CDE917
:1027EC00003301221846FFF703FD07B05DF804FB28
:1027FC002D84000070B5194B1C7CBFF35B8F04F06B
:10280C001F0301229A40164B610903EB8103D0434D
:10281C0053E8001F01EA000543E80056002EF7D1EB
:10282C00BFF35B8F0A4213D00E4B0F4D8BB10C23B1
:10283C006343EA18E85C517804F0A8FD0020FFF728
:10284C0083FF0C235C432A1900232B51C2E901336B
:10285C0070BD83F31188BFF36F8FEFE78C050020F9
:10286C000404002099730000F00300202DE9F04FC0
:10287C00764B89B01D7C06464FF02003EFF3118890
:10288C0083F31288BFF36F8F0C24714B714F6C4321
:10289C001A19195D00297CD007CA07EB040C8CE8C7
:1028AC00070000221A5588F31188BFF36F8F0C2391
:1028BC006B43FA18FB5C002B00F0BA80731C10D031
:1028CC00D2F808C0644C654A4FF400400021ECFB80
:1028DC00004100232046FDF7FBFB0121301A02F0DA
:1028EC0017F8BFF35B8FDFF8788158E8004F013C95
:1028FC0048E80043002BF8D1BFF35B8FC2469CB96C
:10290C000C236B43FB5C012B0ED007A803F084F85F
:10291C00DFF850B11C23CBF800405843079C1C38FF
:10292C000444079B9C423FD203F0A2FD0120FFF719
:10293C000BFFBFF35B8F4C4B6A0903EB820305F073
:10294C001F0101228A4053E8000F104343E80001A5
:10295C000029F8D1BFF35B8F444B33B10C235D439B
:10296C007B19785D597804F005FDBFF35B8F5AE84D
:10297C00003F5A1C4AE800210029F8D1BFF35B8FB5
:10298C000BB9FFF70FFFFFF735FF03F085FD0120B3
:10299C004FE00146284600F071F8002883D007C8A4
:1029AC003C4484E807007EE7204605F02FF8002819
:1029BC004AD0204604F050FC002845D1204604F0B3
:1029CC005FFC002840D1204604F050FC064600284D
:1029DC003AD10146204600F0AFF820F020037833BE
:1029EC00814631D010F1860F2ED0002824DA012038
:1029FC00246800F095F81E4B1E490394CDE9040998
:102A0C00CDE901630122334630460096FFF7E0FE24
:102A1C00FFF7C8FE0C236B43FE54BFF35B8F58E8E3
:102A2C00003F013348E80032002AF8D1BFF35B8F36
:102A3C00002009B0BDE8F08FDBF800300E4A42F8F8
:102A4C0023400133CBF800301C3C6AE78C05002096
:102A5C00E4030020F00300203F420F0040420F002F
:102A6C000C000020E003002004040020817300000F
:102A7C002D840000DC7E00008C0100202DE9F04F3D
:102A8C0085B00E4603A900F043F81E4B039DD3F806
:102A9C0000A0DFF87480431E1BB203EB4303044613
:102AAC0005EB83054FF400474FF0000B24B9A1460A
:102ABC00484605B0BDE8F08F6868144AC4465946CC
:102ACC00E0FB07C100236046FDF702FB0190A868FC
:102ADC000E4AC4465946E0FB07C100236046FDF789
:102AEC00F7FABAF1FF3FA94601D0824505D9731C0C
:102AFC00DED0019B1844B042DAD9013CA4B20C3DA3
:102B0C00D4E700BF100000203F420F0040420F00EE
:102B1C0008B9024B0B600020704700BF60800000BA
:102B2C0003289ABF024B53F820000248704700BF9D
:102B3C00608000009683000070B5846903460D46E2
:102B4C00002C3AD004F09CFB002839D12148227A81
:102B5C00465CB24237D02048405C904236D1E268A5
:102B6C0018469047002815DA022D11D0032D10D1EC
:102B7C0010F1860F0CD0BFF35B8F231D53E8001FA1
:102B8C0041F0020143E80012002AF7D1BFF35B8F3A
:102B9C00267270BD022D267201D00020F9E7043494
:102BAC00BFF35B8F54E8003F23F0020344E800328C
:102BBC00002AF7D1BFF35B8FEFE76FF05700E8E720
:102BCC004FF0FF30E5E76FF07700E2E76FF085003C
:102BDC00DFE700BF798400007584000001491022F2
:102BEC000A60704710ED00E072B6404080F3118827
:102BFC00BFF36F8FBFF34F8F30BF62B6BFF36F8FD2
:102C0C00704700BF72B6494081F31188BFF34F8FF4
:102C1C0020BF80F3118862B6704700BF70B50646BE
:102C2C0086B00D46002938D08B6805934B68049309
:102C3C000B68039300241C4B1C490293012223466E
:102C4C002046CDE9004404F025FB6B6905932B6904
:102C5C000493EB680393164B14490094CDE901439C
:102C6C0001222346204604F015FBEB690393114B1C
:102C7C000E490094CDE9014301222346204604F07D
:102C8C0009FBAB6903930C4B08490094CDE9014354
:102C9C0001222346204604F0FDFA2946304606B0B0
:102CAC00BDE8704002F0C6BE7D840000D47E0000FA
:102CBC00AC840000DB840000EA84000040B20028F1
:102CCC0007DB044A4109012300F01F00834042F84E
:102CDC002130704700E100E040B200280CDB4309D2
:102CEC00064900F01F0020330122824041F82320C6
:102CFC00BFF34F8FBFF36F8F704700BF00E100E051
:102D0C00054B420900F01F0053F82220012303FA5F
:102D1C0000F01040704700BF00E100E040B2002816
:102D2C00A8BF00F1604001F10101B8BF064B4FEAAA
:102D3C004111ACBF00F5614000F00F00C9B2B4BF47
:102D4C00195480F80013704714ED00E030BFFFF702
:102D5C00FDBF00BF0B4A08B50B4B22F07F029A60F7
:102D6C00BFF34F8FBFF36F8FD3F8882022F470021C
:102D7C00C3F8882002F000FF03F0B4FC00F07CFBE9
:102D8C0002F03AFF0000000000ED00E0094A0A4999
:102D9C00936809689967094958674B6843F08053F1
:102DAC004B60002383F31188BFF36F8F9368986F88
:102DBC00704700BF8C0500201C82000000ED00E075
:102DCC000F498A684FF030001044EFF3098C80E80B
:102DDC00F01F202080F31288BFF36F8F094F4FF044
:102DEC0000668A698A603E60506F0023536780F3E7
:102DFC00118802F1300090E8F01F8CF309887047BD
:102E0C008C05002004ED00E01EF0040F0CBFEFF366
:102E1C000880EFF30980816911F8021C0229FFD0A8
:102E2C0001B504F047FA01BD42F8203C009B42F882
:102E3C001C3C0A49019B42F8183C029B42F8143C8A
:102E4C0021F001014FF0807342F8043C42F8081C59
:102E5C000023203A02654367704700BF736E000081
:102E6C00074B9860104681F30988002163B681F303
:102E7C001188BFF36F8F0022002303F0F4FF00BF13
:102E8C008C05002001B572B60B4A506900281EBF94
:102E9C000021516104F0E1FD62B6EFF30580A0F171
:102EAC0010004FEAC0000549014409C99847BDE824
:102EBC0001400349084700008C050020147D0000E8
:102ECC00D12E0000044B99689869884203D00349BD
:102EDC004FF080520A6070478C05002004ED00E032
:102EEC00F0B585B00024414B0293CDE90044234654
:102EFC0007460E4601223E49204604F0EAF93D4BB6
:102F0C009B6ADD066FD53C4B39490094CDE90143F2
:102F1C0020462346012204F0DCF91120354B9B6A34
:102F2C001C070AD5354B029300231846CDE9003314
:102F3C002F49012204F0CDF912202E4DAB6A9907CE
:102F4C001FD500242E4B029301222346CDE90044C9
:102F5C002749204604F0BDF96B6BAA6A12060FD5FF
:102F6C000393284B22490094CDE9014301222346C7
:102F7C00204604F0AEF91FB1AB6A23F08003AB62BC
:102F8C0013201C4B9B6ADD070AD51F4B02930023B1
:102F9C001846CDE900331649012204F09AF91420A1
:102FAC00144B9B6A9C060AD5184B029300231846B7
:102FBC00CDE900330E49012204F08BF915200D4B9D
:102FCC009A6AD10658BF9A6A9A6A920642BF5A6A9E
:102FDC0022F400525A629A6A42F0FF029A6200236B
:102FEC00337005B0F0BD102098E700BF18850000C5
:102FFC00D47E000000ED00E02E850000618500000D
:10300C00748500008C850000A2850000C18500003D
:10301C00F0B585B00024434B0293CDE90044234620
:10302C0007460E4601224049204604F052F93F4B18
:10303C009B6ADB0465D53E4B3B490094CDE90143CB
:10304C0020462346012204F044F91720374B9B6A93
:10305C001D050AD5374B029300231846CDE90033E2
:10306C003149012204F035F91820304DAB6A9C052A
:10307C001FD50024304B0293012223462046CDE974
:10308C000044294904F025F9AB6BAA6A10040FD54A
:10309C0003932A4B24490094CDE901430122234692
:1030AC00204604F016F91FB1AB6A23F40043AB625F
:1030BC0019201E4B9B6A59050AD5214B02930023FC
:1030CC001846CDE900331849012204F002F91A2000
:1030DC00164A936A13F4807315D01A4B029300238B
:1030EC001846CDE900331049012204F0F2F81B20F8
:1030FC000E4A936A43F47F4393620023337005B006
:10310C00F0BD1620A2E7926A9204F1D50E4A064948
:10311C000093CDE901321846012204F0DAF81C20A4
:10312C00E6E700BFF0850000D47E000000ED00E073
:10313C0006860000618500001786000030860000BE
:10314C004586000060860000C18500001FB5002484
:10315C00374B029301222346CDE9004435492046E2
:10316C0004F0B7F8344B9B6A9A015ED5334B314966
:10317C000094CDE9014320462346012204F0A9F82E
:10318C001E202D4B9B6ADB010AD52D4B029300238D
:10319C001846CDE900332749012204F09AF81F2084
:1031AC00254B9B6A1C030AD5264B02930023184619
:1031BC00CDE900331F49012204F08BF821201E4B6E
:1031CC009B6A59030AD5204B029300231846CDE97C
:1031DC0000331849012204F07CF82220164B9B6A1C
:1031EC009A030AD5194B029300231846CDE90033F4
:1031FC001049012204F06DF823200F4B9B6ADB036E
:10320C000AD5134B029300231846CDE90033094924
:10321C00012204F05EF82420074A936A6FEA034304
:10322C006FEA1343936204B010BD1D20A9E700BFE1
:10323C0078860000D47E000000ED00E0908600004F
:10324C00A3860000BD860000DB860000008700001E
:10325C001A8700002DE9F041724B5F6890B006466A
:10326C00C7F30804002383F31188BFF36F8F02F0B8
:10327C007F40B0F17F4F0CD102F00C00082819D11F
:10328C00694A6A490093CDE901321846012204F0DB
:10329C0020F800252E464FF00008E31E8DF81F8005
:1032AC00092B00F2A580DFE803F00B999D95A3A3F1
:1032BC00A3A3A3A1120746BF0E461D460125EAE7AC
:1032CC005B4B5A49574FCDF80080CDE90183002361
:1032DC000122184603F0FDFF8DF81F80FC6A14F0E4
:1032EC00020405D0534BCDF80080CDE9018306E0F4
:1032FC00FB6A002B0BDA504B0094CDE90143002301
:10330C004A490122184603F0E4FF002439E0FB6A25
:10331C005B00FAD5494B45490094CDE901430122A4
:10332C002346204603F0D5FF7B69B26943F48073D2
:10333C007B61BFF34F8FBFF36F8F7B6932F8022C29
:10334C0023F480737B61BFF34F8FBFF36F8F4DF608
:10335C0002739A4208D0BB6ADBB26BB30DF11F014A
:10336C000120FFF7BDFD37E033680393344B009425
:10337C00CDE90143204623462C49012203F0A9FF45
:10338C0034689DF81F30A3B9202231460DEB0200A2
:10339C0003F0D9FF0F9B002D3ED0C3F3080222B9D6
:1033AC006FEA53236FEA43230F9308A92046FFF7D4
:1033BC0035FC10B0BDE8F081BB6A13F47F4F05D02B
:1033CC000DF11F010120FFF723FE05E0BB6AB3F5E9
:1033DC00803F9AD3FFF7BAFE0446D2E70DF11F01E6
:1033EC000020BEE70DF11F010020ECE7154B7AE73A
:1033FC00154A164B0D4917F4F87F18BF1346103CAD
:10340C00CDE90334124B02930023CDE900330122A2
:10341C00184603F05EFF78E723F4FF7323F00103F3
:10342C00C2E700BF00ED00E073870000D47E00000F
:10343C009E870000B5870000D6870000E487000057
:10344C00038800001F8800005A8700004587000091
:10345C0043880000024A536943F0100353617047DC
:10346C0000ED00E0EFF30880EFF3098101B572463F
:10347C00FFF7F0FE01BD00BF044800232021C21855
:10348C000133272B82F80013F9D1704700E100E0DB
:10349C00002080F31488BFF36F8FFEF7A1FD00208E
:1034AC000D490860BFF34F8F0C4880F3088800F07B
:1034BC002BF8202080F3118809484FF40061401844
:1034CC0080F30988EFF314800221084380F31488F9
:1034DC00BFF36F8FFFF73EFC94ED00E02019002046
:1034EC00E00B00200749D1F890200023C2F30722FB
:1034FC001846934200DB7047C1F89830C1F8A00021
:10350C000133F6E700ED00E008B572B6002383F353
:10351C001388FFF7E7FF144B4FF0FF32C3F88020FE
:10352C00C3F88420C3F88820C3F88C20C3F89020FB
:10353C00C3F89420C3F89820C3F89C20C3F88021CA
:10354C00C3F88421C3F88821C3F88C21C3F89021D7
:10355C00C3F89421C3F89821C3F89C2162B6BFF339
:10356C004F8FBFF36F8F08BD00E100E0084B9B68E5
:10357C0083420BD1EFF3058343B1064B5A6842F0FB
:10358C0080525A605A6A22F400425A6203F04AB8D6
:10359C008C05002000ED00E0024B034A034801219A
:1035AC0000F076B8000001200000002070800000C0
:1035BC00F0B5284E85B000258D4215DA4468002CF4
:1035CC0045D0D3B104F1FF3C14EA0C0F0FD0224BC1
:1035DC000395029300230122CDE900331F491846BD
:1035EC0003F087FE6FF01502104605B0F0BD1F2CDE
:1035FC00EDD907681CEA070FE9D1202C0768D0F831
:10360C0008C05FFA82FE10D9B4F1004F0FD8013C0C
:10361C00B4FA84F4C4F11F046400BEF1070F4CEA41
:10362C00040C06D90E4B0392D3E70824F5E73E248D
:10363C00F3E727F01F04144344F01004C6F8982055
:10364C00C6F89C404CF00104C6F8A040013201358C
:10365C000C30B1E700ED00E05A880000CC7E000091
:10366C007D880000044B0522C3F89420BFF34F8FD4
:10367C00BFF36F8F704700BF00ED00E0BFF35F8FAB
:10368C00024B0022C3F89420704700BF00ED00E00D
:10369C0010B5034C01232278FFF78AFF207010BD70
:1036AC00C407002014490868082810B521D8FFF772
:1036BC00E5FF124C49680022904201F10C0105D142
:1036CC000F4B1870FFF7CEFF002010BDC4F89820E8
:1036DC0051F80C3C23F01F03134343F01003C4F8C0
:1036EC009C3051F8043C43F00103C4F8A030013283
:1036FC00E2E74FF0FF30E8E77C80000000ED00E0EF
:10370C00C4070020014B1860704700BF1400002054
:10371C004FF02003EFF3118283F31288BFF36F8F06
:10372C0006490123C1F840354FF08041C1F8783586
:10373C0082F31188BFF36F8F0020704700E00140C7
:10374C004FF08043C0B2C3F81C05BFF34F8F05493F
:10375C00054BCA6802F4E0621343CB60BFF34F8F92
:10376C0000BFFDE700ED00E00400FA0520B1034BBB
:10377C00800143F001031847704700BF707F0000C1
:10378C00084B70B5C31A0D4607499B1004465943A4
:10379C000648402203F01CFE2B4601462046BDE89D
:1037AC00704018471C040020B76DDBB6887C000005
:1037BC0073B50C4C0C4A4023041B00930D460B466E
:1037CC000A49A41061430646094803F02DFE011E68
:1037DC0005DA30462B4602B0BDE87040184702B0FF
:1037EC0070BD00BF1C0400209F740000B76DDBB6D9
:1037FC00887C000010B54FF02003EFF3118483F3A5
:10380C001288BFF36F8F074A136823F00201DB079E
:10381C00116002D4012004F03EF884F31188BFF348
:10382C006F8F10BD6C040020002270B5012104467E
:10383C001046FFF773FA0F4801F0CAFA0E4B984284
:10384C0015D104F01BF826690C49304603F065FBD2
:10385C0000280BDB012535642469084904F11C00A0
:10386C0003F05BFB002801DBE564002070BD6FF00A
:10387C000400FBE7C13800000000AD0B9C80000089
:10388C0070B501460C2309484B43C418D4E90E56B5
:10389C00403300221844A26303F087FD2DB1324659
:1038AC002B460348BDE87040184770BD1C0400202F
:1038BC00887C000010B1012804D07047034B1B6CAE
:1038CC005B0701D1FFF7DCBF704700BF1C04002071
:1038DC0008B54FF02003EFF3118183F31288BFF387
:1038EC006F8F124A136843F002001060DA0708D495
:1038FC0081F31188BFF36F8F0120BDE8084001F000
:10390C0077BA4FF08043D3F80C24D3F80C34D30798
:10391C00EED5074803F049FD81F31188BFF36F8F93
:10392C000020BDE80840FFF7ABBF00BF6C040020CF
:10393C005C0400201FB500220123CDE90223094AB3
:10394C00CDF800D06B46CDF804D003F09BFD0028D9
:10395C0005DB4FF480420023684602F03BFB05B0C8
:10396C005DF804FBB774000010B5074C23782BB935
:10397C004FF4A57004F04CF901232370BDE81040FE
:10398C00002001F035BA00BFC50700202DE9F04139
:10399C003849BFF35B8F0746012251E8003F41E8ED
:1039AC0000200028F9D1BFF35B8F33B9324933487B
:1039BC004B60CB608A6003F0C3FA7B1E012B2BD8C3
:1039CC00012F07D14FF08043D3F81C3403F00303CD
:1039DC00012B21D004F039F80546F8B9284B1B7897
:1039EC00E3B14FF080430222C3F808230646DFF808
:1039FC0094804FF08044D4F81834D4F81824D203AF
:103A0C0016D503F00303012B01D0012F10D15DB3A8
:103A1C0086F31188BFF36F8FBDE8F0814FF0200360
:103A2C00EFF3118683F31288BFF36F8F0125DEE766
:103A3C00ADB13046FFF7E6F8D4F81835002BDAD1E3
:103A4C00D4F80421002AD6D0C4F80431D4F80431B7
:103A5C000123C4F81835C8F88031A360CBE70021E6
:103A6C00212002F0BFFDE7E74FF080430222C3F8AC
:103A7C000423D1E718040020080400203804002097
:103A8C00D70B002000E100E010B5044C2046FDF7F8
:103A9C0027FB2046FFF736FE002010BDAD3A000094
:103AAC00F7B5134E8DF807000446032501F0A4FF6B
:103ABC0001220DF10701002001F068FF074601F01B
:103ACC00A5FF27B101233370204603B0F0BD337836
:103ADC00002BF9D0013D08D003F0B7FF0028E5D149
:103AEC000021422002F07EFDE0E73570ECE700BFDC
:103AFC00C607002008B5074803F088FF38B1064810
:103B0C00FFF700FE0448FDF7EBFA002008BD6FF04C
:103B1C001200FBE7C07C0000293B00000A2838B5E6
:103B2C00074D044604D1AB680D215B6828469847C5
:103B3C00AB6803485B68E1B29847204638BD00BFCC
:103B4C00C07C000030B54068057B01F01F04B2F565
:103B5C00001F85B044EA451405D1204601F00CFC49
:103B6C00002005B030BD0025B2F5800FCDE902551F
:103B7C0014D1B3F1007F0CBF042305238DF808305A
:103B8C000023194602AA204601F02CFA1D4B98423C
:103B9C0035D10121204601F0ABFBE1E7B3F1C06F59
:103BAC0022D0B3F1007F14BF012302238DF808301B
:103BBC008368CB40D907E3D4B2F1A07FE0D104F005
:103BCC001F0303F5E0734FF0A04252F82330DB07DC
:103BDC00D6D40DF107052946204601F035FB0A4BDA
:103BEC00984203D00395CBE70323DFE7284601F087
:103BFC0079FB044B9842F5D06FF00B00B1E76FF0F6
:103C0C001500AEE70000AD0B0400AD0B10B501F0D4
:103C1C0059FB044668B901F02DFB084B98420AD1B8
:103C2C000748214601F00AFB224605210620FFF732
:103C3C0075F8002010BD6FF00400FBE70000AD0B21
:103C4C00513C0000430970B507D10B4B596821B1A9
:103C5C0001250C68094E854001B970BD8A682A405F
:103C6C0002D04B68304698471CB1236821461C464D
:103C7C00F2E72346FAE700BF70040020A47C0000A2
:103C8C002DE9FF4147683B7B01F01F0545EA4315D1
:103C9C000E4628460DF10301144601F0D5FA14F432
:103CAC00403F80460BD1284601F08EFB3D4B98459A
:103CBC0003D19DF8030001F00FFB00200CE0002362
:103CCC00194602AA2846CDE9023301F08BF9354B8F
:103CDC00984204D06FF0150004B0BDE8F081804527
:103CEC0003D19DF8030001F0F7FAA3034BD540F282
:103CFC0006332340B3F5837F19D00CD8062B17D08D
:103D0C0004D8ABB1022BE5D1042311E0B3F5807FCD
:103D1C00E0D101230CE040F20222934227D0B3F50C
:103D2C00407F26D0B3F5007FD4D1022300E00723D7
:103D3C008DF8043084F48033C3F30043E0068DF82F
:103D4C00053054BFC4F34013032321038DF8063010
:103D5C0011D57A680123B340C2F80835002201A9B5
:103D6C00284601F0EDF90F4B9842A6D0B2E7052397
:103D7C00DEE70323DCE7620341BF01237A68B3402B
:103D8C00C2F80C35EAE7E3064FF0000354BFC4F366
:103D9C00401403241A4601A928468DF8044001F06A
:103DAC0021F9E0E70000AD0B074BD3F8082142B135
:103DBC000020C3F80801D3F80821D3F818350B708C
:103DCC0070474FF0FF30704700200040024BD3F893
:103DDC008004C3F8800470470020004010B54B7974
:103DEC00012B1CD18B79032B19D1CB79BBB90A7957
:103DFC0012B1022A13D10E220B68B3F5164F5ED006
:103E0C002BD8B3F5165F5CD014D8B3F5966F5AD097
:103E1C0008D8B3F5967F59D0B3F5167F59D06FF00B
:103E2C0085004BE0B3F5166F56D0B3F5965FF6D11F
:103E3C00334B39E0B3F5E14F51D007D8B3F5615F9F
:103E4C004FD0B3F5964FEAD12E4B2DE047F6122406
:103E5C00A342E4D14FF4000326E0B3F5613F43D015
:103E6C0011D8B3F5963F41D008D84DF6C024A342E3
:103E7C003ED0B3F5614FD2D1234B15E0B3F5E13F02
:103E8C00CDD1224B10E0B3F5612F34D007D8204CA4
:103E9C00A34232D0B3F5E12FC1D11E4B04E01E4C2E
:103EAC00A342BCD14FF0805304691C48C0F82435A0
:103EBC00C0F86C2503C984E80300002010BD184B22
:103ECC00F2E7184BF0E74FF49E23EDE74FF4A033E5
:103EDC00EAE74FF41C33E7E74FF41D23E4E7124BFA
:103EEC00E2E74FF46C13DFE7104BDDE7104BDBE739
:103EFC004FF46503D8E70F4BD6E74FF08063D3E759
:103F0C0000B0130000A04E0000F0EB0000E0D70161
:103F1C0090D0030000705F0740420F00002000406B
:103F2C0000509D000050270000F0750000B0AF035A
:103F3C0000903A0100D0BE0EF8B50E4603F085FD98
:103F4C001A4D78BB64240127BFF35B8F55E8003F03
:103F5C00002B03D145E80072002AF7D1BFF35B8F29
:103F6C0007D021200021013C02F03CFB14F0FF049F
:103F7C00EAD10F4C0023C4F81C31D4F81C310123B6
:103F8C00A360C4F81C654FF47A76D4F81C3123B9BD
:103F9C00012003F071FC013EF7D10123E360002303
:103FAC002B60F8BD01232B60E3E700BF7C040020ED
:103FBC000020004010B50C46436871B1012916D1A0
:103FCC001868002103F06BFB002805DB094B042269
:103FDC00C3F8002500201C6010BD064AC2F800156D
:103FEC001868012103F05BFB00EAE070F4E76FF066
:103FFC008500F1E70020004070B50D4C4368066960
:10400C000021C4F800150546186803F048FB002889
:10401C000DDB31462846FFF7E1FE40B90423C4F816
:10402C000035C4F80801D4F808310123236070BDB1
:10403C00002000402DE9F04144680569206A86B0F3
:10404C00002103F068FB002822DBE3699847AC6889
:10405C000126D5E9023203EBC2039C4204D3284665
:10406C0003F0B8FB002013E0206803F0CFFC0346FC
:10407C0088B9227904922268184912680392184A66
:10408C000090CDE90102012203F035FB6FF0120024
:10409C0006B0BDE8F08120682179E388D0F810C023
:1040AC00D0F80880DCF80070DA0754BF43F4B01382
:1040BC0083F4D01323F4801206FA01FEDB074CBF05
:1040CC0047EA0E0727EA0E07CCF80070D8F8003044
:1040DC0098470028DCDB0834BBE700BFF47E000007
:1040EC00FB8800007FB5054640682A69936C116D0A
:1040FC00E3B9A9B1546C91651E460B46D26C029281
:10410C00CDE90046EAB1002918BF194603910022F7
:10411C00694601F025FB0D4B984214D06FF0040159
:10412C00286904B0BDE8704003F076BB546C11B143
:10413C008B4228BF0B46002C936514BF1E460026ED
:10414C00DCE71146E2E704B070BD00BF0000AD0B28
:10415C001FB503780C46002B5ED1896D41B9636D98
:10416C0018696FF0730104B0BDE8104003F054BB44
:10417C00A26C52B191421DD9284A29490093CDE92C
:10418C0001321846012203F0B6FA236DA26D5BB121
:10419C009A4228D9214B02930023CDE900332049C0
:1041AC000122184603F0A7FA606D04B0BDE8104078
:1041BC00FFF798BF521AA2647AB9636B0833636332
:1041CC00A36B013BA36304F1480204F1380104F131
:1041DC00340003F07DFA6064D7E7636C002BD4D015
:1041EC000B446364D1E79B1A23657BB9E36B0833FB
:1041FC00E363236C013B236404F1500204F140019E
:10420C0004F13C0003F064FAE064CDE7E36C002BAE
:10421C00CAD01344E364C7E704B010BD1F89000083
:10422C00F47E00002DE9F04F8FB099464368079358
:10423C008B880469884699040746924635D44FF01A
:10424C00FF324FF0FF3304F1100001F0C3FEC4F84D
:10425C000480D7F810B07B6805939BF85D3006930B
:10426C0023B1DBF80030984500F0BE80B8F804604C
:10427C0016F4006320D0AA4B02930023CDE900333F
:10428C00A8490122184603F036FA6FF08505236819
:10429C009B8813F4005304D1636004F1100001F007
:1042AC0079FE28460FB0BDE8F08FA369002BC6D16C
:1042BC0063689845C3D1CCE716F001020DD03A687B
:1042CC000392994A97490093CDE90132184601228D
:1042DC0003F011FA6FF01505D9E716F008030AD0B0
:1042EC00924B0092CDE9012313468E4901221846C8
:1042FC0003F001FAEEE7C6F34512082A04D08C4A03
:10430C000093CDE90132F0E7D8F80050894A954284
:10431C0001D8894AF4E7059B03F1080EBEE80F00AB
:10432C000DF1240CACE80F00DEF80030CCF80030B6
:10433C00824B9D4240D9824B9D4240D9814B9D423C
:10434C0040D9814B9D4240D9804B9D4240D9804BF6
:10435C009D422CBF4FF000454FF08045B2070B95A6
:10436C0006F0040337D5002B14BF032302238DF86A
:10437C003030069BC6F300168DF831602BB10598D2
:10438C0001F09CF900238BF85D305B46714A05986F
:10439C0009A901F0E5F8704B984220D06F4B0293BD
:1043AC0000230390CDE900335E490122184603F047
:1043BC00A2F96FF004056AE74FF00075CEE74FF0F5
:1043CC008065CBE74FF00065C8E74FF08055C5E737
:1043DC004FF00055C2E7003B18BF0123C7E701238C
:1043EC008BF85D30CBF80080012384F85C30BAF197
:1043FC00000F70D1C4F834A00023A36304F1480269
:10440C0004F1380104F1340003F062F96064B9F18D
:10441C00000F68D1C4F83C900023236404F15002CF
:10442C0004F1400104F13C0003F052F900252A4646
:10443C00E06401212046256303F0AAF93846FFF712
:10444C0051FEA06B2A462B46834254D10023256C87
:10445C001946A94256D19342264638BF13464FF40B
:10446C00FA5202FB03F556F8203B4FF000081B688C
:10447C00B5FBF3F54FF4004CC835414640F2E7303C
:10448C004FF47A720023E5FB0C01FBF721FE024688
:10449C000B46304601F09EFD00283AD0304B2149A6
:1044AC00CDF80080CDE9018301224346404603F05C
:1044BC0022F900250798A56501F000F984F85D50F4
:1044CC0038696FF0730103F0A7F9304601F0AAFDCB
:1044DC006FF07305DBE6DAF800306363002B8BD0EA
:1044EC00DAF8043089E7D9F80030E363002B93D075
:1044FC00D9F8043091E7616B01EBC30101334968D2
:10450C000A44A1E7E06B00EBC100013140680344B1
:10451C009FE7256B15F1740F7FF4B9AEC9E700BFA7
:10452C003D890000F47E0000578900007989000065
:10453C009889000047E80100C78900008FD003006C
:10454C001FA107003F420F007F841E00FF083D00A3
:10455C0000127A005D4100000000AD0BF8890000EC
:10456C001F8A000070B5012383400E4ABFF35B8F96
:10457C00DC4352E8001F01EA040542E80056002E15
:10458C00F7D1BFF35B8F4FF4803282400648C0F8FE
:10459C000823BFF35F8FBFF36F8F0B4214BF012053
:1045AC00002070BD840400200010014070B40E493E
:1045BC00D1E90034D01AC31844F1000422F07F462C
:1045CC00C1E90034A6F50013B3F5400F09D2074B2F
:1045DC001B681A0A1B069C19054B42F10005C3E91E
:1045EC00004570BC02F054B9C001002088040020C2
:1045FC00C801002011B3BFF35B8F0123104A834025
:10460C0052E800CF4CEA030C42E800C10029F7D174
:10461C00BFF35B8F0B4A4FF480338340C2F80433F3
:10462C00094BBFF35B8F1B68BFF35B8FC340DB078A
:10463C0042BF064B4FF40032C3F80021704700BF55
:10464C0084040020001001408004002000E100E000
:10465C000D4B1868010A0006BFF35F8F0B4BD3F8A4
:10466C000435181841F10001B3F5801F0AD2084B2C
:10467C00D3E90023904271EB030303D210F1807055
:10468C0041F10001704700BF880400200010014078
:10469C00C80100202DE9F74F16461F460446FFF7C8
:1046AC0061FF0090FFF7D4FFB04271EB070351D2CA
:1046BC003A4B301A67EB0101984271F100016AD252
:1046CC00374B03EB0413D3E902239F4208BF9642F6
:1046DC004ED034494FF4803904F1500509FA04F9ED
:1046EC00AD00C1F848932046ADB203F0A6F826F011
:1046FC007F4B05F1804504F5A8732B4A019305F512
:10470C008835DC464FF0030A019B2CF07F4041F8C2
:10471C002300C1F84493D1F804856FF00200A0EB9C
:10472C000800604420F07F40904221D9286860B195
:10473C00D1F80485A8EB0B0020F07F40B0F5000FFA
:10474C0016D9204603F079F8174A0AEB080C0AF13F
:10475C00010AD9E70123154ABFF35B8FA34052E846
:10476C00000F184342E800010029F8D1BFF35B8F1A
:10477C000B490C98230101EB0412C2E90267C850E3
:10478C000D9B5360002520460099FFF733FF284608
:10479C0003B0BDE8F08F6FF01505F4E70100800061
:1047AC00B001002000100140FDFF7F0080040020BC
:1047BC0073B51B4C1B4BC4F80833C4F848331A4B65
:1047CC0000254FF0FF304FF0FF31C4F80855C3E916
:1047DC0002014FF48033C4F80433144B02264FF417
:1047EC0000320121C4F804631120C3F880212A4649
:1047FC00FEF794FA1120FEF761FA0D4A0123A3602B
:10480C00236013600B4B0C4A009301950023284640
:10481C00FFF740FF3046FFF7B9F8284602B070BDED
:10482C000010014003000F00B001002000E100E087
:10483C0084040020B9450000FFFF7F002DE9F743F9
:10484C002F4CD4F8043399070BD5D4F8043143B169
:10485C002C4A0023C4F80431D4F804311368013312
:10486C001360D4F80433DA032AD5BFF35B8F264BDD
:10487C0053E8002F22F0010143E800100028F7D183
:10488C00BFF35B8FD30702D4D4F84031C3B10025FA
:10489C00C4F84051D4F84031FFF7DAFE4FF0200352
:1048AC00EFF3118283F31288BFF36F8F174BD3E9A9
:1048BC000267B042B94106D282F31188BFF36F8F01
:1048CC0003B0BDE8F0834FF0FF384FF0FF39C3E978
:1048DC000289D3E900101D604FF48033C4F84833CB
:1048EC00C4F84051D4F8403182F31188BFF36F8F74
:1048FC000029E5D0009032463B4628468847DFE742
:10490C00001001408804002080040020B001002029
:10491C00431C13B522D0012822DD124A124B9042BF
:10492C00D4BF04461C46FFF793FE104B0E49D3E947
:10493C000023801AB0F5000F28BF002404448C42D9
:10494C0028BF0C46A2180A4900914FF000000190B4
:10495C0043F10003FFF79EFE02B010BD024CE2E7EC
:10496C000124E0E7FEFF7F00FFFF7F00C001002075
:10497C00B945000008B5FFF76BFE024B1B68C01A67
:10498C0008BD00BFC00100207FB50BAB059303939E
:10499C00054B02930023CDE9003301221846FDF7A5
:1049AC0027FC07B05DF804FB6C8A00001FB5FDF70F
:1049BC00ABFB0024064B02932046CDE9004405498D
:1049CC0023460122FFF7E0FF2046FEF7B9FE00BFA9
:1049DC006C8A0000AC7E00004FF0704393F8E02F1F
:1049EC00062A09D1D3F8E83FC3F30313033B042B86
:1049FC0002D8024AD05C704700207047988A0000A9
:104A0C00024AD2F80034002BFBD0704700E0014082
:104A1C0010B502F022FF40B14FF080538E4AD3F80C
:104A2C002433C3F30423C2F84035FFF7D5FF10B18C
:104A3C008A4B8B4A5A6702F010FF48B14FF08053F3
:104A4C004FF08042D3F84432C3F34233C2F83C35C2
:104A5C00FFF7C2FF30B1834AD2F8FC3023F08073E9
:104A6C00C2F8FC3002F0F9FE40B14FF08043002256
:104A7C00C3F80C21C3F81021C3F83825FFF7ACFF9D
:104A8C0020B14FF080430322C3F8A025FFF7A4FF09
:104A9C0060B1754B0522C3F810260122C3F8882695
:104AAC000022C3F818263F22C3F814264FF0805377
:104ABC00D3F83021511C09BF4FF07043D3F8343177
:104ACC0093F8E02FD3F8E83F08BFC3F30313062A8B
:104ADC004DD1033B042B03D8644AD35C002B46D046
:104AEC004FF08052624BD2F80414C3F82015D2F860
:104AFC000814C3F82415D2F80C14C3F82815D2F8EE
:104B0C001014C3F82C15D2F81414C3F83015D2F8BD
:104B1C001814C3F83415D2F81C14C3F84015D2F885
:104B2C002014C3F84415D2F82414C3F84815D2F84D
:104B3C002814C3F84C15D2F82C14C3F85015D2F81D
:104B4C003014C3F85415D2F83414C3F86015D2F8E5
:104B5C003814C3F86415D2F83C14C3F86815D2F8AD
:104B6C004014C3F86C15D2F84424C3F8702502F035
:104B7C0074FE48B14FF080534FF08042D3F8583256
:104B8C0003F04F03C2F8E43E02F067FE48B14FF069
:104B9C008043D3F80024D20744BF6FF00102C3F85E
:104BAC0000244FF08053D3F83021062A26D1D3F8B5
:104BBC003431033B042B02D82E4AD35C63B12E4A0A
:104BCC00D2F83C3743F48063C2F83C374FF0805343
:104BDC00D3F83031062B11D14FF08053D3F8343148
:104BEC00033B042B02D8254AD35C3BB14FF0102376
:104BFC00D3F808224FF08043C3F858254FF0102308
:104C0C00D3F80022002A03DBD3F80432002B22DA7B
:104C1C001B4901234FF01020C1F804351524FFF770
:104C2C00EFFEC0F80042FFF7EBFEC0F80442FFF7BE
:104C3C00E7FE0023C1F80435FFF7E2FEBFF34F8F08
:104C4C000849104BCA6802F4E0621343CB60BFF30F
:104C5C004F8F00BFFDE710BD0030014000C0074082
:104C6C000DF0ADBA00ED00E000500040938A00005A
:104C7C0000C000408E8A000000100040898A0000AD
:104C8C0000E001400400FA0570B501250268BFF38D
:104C9C005B8FB2FA82F3C3F11F03DBB205FA03F4A4
:104CAC0022EA040450E8006F964204D140E8004C1C
:104CBC00BCF1000FF6D1BFF35B8FE7D101480B704D
:104CCC0070BD00BF0000AD0B10B50368CB40DB0717
:104CDC0014D401238B400268BFF35B8F43EA0201BB
:104CEC0050E8004F944204D140E8001CBCF1000F86
:104CFC00F6D1BFF35B8FEED1014810BD0148FCE744
:104D0C000000AD0B0400AD0BF7B5044618B101283B
:104D1C0022D003B0F0BD4FF080430222C3F8082329
:104D2C00C3F80401D3F804210122DA6007460123F9
:104D3C008DF8073042F210754FF08046CCB1012C43
:104D4C00E7D1C7B3D6F80C3403F001033B70D6F8A7
:104D5C000C34DA0321D516E04FF080430022C3F85F
:104D6C000803C3F80021D3F8002158600DF10707A0
:104D7C00DDE7B7B1D6F8183403F003033B60D6F87F
:104D8C001834D803C5D59DF80700012803D102F0CB
:104D9C0073FD013DD2D1012CBBD10C4B00225A71B9
:104DAC00B7E7D6F81834D903B3D5012002F064FD67
:104DBC00013DF6D1ADE7D6F80C34DB03EDD501207F
:104DCC0002F05AFD013DF6D1E7E700BF8C0400204C
:104DDC00044B1A7922B9012218609A800248704754
:104DEC00024870478C0400200000AD0B0C00AD0B8A
:104DFC0038B510B1012843D038BD4FF08042D2F8FD
:104E0C001834D2F81814C8030BD4D2F81434D907B8
:104E1C000FD5D2F81C349B0708D40223C2F80433F4
:104E2C00EAE703F00303012B04D013B10020FFF7D2
:104E3C006BFF00234FF08042C2F818350023C2F8F4
:104E4C000431D2F804310223C2F80433124AD2F8E6
:104E5C00FC0040F08073C2F8FC30104B1C6844F02E
:104E6C00010119605D685968491BB1F50A5FFAD3F5
:104E7C001C604FF08043C2F8FC0001229A60BBE733
:104E8C004FF080430022C3F80021D3F80021C3F86F
:104E9C0004031860B0E700BF00ED00E0001000E074
:104EAC0010B54FF08043D3F800216AB10022C3F84B
:104EBC000021D3F800210122C3F80823114B5879A3
:104ECC0010B95A711B6898474FF08043D3F80421EE
:104EDC0072B10022C3F80421D3F80421D3F81824AA
:104EEC00D3F81814920704D10122C3F818259A603C
:104EFC0010BD0222C3F80823024BBDE810401B680A
:104F0C00012018478C040020034B083033F81000A4
:104F1C00C0F34010704700BF1001002070B500F1C5
:104F2C0008030C4C34F81330DA0505460E4607D549
:104F3C00C3F3432304EBC30254F83330526898474D
:104F4C00A3682BB1E26831462846BDE8704018478B
:104F5C0070BD00BF1001002010B4124A083032F8A6
:104F6C001030D9051BD5C3F3432123F4F85322F891
:104F7C00103002F10E04002034F8023F13F4807F4D
:104F8C0003D0C3F34323994209D001302028F3D135
:104F9C00002342F83130044810BCFFF795BE10BC1A
:104FAC00704700BF100100206401002038B5024694
:104FBC00FFF7AAFF094C02F1080540B134F815308F
:104FCC0007495B0B03F5A273002041F82300104640
:104FDC00FFF7C2FF002324F8153038BD1001002064
:104FEC00006000402DE9F34104461D4609B34F4FC4
:104FFC0000F1080837F81860B30706D5FFF784FFEF
:10500C0018B14B4802B0BDE8F08104F01F039B00BF
:10501C0003F1A0430978D3F8000726F0020620F02C
:10502C000F0046F0010640EA810127F81860C3F82A
:10503C0000179AB13D4B1778506804F1080633F805
:10504C00161011F0020F0DD00028DAD133F816200B
:10505C0022F01C0242EA870223F81620002D3BD1D5
:10506C003448CFE721F02001C904C90C23F81610ED
:10507C000028EBD0032FC4D8526892F800C02FB987
:10508C002D4A0CF5A27C42F82C70DFE74FEA8C021B
:10509C0002F1804202F5C04241EA4C31D2F81005CF
:1050AC0020F00300C2F81005D2F8100520F44730A8
:1050BC0020F44070C2F810052002D2F810E500F47C
:1050CC00F85040EA074040EA0E0041F0200123F876
:1050DC001610C2F81005B9E7D5E900672046FFF7AE
:1050EC003BFF002EBCD0114DD5E90023964201D1D7
:1050FC009F4219D011480DF10701FFF7C5FD0D4B6B
:10510C0098427FF47FAF9DF8072045F8326005EB9D
:10511C00C20308345F6035F8143043EA422343F489
:10512C00807325F814309BE70022EEE71001002075
:10513C000400AD0B0000AD0B0060004064010020CA
:10514C00F8B5044689B33A4E00F1080736F8175003
:10515C00AB0704D4FFF7D8FE08B13648F8BD15F0FC
:10516C001C0F4B7824D104F01F0000F5E07E4FF0AB
:10517C00A04C5B005CF82EC091F802E009782CF48E
:10518C00E16C43EA8E032CF0070C43EA0C0343EA70
:10519C00012300F5E0704FF0A04143F0010345F00E
:1051AC00030541F8203026F8175022B92248D5E7DC
:1051BC00012BD8D1D1E71E4E04F1080736F81700A1
:1051CC008307CAD592F800C06146890020F0200000
:1051DC0001F18041C00401F5C041C00C26F8170054
:1051EC000023C1F810355578002DDFD0D1F81035DB
:1051FC00927823F4981323F4F853C1F81035D1F8AE
:10520C0010E5230203F4F8532D0443EA0E0305F4CE
:10521C00403512052B4302F4801240EA4C30134304
:10522C0040F0200026F81700C1F81035BEE700BF8B
:10523C00100100200400AD0B0000AD0B014BC3E9C5
:10524C00020170471001002008B50246FFF75CFE12
:10525C0038B1054B0548083233F812305B0B0B7034
:10526C0008BD0348FCE700BF100100200000AD0B97
:10527C000400AD0B38B50F4C94F85850BDB9402212
:10528C00294604F1100002F069F80620FDF716FD1E
:10529C00094B0A48C3F87C51D3F87C214FF00042EB
:1052AC00C3F80423012384F85830636538BD0448DF
:1052BC00FCE700BF10010020006000400000AD0BB7
:1052CC000500AD0B034B93F85800003818BF0120B4
:1052DC00704700BF1001002001460148FFF7F4BCE5
:1052EC006001002001460148FFF7CEBC60010020A0
:1052FC0010B50246FFF708FE02F108041C4B33F808
:10530C001430E0B113F0020419D15B0B9A0002F1D6
:10531C00804000F5C24002F1804202F5C0420460B8
:10532C000068D2F8100540F00100C2F8100529B150
:10533C00012202FA03F30F4AC2F8043310BDC3F37F
:10534C008203042B10D0052B10D04FF0A043D3F8C0
:10535C00101502F01F03D94001F001010231BDE824
:10536C001040104602F099BA0321F8E70221F6E743
:10537C00100100200060004008B50246FFF7C4FD94
:10538C00C0B102F108010E4B33F81130990711D45A
:10539C005B0B01229A409B000A4903F1804303F501
:1053AC00C043C1F80823D3F8102522F00302C3F838
:1053BC00102508BDBDE808400021104602F06DBA6A
:1053CC00100100200060004010B50D4B00F10802E8
:1053DC00044633F81230DB070FD5FFF7CDFF20461C
:1053EC0004F01F04FFF7E2FD04F5E0744FF0A04356
:1053FC00022243F82420034810BD0348FCE700BFF9
:10540C00100100200000AD0B0400AD0B2DE9F74F8F
:10541C004F4B50485049002501222C461E6836B18E
:10542C00D0F8046316421EBF1C601E68154304337B
:10543C008B424FEA4202F1D1464BD3F87C31BBB1DF
:10544C004FF0A046D6F820350193C6F8203501AFB1
:10545C004FF00108019C8CB93E4BC3F87C41D3F84A
:10546C007C31D6F820350193C6F82035002BEED1CF
:10547C000124002D53D103B0BDE8F08F94FAA4F4AD
:10548C00B4FA84F4354A04F10803E00832F8131036
:10549C003B5C04F0070208FA02F223EA02033B54D5
:1054AC00A30003F1A049C1F3820AD9F80027CB0667
:1054BC00D346C2F3014218D5594620465FFA82FA08
:1054CC00FFF72CFDD9F80037C3F301439A4507D1F8
:1054DC000021204602F0E1F95146204602F0DDF9A8
:1054EC0008FA04F4C6F82045B4E7022A0CD10321CB
:1054FC00204602F0D2F90AF00503012BF0D15946EF
:10550C002046FFF70BFDEBE70221204602F0C5F920
:10551C00BAF1030FF3D0032AE2D18A45EEE795FAEC
:10552C00A5F3B3FA83F304FA03F29B0003F180436F
:10553C0003F5C04325EA0205D3F81005D3F810157E
:10554C00C0F30420C1F30141FFF7E8FC91E700BF71
:10555C00006100400060004020610040100100200C
:10556C00F8B50679524C4FF0280C0CFB06FC04EBFA
:10557C000C073D7F002D40F09880056844F80C2006
:10558C007B60CB7B87F82530CB78BB774B79FB776F
:10559C00CB7B002B49D10F78012307F01F07BB40B1
:1055AC000F7B012F4FF0A0474FF0A04C94BFC7F8D2
:1055BC000C35C7F808350B7803F01F0303F5E073BF
:1055CC0001274CF823704B78FF2B0CD003F01F03F2
:1055DC009F40CCF80C754B7803F01F0303F5E07378
:1055EC0003274CF823708B78FF2B09D08F7B03F0AB
:1055FC001F0303F5E0734FF0A04CBF004CF8237071
:10560C00CB78FF2B11D0012703F01F0307FA03F30C
:10561C004FF0A0474FF0030CC7F80835CB7803F0D8
:10562C001F0303F5E07347F823C00B7C9BB94B7841
:10563C0091F800C0FF2B18BF1F468B78C5F808C522
:10564C0008BF4FF0FF37FF2B08BF4FF0FF33C5F8F3
:10565C000C75C5F810358B68C5F824354B7B0F7B62
:10566C00003B18BF0123022F19D0032F1AD0012F92
:10567C0001D143F00203C5F854350123C5F80035B8
:10568C0022B1006840F30730FDF718FB282303FB19
:10569C00064400236377074801232377F8BD43F0C2
:1056AC000403E8E743F00603E5E70348F6E700BF29
:1056BC00940400200000AD0B0500AD0B70B506790D
:1056CC00264C056828237343E35833B145F3073060
:1056DC00FDF702FB0423C5F808330023C5F8003599
:1056EC00282303FB064393F8253083BBD5F80835F4
:1056FC0003F01F034FF0A04203F5E073022142F8C0
:10570C002310D5F81035581C1EBF03F01F0303F5EA
:10571C00E07342F82310D5F80C355A1C08D003F06E
:10572C001F0303F5E0734FF0A042022142F823104F
:10573C00282303FB06439B7FFF2B08D003F01F039A
:10574C0003F5E0734FF0A042022142F82310282306
:10575C0003FB06440023237770BD00BF9404002094
:10576C002DE9F8430779414E28237B439446F218E0
:10577C000D46517F8646002976D156F80380B8F144
:10578C00000F01D00123537795E80F00282404FB68
:10579C00076404F10C0989E80F00002384F8243015
:1057AC00A37FFF2B08D0012203F01F0302FA03F39F
:1057BC004FF0A042C2F80C352823BCF1000F06D0E4
:1057CC0003FB076300222A485A77BDE8F883DEF80A
:1057DC00004003FB07630422C4F80823C3F820C06D
:1057EC00C4F808C1D4F808216A6892B12B681B78F8
:1057FC00C4F81C356B68012B0DD92B685B78C4F889
:10580C001C35B8F1000F0ED00423C4F8043319482A
:10581C00DBE7DB7FECE7EB68012BF2D9282303FBFA
:10582C000763DB7FEBE707EB870106EBC101D4F8DD
:10583C000831002BFBD0C4F808812046D4F808317D
:10584C0002F039F80028F2D1282303FB0766B37F56
:10585C00FF2BDCD0012203F01F0302FA03F34FF0FD
:10586C00A042C2F80835D2E70348AEE79404002002
:10587C000300AD0B0000AD0B0B00AD0B02494FF05C
:10588C00402002F04BB800BF9404002001490248AC
:10589C0002F044B8BC0400200030024010B5114C9A
:1058AC00114A1249032323616361114BA261E36125
:1058BC004FF4806323620023A3626362E362226677
:1058CC000C4A6266E01D1022A2662367E3666367DA
:1058DC0001F01FFD0849204601F01BFD2023A37198
:1058EC0010BD00BFE4040020BD8A0000C68A000081
:1058FC00D7070020C7070020CA8A00002DE9F84FFF
:10590C00214F4FF0180B14460BFB00720646936A9E
:10591C00556AAB42884631D8D2F820A0AAEB0509CB
:10592C0009F1FF32944211D8182306FB03333B4490
:10593C00224658684146284401F005FD2C441823A2
:10594C0003FB067301205C62BDE8F88F13449C4294
:10595C0018D800FB0BBBBB444A46DBF804002C44B4
:10596C00284401F0F0FCB4EB0A04E8D0DBF80400A6
:10597C00224608EB090101F0E6FCE0E7013B5B1B6A
:10598C00A342D1D20020DFE7E4040020F8B5144B89
:10599C00182700FB07751D4407FB00330E46DB6A16
:1059AC00012B14460AD0022B14D023B9284601F03F
:1059BC00D7FF844208D900242046F8BD284601F0C0
:1059CC00CFFF844228BF044622463146284601F0C8
:1059DC00D0FFF1E72846BDE8F84001F0E5BF00BF75
:1059EC00E4040020034B182202FB00339A6A586A25
:1059FC00801A7047E404002003484FF0FF324FF048
:105A0C00FF3300F011BA00BF9C010020014800F0E8
:105A1C0085BA00BF9C010020034A044B02609B1A0C
:105A2C0003489B1058437047887C0000147D00008D
:105A3C00B76DDBB62DE9F041064686B00F464FF048
:105A4C002003EFF3118883F31288BFF36F8F00F0FC
:105A5C00E3FD042E96BF224B224B53F826302249ED
:105A6C0003960024CDE90434204B0094CDE9014386
:105A7C00054623460122204601F0D3FF6FB1FB6996
:105A8C00C3F308034BB11A4B17490094CDE90143FA
:105A9C0001222346204601F0C4FF2DB1284601F017
:105AAC00DAFF08B1037803B91248134B02930023B1
:105ABC00CDE90350CDE90033184601220A4901F023
:105ACC00B0FF39463046FEF771FF88F31188BFF3FB
